{
  "contracts/Puma.sol": {
    "Puma": {
      "abi": [
        {
          "inputs": [
            {
              "internalType": "address payable",
              "name": "_systemAddress",
              "type": "address"
            }
          ],
          "stateMutability": "nonpayable",
          "type": "constructor"
        },
        {
          "inputs": [
            {
              "internalType": "address",
              "name": "sender",
              "type": "address"
            },
            {
              "internalType": "uint256",
              "name": "tokenId",
              "type": "uint256"
            },
            {
              "internalType": "address",
              "name": "owner",
              "type": "address"
            }
          ],
          "name": "ERC721IncorrectOwner",
          "type": "error"
        },
        {
          "inputs": [
            {
              "internalType": "address",
              "name": "operator",
              "type": "address"
            },
            {
              "internalType": "uint256",
              "name": "tokenId",
              "type": "uint256"
            }
          ],
          "name": "ERC721InsufficientApproval",
          "type": "error"
        },
        {
          "inputs": [
            {
              "internalType": "address",
              "name": "approver",
              "type": "address"
            }
          ],
          "name": "ERC721InvalidApprover",
          "type": "error"
        },
        {
          "inputs": [
            {
              "internalType": "address",
              "name": "operator",
              "type": "address"
            }
          ],
          "name": "ERC721InvalidOperator",
          "type": "error"
        },
        {
          "inputs": [
            {
              "internalType": "address",
              "name": "owner",
              "type": "address"
            }
          ],
          "name": "ERC721InvalidOwner",
          "type": "error"
        },
        {
          "inputs": [
            {
              "internalType": "address",
              "name": "receiver",
              "type": "address"
            }
          ],
          "name": "ERC721InvalidReceiver",
          "type": "error"
        },
        {
          "inputs": [
            {
              "internalType": "address",
              "name": "sender",
              "type": "address"
            }
          ],
          "name": "ERC721InvalidSender",
          "type": "error"
        },
        {
          "inputs": [
            {
              "internalType": "uint256",
              "name": "tokenId",
              "type": "uint256"
            }
          ],
          "name": "ERC721NonexistentToken",
          "type": "error"
        },
        {
          "anonymous": false,
          "inputs": [
            {
              "indexed": true,
              "internalType": "address",
              "name": "owner",
              "type": "address"
            },
            {
              "indexed": true,
              "internalType": "address",
              "name": "approved",
              "type": "address"
            },
            {
              "indexed": true,
              "internalType": "uint256",
              "name": "tokenId",
              "type": "uint256"
            }
          ],
          "name": "Approval",
          "type": "event"
        },
        {
          "anonymous": false,
          "inputs": [
            {
              "indexed": true,
              "internalType": "address",
              "name": "owner",
              "type": "address"
            },
            {
              "indexed": true,
              "internalType": "address",
              "name": "operator",
              "type": "address"
            },
            {
              "indexed": false,
              "internalType": "bool",
              "name": "approved",
              "type": "bool"
            }
          ],
          "name": "ApprovalForAll",
          "type": "event"
        },
        {
          "anonymous": false,
          "inputs": [
            {
              "indexed": false,
              "internalType": "uint256",
              "name": "_fromTokenId",
              "type": "uint256"
            },
            {
              "indexed": false,
              "internalType": "uint256",
              "name": "_toTokenId",
              "type": "uint256"
            }
          ],
          "name": "BatchMetadataUpdate",
          "type": "event"
        },
        {
          "anonymous": false,
          "inputs": [
            {
              "indexed": false,
              "internalType": "uint256",
              "name": "_tokenId",
              "type": "uint256"
            }
          ],
          "name": "MetadataUpdate",
          "type": "event"
        },
        {
          "anonymous": false,
          "inputs": [
            {
              "indexed": true,
              "internalType": "address",
              "name": "from",
              "type": "address"
            },
            {
              "indexed": true,
              "internalType": "address",
              "name": "to",
              "type": "address"
            },
            {
              "indexed": true,
              "internalType": "uint256",
              "name": "tokenId",
              "type": "uint256"
            }
          ],
          "name": "Transfer",
          "type": "event"
        },
        {
          "inputs": [
            {
              "internalType": "string",
              "name": "_dealID",
              "type": "string"
            },
            {
              "internalType": "uint256",
              "name": "_minAmt",
              "type": "uint256"
            },
            {
              "internalType": "uint256",
              "name": "_targetAmt",
              "type": "uint256"
            },
            {
              "internalType": "uint256",
              "name": "_floatingEndTimestamp",
              "type": "uint256"
            },
            {
              "internalType": "uint256",
              "name": "_expirationTimestamp",
              "type": "uint256"
            },
            {
              "internalType": "uint256",
              "name": "_tokenID",
              "type": "uint256"
            },
            {
              "internalType": "uint256",
              "name": "_interestRate",
              "type": "uint256"
            },
            {
              "internalType": "address payable",
              "name": "_companyAddress",
              "type": "address"
            }
          ],
          "name": "addDeal",
          "outputs": [],
          "stateMutability": "payable",
          "type": "function"
        },
        {
          "inputs": [
            {
              "internalType": "address payable",
              "name": "_investorAddress",
              "type": "address"
            },
            {
              "internalType": "string",
              "name": "_dealID",
              "type": "string"
            },
            {
              "internalType": "uint256",
              "name": "amount",
              "type": "uint256"
            }
          ],
          "name": "addInvestment",
          "outputs": [
            {
              "internalType": "uint256",
              "name": "",
              "type": "uint256"
            }
          ],
          "stateMutability": "payable",
          "type": "function"
        },
        {
          "inputs": [
            {
              "internalType": "address",
              "name": "to",
              "type": "address"
            },
            {
              "internalType": "uint256",
              "name": "tokenId",
              "type": "uint256"
            }
          ],
          "name": "approve",
          "outputs": [],
          "stateMutability": "nonpayable",
          "type": "function"
        },
        {
          "inputs": [
            {
              "internalType": "address",
              "name": "owner",
              "type": "address"
            }
          ],
          "name": "balanceOf",
          "outputs": [
            {
              "internalType": "uint256",
              "name": "",
              "type": "uint256"
            }
          ],
          "stateMutability": "view",
          "type": "function"
        },
        {
          "inputs": [
            {
              "internalType": "string",
              "name": "dealID",
              "type": "string"
            },
            {
              "internalType": "bool",
              "name": "approved",
              "type": "bool"
            }
          ],
          "name": "dealStartApproval",
          "outputs": [],
          "stateMutability": "payable",
          "type": "function"
        },
        {
          "inputs": [
            {
              "internalType": "string",
              "name": "",
              "type": "string"
            }
          ],
          "name": "deals",
          "outputs": [
            {
              "internalType": "string",
              "name": "dealID",
              "type": "string"
            },
            {
              "internalType": "uint256",
              "name": "minAmt",
              "type": "uint256"
            },
            {
              "internalType": "uint256",
              "name": "amountRaised",
              "type": "uint256"
            },
            {
              "internalType": "uint256",
              "name": "targetAmt",
              "type": "uint256"
            },
            {
              "internalType": "uint256",
              "name": "floatingEndTimestamp",
              "type": "uint256"
            },
            {
              "internalType": "uint256",
              "name": "expirationTimestamp",
              "type": "uint256"
            },
            {
              "internalType": "uint256",
              "name": "tokenID",
              "type": "uint256"
            },
            {
              "internalType": "uint256",
              "name": "promisedInterestRate",
              "type": "uint256"
            },
            {
              "internalType": "uint256",
              "name": "interestRate",
              "type": "uint256"
            },
            {
              "internalType": "address payable",
              "name": "companyAddress",
              "type": "address"
            }
          ],
          "stateMutability": "view",
          "type": "function"
        },
        {
          "inputs": [
            {
              "internalType": "uint256",
              "name": "tokenId",
              "type": "uint256"
            }
          ],
          "name": "getApproved",
          "outputs": [
            {
              "internalType": "address",
              "name": "",
              "type": "address"
            }
          ],
          "stateMutability": "view",
          "type": "function"
        },
        {
          "inputs": [
            {
              "internalType": "uint256",
              "name": "",
              "type": "uint256"
            }
          ],
          "name": "investments",
          "outputs": [
            {
              "internalType": "address payable",
              "name": "investorAddress",
              "type": "address"
            },
            {
              "internalType": "uint256",
              "name": "amountInvested",
              "type": "uint256"
            },
            {
              "internalType": "string",
              "name": "dealID",
              "type": "string"
            }
          ],
          "stateMutability": "view",
          "type": "function"
        },
        {
          "inputs": [
            {
              "internalType": "address",
              "name": "owner",
              "type": "address"
            },
            {
              "internalType": "address",
              "name": "operator",
              "type": "address"
            }
          ],
          "name": "isApprovedForAll",
          "outputs": [
            {
              "internalType": "bool",
              "name": "",
              "type": "bool"
            }
          ],
          "stateMutability": "view",
          "type": "function"
        },
        {
          "inputs": [
            {
              "internalType": "address payable",
              "name": "recipient",
              "type": "address"
            },
            {
              "internalType": "string",
              "name": "tokenURI",
              "type": "string"
            }
          ],
          "name": "mintNFT",
          "outputs": [
            {
              "internalType": "uint256",
              "name": "",
              "type": "uint256"
            }
          ],
          "stateMutability": "nonpayable",
          "type": "function"
        },
        {
          "inputs": [],
          "name": "name",
          "outputs": [
            {
              "internalType": "string",
              "name": "",
              "type": "string"
            }
          ],
          "stateMutability": "view",
          "type": "function"
        },
        {
          "inputs": [
            {
              "internalType": "uint256",
              "name": "tokenId",
              "type": "uint256"
            }
          ],
          "name": "ownerOf",
          "outputs": [
            {
              "internalType": "address",
              "name": "",
              "type": "address"
            }
          ],
          "stateMutability": "view",
          "type": "function"
        },
        {
          "inputs": [
            {
              "internalType": "uint256",
              "name": "investmentID",
              "type": "uint256"
            }
          ],
          "name": "revertInvestment",
          "outputs": [],
          "stateMutability": "payable",
          "type": "function"
        },
        {
          "inputs": [
            {
              "internalType": "address",
              "name": "from",
              "type": "address"
            },
            {
              "internalType": "address",
              "name": "to",
              "type": "address"
            },
            {
              "internalType": "uint256",
              "name": "tokenId",
              "type": "uint256"
            }
          ],
          "name": "safeTransferFrom",
          "outputs": [],
          "stateMutability": "nonpayable",
          "type": "function"
        },
        {
          "inputs": [
            {
              "internalType": "address",
              "name": "from",
              "type": "address"
            },
            {
              "internalType": "address",
              "name": "to",
              "type": "address"
            },
            {
              "internalType": "uint256",
              "name": "tokenId",
              "type": "uint256"
            },
            {
              "internalType": "bytes",
              "name": "data",
              "type": "bytes"
            }
          ],
          "name": "safeTransferFrom",
          "outputs": [],
          "stateMutability": "nonpayable",
          "type": "function"
        },
        {
          "inputs": [
            {
              "internalType": "address",
              "name": "operator",
              "type": "address"
            },
            {
              "internalType": "bool",
              "name": "approved",
              "type": "bool"
            }
          ],
          "name": "setApprovalForAll",
          "outputs": [],
          "stateMutability": "nonpayable",
          "type": "function"
        },
        {
          "inputs": [
            {
              "internalType": "bytes4",
              "name": "interfaceId",
              "type": "bytes4"
            }
          ],
          "name": "supportsInterface",
          "outputs": [
            {
              "internalType": "bool",
              "name": "",
              "type": "bool"
            }
          ],
          "stateMutability": "view",
          "type": "function"
        },
        {
          "inputs": [],
          "name": "symbol",
          "outputs": [
            {
              "internalType": "string",
              "name": "",
              "type": "string"
            }
          ],
          "stateMutability": "view",
          "type": "function"
        },
        {
          "inputs": [
            {
              "internalType": "uint256",
              "name": "tokenId",
              "type": "uint256"
            }
          ],
          "name": "tokenURI",
          "outputs": [
            {
              "internalType": "string",
              "name": "",
              "type": "string"
            }
          ],
          "stateMutability": "view",
          "type": "function"
        },
        {
          "inputs": [
            {
              "internalType": "string",
              "name": "_dealID",
              "type": "string"
            }
          ],
          "name": "transferAllBackPerDeal",
          "outputs": [],
          "stateMutability": "payable",
          "type": "function"
        },
        {
          "inputs": [
            {
              "internalType": "address",
              "name": "from",
              "type": "address"
            },
            {
              "internalType": "address",
              "name": "to",
              "type": "address"
            },
            {
              "internalType": "uint256",
              "name": "tokenId",
              "type": "uint256"
            }
          ],
          "name": "transferFrom",
          "outputs": [],
          "stateMutability": "nonpayable",
          "type": "function"
        },
        {
          "inputs": [
            {
              "internalType": "address",
              "name": "actor",
              "type": "address"
            },
            {
              "internalType": "bool",
              "name": "willSend",
              "type": "bool"
            },
            {
              "internalType": "uint256",
              "name": "tokenID",
              "type": "uint256"
            }
          ],
          "name": "transferNFT",
          "outputs": [],
          "stateMutability": "nonpayable",
          "type": "function"
        }
      ],
      "evm": {
        "bytecode": {
          "linkReferences": {},
          "object": "60806040523480156200001157600080fd5b50604051620030cb380380620030cb8339810160408190526200003491620000b9565b60405180604001604052806005815260200164135e53919560da1b815250604051806040016040528060048152602001631353919560e21b815250816000908162000080919062000192565b5060016200008f828262000192565b5050600980546001600160a01b0319166001600160a01b039390931692909217909155506200025e565b600060208284031215620000cc57600080fd5b81516001600160a01b0381168114620000e457600080fd5b9392505050565b634e487b7160e01b600052604160045260246000fd5b600181811c908216806200011657607f821691505b6020821081036200013757634e487b7160e01b600052602260045260246000fd5b50919050565b601f8211156200018d576000816000526020600020601f850160051c81016020861015620001685750805b601f850160051c820191505b81811015620001895782815560010162000174565b5050505b505050565b81516001600160401b03811115620001ae57620001ae620000eb565b620001c681620001bf845462000101565b846200013d565b602080601f831160018114620001fe5760008415620001e55750858301515b600019600386901b1c1916600185901b17855562000189565b600085815260208120601f198616915b828110156200022f578886015182559484019460019091019084016200020e565b50858210156200024e5787850151600019600388901b60f8161c191681555b5050505050600190811b01905550565b612e5d806200026e6000396000f3fe6080604052600436106101755760003560e01c806396f92cda116100cb578063bd330d7b1161007f578063e985e9c511610059578063e985e9c5146103e3578063eacabe141461042c578063fd345c8a1461044c57600080fd5b8063bd330d7b1461039d578063c87b56dd146103b0578063e0e06210146103d057600080fd5b8063a0d836f1116100b0578063a0d836f11461033d578063a22cb4651461035d578063b88d4fde1461037d57600080fd5b806396f92cda146102f4578063a0a57dac1461030757600080fd5b806323b872dd1161012d5780636352211e116101075780636352211e1461029157806370a08231146102b157806395d89b41146102df57600080fd5b806323b872dd1461023e57806326b3c5f91461025e57806342842e0e1461027157600080fd5b8063081812fc1161015e578063081812fc146101d1578063095ea7b314610209578063180bbc171461022b57600080fd5b806301ffc9a71461017a57806306fdde03146101af575b600080fd5b34801561018657600080fd5b5061019a6101953660046125c4565b61047b565b60405190151581526020015b60405180910390f35b3480156101bb57600080fd5b506101c46104bf565b6040516101a69190612631565b3480156101dd57600080fd5b506101f16101ec366004612644565b610551565b6040516001600160a01b0390911681526020016101a6565b34801561021557600080fd5b50610229610224366004612672565b61057a565b005b61022961023936600461275f565b610589565b34801561024a57600080fd5b506102296102593660046127ad565b6108a3565b61022961026c3660046127ee565b61092e565b34801561027d57600080fd5b5061022961028c3660046127ad565b610c97565b34801561029d57600080fd5b506101f16102ac366004612644565b610cb2565b3480156102bd57600080fd5b506102d16102cc366004612823565b610cbd565b6040519081526020016101a6565b3480156102eb57600080fd5b506101c4610d1e565b610229610302366004612840565b610d2d565b34801561031357600080fd5b506103276103223660046127ee565b611103565b6040516101a69a999897969594939291906128cc565b34801561034957600080fd5b5061022961035836600461292f565b6111f0565b34801561036957600080fd5b5061022961037836600461296d565b6112c9565b34801561038957600080fd5b50610229610398366004612999565b6112d4565b6102296103ab366004612644565b6112eb565b3480156103bc57600080fd5b506101c46103cb366004612644565b611594565b6102d16103de366004612a19565b6116a5565b3480156103ef57600080fd5b5061019a6103fe366004612a72565b6001600160a01b03918216600090815260056020908152604080832093909416825291909152205460ff1690565b34801561043857600080fd5b506102d1610447366004612aab565b611adc565b34801561045857600080fd5b5061046c610467366004612644565b611b16565b6040516101a693929190612afb565b60006001600160e01b031982167f490649060000000000000000000000000000000000000000000000000000000014806104b957506104b982611bcb565b92915050565b6060600080546104ce90612b2c565b80601f01602080910402602001604051908101604052809291908181526020018280546104fa90612b2c565b80156105475780601f1061051c57610100808354040283529160200191610547565b820191906000526020600020905b81548152906001019060200180831161052a57829003601f168201915b5050505050905090565b600061055c82611c66565b506000828152600460205260409020546001600160a01b03166104b9565b610585828233611c9f565b5050565b6009546001600160a01b031633146105f25760405162461bcd60e51b815260206004820152602160248201527f4f6e6c792061646d696e2063616e2063616c6c20746869732066756e6374696f6044820152603760f91b60648201526084015b60405180910390fd5b6000600a836040516106049190612b66565b908152602001604051809103902060030154116106635760405162461bcd60e51b815260206004820152601560248201527f4465616c20446f6573206e6f742065786973747321000000000000000000000060448201526064016105e9565b600a826040516106739190612b66565b908152602001604051809103902060030154600a836040516106959190612b66565b90815260200160405180910390206002015414806106b05750805b156107fd57600a826040516106c59190612b66565b908152604051908190036020019020600201546009546106ed906001600160a01b0316610cbd565b101561073b5760405162461bcd60e51b815260206004820152601360248201527f496e73756666696369656e742046756e6473210000000000000000000000000060448201526064016105e9565b600a8260405161074b9190612b66565b908152604051908190036020018120600901546001600160a01b0316906108fc90600a9061077a908690612b66565b90815260405190819003602001812060020154801590920291906000818181858888f193505050501580156107b3573d6000803e3d6000fd5b50600a826040516107c49190612b66565b908152602001604051809103902060070154600a836040516107e69190612b66565b908152604051908190036020019020600801555050565b600a8260405161080d9190612b66565b908152602001604051809103902060040154600a8360405161082f9190612b66565b9081526040519081900360200190206005015561084b8261092e565b610585600a8360405161085e9190612b66565b908152604051908190036020018120600901546001600160a01b031690600090600a9061088c908790612b66565b9081526020016040518091039020600601546111f0565b6001600160a01b0382166108cd57604051633250574960e11b8152600060048201526024016105e9565b60006108da838333611cac565b9050836001600160a01b0316816001600160a01b031614610928576040516364283d7b60e01b81526001600160a01b03808616600483015260248201849052821660448201526064016105e9565b50505050565b6009546001600160a01b031633146109925760405162461bcd60e51b815260206004820152602160248201527f4f6e6c792061646d696e2063616e2063616c6c20746869732066756e6374696f6044820152603760f91b60648201526084016105e9565b6000600a826040516109a49190612b66565b90815260200160405180910390206003015411610a035760405162461bcd60e51b815260206004820152601560248201527f4465616c20446f6573206e6f742065786973747321000000000000000000000060448201526064016105e9565b42600a82604051610a149190612b66565b9081526020016040518091039020600501541015610a9a5760405162461bcd60e51b815260206004820152602560248201527f43616e2774207472616e73666572206265666f7265206465616c20697320657860448201527f706972656400000000000000000000000000000000000000000000000000000060648201526084016105e9565b600063bbf81e00600a83604051610ab19190612b66565b908152602001604051809103902060040154600a84604051610ad39190612b66565b908152602001604051809103902060050154610aef9190612b98565b600a84604051610aff9190612b66565b9081526020016040518091039020600801546064610b1d9190612bab565b600a85604051610b2d9190612b66565b908152602001604051809103902060030154610b499190612bbe565b610b539190612bbe565b610b5d9190612bd5565b905080341015610baf5760405162461bcd60e51b815260206004820152601260248201527f496e73756666696369656e742066756e6473000000000000000000000000000060448201526064016105e9565b60015b600854811015610c92578280519060200120600b6000838152602001908152602001600020600201604051610be79190612c6a565b6040518091039020148015610c0c57506000818152600b602052604090206001015415155b15610c8a576000818152600b60205260408082205490516001600160a01b039091169184156108fc02918591818181858888f19350505050158015610c55573d6000803e3d6000fd5b506000818152600b6020526040812080546001600160a01b03191681556001810182905590610c876002830182612558565b50505b600101610bb2565b505050565b610c92838383604051806020016040528060008152506112d4565b60006104b982611c66565b60006001600160a01b038216610d02576040517f89c62b64000000000000000000000000000000000000000000000000000000008152600060048201526024016105e9565b506001600160a01b031660009081526003602052604090205490565b6060600180546104ce90612b2c565b6009546001600160a01b03163314610d915760405162461bcd60e51b815260206004820152602160248201527f4f6e6c792061646d696e2063616e2063616c6c20746869732066756e6374696f6044820152603760f91b60648201526084016105e9565b6009546001600160a01b0316610da684610cb2565b6001600160a01b031614610e225760405162461bcd60e51b815260206004820152602960248201527f4e4654206d757374206265207472616e7366657272656420746f20737973746560448201527f6d4164647265737321000000000000000000000000000000000000000000000060648201526084016105e9565b6000885111610e735760405162461bcd60e51b815260206004820152601760248201527f4465616c2049442063616e6e6f7420626520656d70747900000000000000000060448201526064016105e9565b4284118015610e825750848410155b610ece5760405162461bcd60e51b815260206004820152601c60248201527f496e76616c69642065787069726174696f6e2074696d657374616d700000000060448201526064016105e9565b428511610f1d5760405162461bcd60e51b815260206004820152601e60248201527f496e76616c696420666c6f6174696e67456e642074696d657374616d7021000060448201526064016105e9565b60008711610f6d5760405162461bcd60e51b815260206004820152601c60248201527f43616e2774206163636570742030206173206d696e20616d6f756e740000000060448201526064016105e9565b86861015610fe35760405162461bcd60e51b815260206004820152603960248201527f54617267657420416d6f756e742073686f756c64206265206d6f72652074686160448201527f6e2f657175616c20746f206d696e696d756d20616d6f756e740000000000000060648201526084016105e9565b6040518061014001604052808981526020018881526020016000815260200187815260200186815260200185815260200184815260200183815260200160008152602001826001600160a01b0316815250600a896040516110449190612b66565b908152604051908190036020019020815181906110619082612cc6565b506020820151600182015560408201516002820155606082015160038201556080820151600482015560a0820151600582015560c0820151600682015560e08201516007820155610100820151600882015561012090910151600991820180546001600160a01b0319166001600160a01b0392831617905590546110f891168960646110ee8a601e612bbe565b6103de9190612bd5565b505050505050505050565b8051602081830181018051600a8252928201919093012091528054819061112990612b2c565b80601f016020809104026020016040519081016040528092919081815260200182805461115590612b2c565b80156111a25780601f10611177576101008083540402835291602001916111a2565b820191906000526020600020905b81548152906001019060200180831161118557829003601f168201915b50505060018401546002850154600386015460048701546005880154600689015460078a015460088b01546009909b0154999a9699959850939650919490939192916001600160a01b03168a565b600082611208576009546001600160a01b031661120a565b835b90506000836112195784611226565b6009546001600160a01b03165b9050816001600160a01b031661123b84610cb2565b6001600160a01b0316146112b75760405162461bcd60e51b815260206004820152602a60248201527f53656e646572206d75737420626520746865206f776e6572206f66207468617460448201527f2042696c6c284e4654290000000000000000000000000000000000000000000060648201526084016105e9565b6112c2828285611da5565b5050505050565b610585338383611dc0565b6112df8484846108a3565b61092884848484611e78565b6009546001600160a01b0316331461134f5760405162461bcd60e51b815260206004820152602160248201527f4f6e6c792061646d696e2063616e2063616c6c20746869732066756e6374696f6044820152603760f91b60648201526084016105e9565b6000818152600b60205260409020600101546113ad5760405162461bcd60e51b815260206004820152601b60248201527f496e766573746d656e7420646f6573206e6f742065786973747321000000000060448201526064016105e9565b42600a600b60008481526020019081526020016000206002016040516113d39190612c6a565b908152602001604051809103902060040154116114585760405162461bcd60e51b815260206004820152602c60248201527f467265657a696e6720706572696f6420737461727465642c2063616e2774207760448201527f69746864726177206e6f7721000000000000000000000000000000000000000060648201526084016105e9565b6000818152600b60205260409020600101546114b65760405162461bcd60e51b815260206004820152601460248201527f496e73756666696369656e742042616c616e636500000000000000000000000060448201526064016105e9565b6000818152600b60205260409020600101543410156115175760405162461bcd60e51b815260206004820152601260248201527f496e73756666696369656e742066756e6473000000000000000000000000000060448201526064016105e9565b6000818152600b6020526040808220805460019091015491516001600160a01b039091169282156108fc02929190818181858888f19350505050158015611562573d6000803e3d6000fd5b506000818152600b6020526040812080546001600160a01b03191681556001810182905590610c926002830182612558565b606061159f82611c66565b50600082815260066020526040812080546115b990612b2c565b80601f01602080910402602001604051908101604052809291908181526020018280546115e590612b2c565b80156116325780601f1061160757610100808354040283529160200191611632565b820191906000526020600020905b81548152906001019060200180831161161557829003601f168201915b50505050509050600061165060408051602081019091526000815290565b90508051600003611662575092915050565b81511561169457808260405160200161167c929190612d86565b60405160208183030381529060405292505050919050565b61169d84611f9a565b949350505050565b6000808351116116f75760405162461bcd60e51b815260206004820152601760248201527f4465616c2049442063616e6e6f7420626520656d70747900000000000000000060448201526064016105e9565b6000600a846040516117099190612b66565b908152602001604051809103902060030154116117685760405162461bcd60e51b815260206004820152601560248201527f4465616c20446f6573206e6f742065786973747321000000000000000000000060448201526064016105e9565b42600a846040516117799190612b66565b908152602001604051809103902060040154116117fe5760405162461bcd60e51b815260206004820152602260248201527f466c6f6174696e6720706572696f64206f766572212043616e277420696e766560448201527f737400000000000000000000000000000000000000000000000000000000000060648201526084016105e9565b600a8360405161180e9190612b66565b9081526020016040518091039020600201548261182b9190612bab565b600a8460405161183b9190612b66565b90815260200160405180910390206003015410156118c05760405162461bcd60e51b8152602060048201526024808201527f43616e277420496e76657374206d6f7265207468616e206c696d697420616d6f60448201527f756e74210000000000000000000000000000000000000000000000000000000060648201526084016105e9565b6000600a846040516118d29190612b66565b908152602001604051809103902060020154600a856040516118f49190612b66565b9081526020016040518091039020600301546119109190612b98565b9050600a846040516119229190612b66565b9081526020016040518091039020600101548310158061196c5750600a8460405161194d9190612b66565b9081526020016040518091039020600101548110801561196c57508083145b6119e0576040805162461bcd60e51b81526020600482015260248101919091527f416d6f756e7420496e766573746564206d757374206265203e3d206d696e206160448201527f6d6f756e74206f7220626520746865206c617374207472616e73616374696f6e60648201526084016105e9565b6009546040516001600160a01b039091169084156108fc029085906000818181858888f19350505050158015611a1a573d6000803e3d6000fd5b5060088054906000611a2b83612db5565b9091555050604080516060810182526001600160a01b03878116825260208083018781528385018981526008546000908152600b90935294909120835181546001600160a01b031916931692909217825551600182015591519091906002820190611a969082612cc6565b5090505082600a85604051611aab9190612b66565b90815260200160405180910390206002016000828254611acb9190612bab565b909155505060085495945050505050565b600754600090611aec848261200f565b611af6818461208d565b600160076000828254611b099190612bab565b9091555090949350505050565b600b602052600090815260409020805460018201546002830180546001600160a01b03909316939192611b4890612b2c565b80601f0160208091040260200160405190810160405280929190818152602001828054611b7490612b2c565b8015611bc15780601f10611b9657610100808354040283529160200191611bc1565b820191906000526020600020905b815481529060010190602001808311611ba457829003601f168201915b5050505050905083565b60006001600160e01b031982167f80ac58cd000000000000000000000000000000000000000000000000000000001480611c2e57506001600160e01b031982167f5b5e139f00000000000000000000000000000000000000000000000000000000145b806104b957507f01ffc9a7000000000000000000000000000000000000000000000000000000006001600160e01b03198316146104b9565b6000818152600260205260408120546001600160a01b0316806104b957604051637e27328960e01b8152600481018490526024016105e9565b610c9283838360016120dd565b6000828152600260205260408120546001600160a01b0390811690831615611cd957611cd981848661221b565b6001600160a01b03811615611d1757611cf66000856000806120dd565b6001600160a01b038116600090815260036020526040902080546000190190555b6001600160a01b03851615611d46576001600160a01b0385166000908152600360205260409020805460010190555b60008481526002602052604080822080546001600160a01b0319166001600160a01b0389811691821790925591518793918516917fddf252ad1be2c89b69c2b068fc378daa952ba7f163c4a11628f55a4df523b3ef91a4949350505050565b610c9283838360405180602001604052806000815250612298565b6001600160a01b038216611e0b576040517f5b08ba180000000000000000000000000000000000000000000000000000000081526001600160a01b03831660048201526024016105e9565b6001600160a01b03838116600081815260056020908152604080832094871680845294825291829020805460ff191686151590811790915591519182527f17307eab39ab6107e8899845ad3d59bd9653f200f220920489ca2b5937696c31910160405180910390a3505050565b6001600160a01b0383163b1561092857604051630a85bd0160e11b81526001600160a01b0384169063150b7a0290611eba903390889087908790600401612dce565b6020604051808303816000875af1925050508015611ef5575060408051601f3d908101601f19168201909252611ef291810190612e0a565b60015b611f5e573d808015611f23576040519150601f19603f3d011682016040523d82523d6000602084013e611f28565b606091505b508051600003611f5657604051633250574960e11b81526001600160a01b03851660048201526024016105e9565b805181602001fd5b6001600160e01b03198116630a85bd0160e11b146112c257604051633250574960e11b81526001600160a01b03851660048201526024016105e9565b6060611fa582611c66565b506000611fbd60408051602081019091526000815290565b90506000815111611fdd5760405180602001604052806000815250612008565b80611fe7846122a3565b604051602001611ff8929190612d86565b6040516020818303038152906040525b9392505050565b6001600160a01b03821661203957604051633250574960e11b8152600060048201526024016105e9565b600061204783836000611cac565b90506001600160a01b03811615610c92576040517f73c6ac6e000000000000000000000000000000000000000000000000000000008152600060048201526024016105e9565b60008281526006602052604090206120a58282612cc6565b506040518281527ff8e1a15aba9398e019f0b49df1a4fde98ee17ae345cb5f6b5e2c27f5033e8ce79060200160405180910390a15050565b80806120f157506001600160a01b03821615155b156121eb57600061210184611c66565b90506001600160a01b0383161580159061212d5750826001600160a01b0316816001600160a01b031614155b801561215f57506001600160a01b0380821660009081526005602090815260408083209387168352929052205460ff16155b156121a1576040517fa9fbf51f0000000000000000000000000000000000000000000000000000000081526001600160a01b03841660048201526024016105e9565b81156121e95783856001600160a01b0316826001600160a01b03167f8c5be1e5ebec7d5bd14f71427d1e84f3dd0314c0f7b2291e5b200ac8c7c3b92560405160405180910390a45b505b5050600090815260046020526040902080546001600160a01b0319166001600160a01b0392909216919091179055565b612226838383612343565b610c92576001600160a01b03831661225457604051637e27328960e01b8152600481018290526024016105e9565b6040517f177e802f0000000000000000000000000000000000000000000000000000000081526001600160a01b0383166004820152602481018290526044016105e9565b6112df8484846123c6565b606060006122b083612476565b600101905060008167ffffffffffffffff8111156122d0576122d061269e565b6040519080825280601f01601f1916602001820160405280156122fa576020820181803683370190505b5090508181016020015b600019017f3031323334353637383961626364656600000000000000000000000000000000600a86061a8153600a850494508461230457509392505050565b60006001600160a01b0383161580159061169d5750826001600160a01b0316846001600160a01b0316148061239d57506001600160a01b0380851660009081526005602090815260408083209387168352929052205460ff165b8061169d5750506000908152600460205260409020546001600160a01b03908116911614919050565b6001600160a01b0382166123f057604051633250574960e11b8152600060048201526024016105e9565b60006123fe83836000611cac565b90506001600160a01b03811661242a57604051637e27328960e01b8152600481018390526024016105e9565b836001600160a01b0316816001600160a01b031614610928576040516364283d7b60e01b81526001600160a01b03808616600483015260248201849052821660448201526064016105e9565b6000807a184f03e93ff9f4daa797ed6e38ed64bf6a1f01000000000000000083106124bf577a184f03e93ff9f4daa797ed6e38ed64bf6a1f010000000000000000830492506040015b6d04ee2d6d415b85acef810000000083106124eb576d04ee2d6d415b85acef8100000000830492506020015b662386f26fc10000831061250957662386f26fc10000830492506010015b6305f5e1008310612521576305f5e100830492506008015b612710831061253557612710830492506004015b60648310612547576064830492506002015b600a83106104b95760010192915050565b50805461256490612b2c565b6000825580601f10612574575050565b601f0160209004906000526020600020908101906125929190612595565b50565b5b808211156125aa5760008155600101612596565b5090565b6001600160e01b03198116811461259257600080fd5b6000602082840312156125d657600080fd5b8135612008816125ae565b60005b838110156125fc5781810151838201526020016125e4565b50506000910152565b6000815180845261261d8160208601602086016125e1565b601f01601f19169290920160200192915050565b6020815260006120086020830184612605565b60006020828403121561265657600080fd5b5035919050565b6001600160a01b038116811461259257600080fd5b6000806040838503121561268557600080fd5b82356126908161265d565b946020939093013593505050565b634e487b7160e01b600052604160045260246000fd5b600067ffffffffffffffff808411156126cf576126cf61269e565b604051601f8501601f19908116603f011681019082821181831017156126f7576126f761269e565b8160405280935085815286868601111561271057600080fd5b858560208301376000602087830101525050509392505050565b600082601f83011261273b57600080fd5b612008838335602085016126b4565b8035801515811461275a57600080fd5b919050565b6000806040838503121561277257600080fd5b823567ffffffffffffffff81111561278957600080fd5b6127958582860161272a565b9250506127a46020840161274a565b90509250929050565b6000806000606084860312156127c257600080fd5b83356127cd8161265d565b925060208401356127dd8161265d565b929592945050506040919091013590565b60006020828403121561280057600080fd5b813567ffffffffffffffff81111561281757600080fd5b61169d8482850161272a565b60006020828403121561283557600080fd5b81356120088161265d565b600080600080600080600080610100898b03121561285d57600080fd5b883567ffffffffffffffff81111561287457600080fd5b6128808b828c0161272a565b9850506020890135965060408901359550606089013594506080890135935060a0890135925060c0890135915060e08901356128bb8161265d565b809150509295985092959890939650565b60006101408083526128e08184018e612605565b602084019c909c52505060408101989098526060880196909652608087019490945260a086019290925260c085015260e08401526101008301526001600160a01b031661012090910152919050565b60008060006060848603121561294457600080fd5b833561294f8161265d565b925061295d6020850161274a565b9150604084013590509250925092565b6000806040838503121561298057600080fd5b823561298b8161265d565b91506127a46020840161274a565b600080600080608085870312156129af57600080fd5b84356129ba8161265d565b935060208501356129ca8161265d565b925060408501359150606085013567ffffffffffffffff8111156129ed57600080fd5b8501601f810187136129fe57600080fd5b612a0d878235602084016126b4565b91505092959194509250565b600080600060608486031215612a2e57600080fd5b8335612a398161265d565b9250602084013567ffffffffffffffff811115612a5557600080fd5b612a618682870161272a565b925050604084013590509250925092565b60008060408385031215612a8557600080fd5b8235612a908161265d565b91506020830135612aa08161265d565b809150509250929050565b60008060408385031215612abe57600080fd5b8235612ac98161265d565b9150602083013567ffffffffffffffff811115612ae557600080fd5b612af18582860161272a565b9150509250929050565b6001600160a01b0384168152826020820152606060408201526000612b236060830184612605565b95945050505050565b600181811c90821680612b4057607f821691505b602082108103612b6057634e487b7160e01b600052602260045260246000fd5b50919050565b60008251612b788184602087016125e1565b9190910192915050565b634e487b7160e01b600052601160045260246000fd5b818103818111156104b9576104b9612b82565b808201808211156104b9576104b9612b82565b80820281158282048414176104b9576104b9612b82565b600082612bf257634e487b7160e01b600052601260045260246000fd5b500490565b60008154612c0481612b2c565b60018281168015612c1c5760018114612c3157612c60565b60ff1984168752821515830287019450612c60565b8560005260208060002060005b85811015612c575781548a820152908401908201612c3e565b50505082870194505b5050505092915050565b60006120088284612bf7565b601f821115610c92576000816000526020600020601f850160051c81016020861015612c9f5750805b601f850160051c820191505b81811015612cbe57828155600101612cab565b505050505050565b815167ffffffffffffffff811115612ce057612ce061269e565b612cf481612cee8454612b2c565b84612c76565b602080601f831160018114612d295760008415612d115750858301515b600019600386901b1c1916600185901b178555612cbe565b600085815260208120601f198616915b82811015612d5857888601518255948401946001909101908401612d39565b5085821015612d765787850151600019600388901b60f8161c191681555b5050505050600190811b01905550565b60008351612d988184602088016125e1565b835190830190612dac8183602088016125e1565b01949350505050565b600060018201612dc757612dc7612b82565b5060010190565b60006001600160a01b03808716835280861660208401525083604083015260806060830152612e006080830184612605565b9695505050505050565b600060208284031215612e1c57600080fd5b8151612008816125ae56fea264697066735822122077fa52d8ed7964131857b3f8176c348a28e9b053623f224d3c78e96634f183a764736f6c63430008180033",
          "opcodes": "PUSH1 0x80 PUSH1 0x40 MSTORE CALLVALUE DUP1 ISZERO PUSH3 0x11 JUMPI PUSH1 0x0 DUP1 REVERT JUMPDEST POP PUSH1 0x40 MLOAD PUSH3 0x30CB CODESIZE SUB DUP1 PUSH3 0x30CB DUP4 CODECOPY DUP2 ADD PUSH1 0x40 DUP2 SWAP1 MSTORE PUSH3 0x34 SWAP2 PUSH3 0xB9 JUMP JUMPDEST PUSH1 0x40 MLOAD DUP1 PUSH1 0x40 ADD PUSH1 0x40 MSTORE DUP1 PUSH1 0x5 DUP2 MSTORE PUSH1 0x20 ADD PUSH5 0x135E539195 PUSH1 0xDA SHL DUP2 MSTORE POP PUSH1 0x40 MLOAD DUP1 PUSH1 0x40 ADD PUSH1 0x40 MSTORE DUP1 PUSH1 0x4 DUP2 MSTORE PUSH1 0x20 ADD PUSH4 0x13539195 PUSH1 0xE2 SHL DUP2 MSTORE POP DUP2 PUSH1 0x0 SWAP1 DUP2 PUSH3 0x80 SWAP2 SWAP1 PUSH3 0x192 JUMP JUMPDEST POP PUSH1 0x1 PUSH3 0x8F DUP3 DUP3 PUSH3 0x192 JUMP JUMPDEST POP POP PUSH1 0x9 DUP1 SLOAD PUSH1 0x1 PUSH1 0x1 PUSH1 0xA0 SHL SUB NOT AND PUSH1 0x1 PUSH1 0x1 PUSH1 0xA0 SHL SUB SWAP4 SWAP1 SWAP4 AND SWAP3 SWAP1 SWAP3 OR SWAP1 SWAP2 SSTORE POP PUSH3 0x25E JUMP JUMPDEST PUSH1 0x0 PUSH1 0x20 DUP3 DUP5 SUB SLT ISZERO PUSH3 0xCC JUMPI PUSH1 0x0 DUP1 REVERT JUMPDEST DUP2 MLOAD PUSH1 0x1 PUSH1 0x1 PUSH1 0xA0 SHL SUB DUP2 AND DUP2 EQ PUSH3 0xE4 JUMPI PUSH1 0x0 DUP1 REVERT JUMPDEST SWAP4 SWAP3 POP POP POP JUMP JUMPDEST PUSH4 0x4E487B71 PUSH1 0xE0 SHL PUSH1 0x0 MSTORE PUSH1 0x41 PUSH1 0x4 MSTORE PUSH1 0x24 PUSH1 0x0 REVERT JUMPDEST PUSH1 0x1 DUP2 DUP2 SHR SWAP1 DUP3 AND DUP1 PUSH3 0x116 JUMPI PUSH1 0x7F DUP3 AND SWAP2 POP JUMPDEST PUSH1 0x20 DUP3 LT DUP2 SUB PUSH3 0x137 JUMPI PUSH4 0x4E487B71 PUSH1 0xE0 SHL PUSH1 0x0 MSTORE PUSH1 0x22 PUSH1 0x4 MSTORE PUSH1 0x24 PUSH1 0x0 REVERT JUMPDEST POP SWAP2 SWAP1 POP JUMP JUMPDEST PUSH1 0x1F DUP3 GT ISZERO PUSH3 0x18D JUMPI PUSH1 0x0 DUP2 PUSH1 0x0 MSTORE PUSH1 0x20 PUSH1 0x0 KECCAK256 PUSH1 0x1F DUP6 ADD PUSH1 0x5 SHR DUP2 ADD PUSH1 0x20 DUP7 LT ISZERO PUSH3 0x168 JUMPI POP DUP1 JUMPDEST PUSH1 0x1F DUP6 ADD PUSH1 0x5 SHR DUP3 ADD SWAP2 POP JUMPDEST DUP2 DUP2 LT ISZERO PUSH3 0x189 JUMPI DUP3 DUP2 SSTORE PUSH1 0x1 ADD PUSH3 0x174 JUMP JUMPDEST POP POP POP JUMPDEST POP POP POP JUMP JUMPDEST DUP2 MLOAD PUSH1 0x1 PUSH1 0x1 PUSH1 0x40 SHL SUB DUP2 GT ISZERO PUSH3 0x1AE JUMPI PUSH3 0x1AE PUSH3 0xEB JUMP JUMPDEST PUSH3 0x1C6 DUP2 PUSH3 0x1BF DUP5 SLOAD PUSH3 0x101 JUMP JUMPDEST DUP5 PUSH3 0x13D JUMP JUMPDEST PUSH1 0x20 DUP1 PUSH1 0x1F DUP4 GT PUSH1 0x1 DUP2 EQ PUSH3 0x1FE JUMPI PUSH1 0x0 DUP5 ISZERO PUSH3 0x1E5 JUMPI POP DUP6 DUP4 ADD MLOAD JUMPDEST PUSH1 0x0 NOT PUSH1 0x3 DUP7 SWAP1 SHL SHR NOT AND PUSH1 0x1 DUP6 SWAP1 SHL OR DUP6 SSTORE PUSH3 0x189 JUMP JUMPDEST PUSH1 0x0 DUP6 DUP2 MSTORE PUSH1 0x20 DUP2 KECCAK256 PUSH1 0x1F NOT DUP7 AND SWAP2 JUMPDEST DUP3 DUP2 LT ISZERO PUSH3 0x22F JUMPI DUP9 DUP7 ADD MLOAD DUP3 SSTORE SWAP5 DUP5 ADD SWAP5 PUSH1 0x1 SWAP1 SWAP2 ADD SWAP1 DUP5 ADD PUSH3 0x20E JUMP JUMPDEST POP DUP6 DUP3 LT ISZERO PUSH3 0x24E JUMPI DUP8 DUP6 ADD MLOAD PUSH1 0x0 NOT PUSH1 0x3 DUP9 SWAP1 SHL PUSH1 0xF8 AND SHR NOT AND DUP2 SSTORE JUMPDEST POP POP POP POP POP PUSH1 0x1 SWAP1 DUP2 SHL ADD SWAP1 SSTORE POP JUMP JUMPDEST PUSH2 0x2E5D DUP1 PUSH3 0x26E PUSH1 0x0 CODECOPY PUSH1 0x0 RETURN INVALID PUSH1 0x80 PUSH1 0x40 MSTORE PUSH1 0x4 CALLDATASIZE LT PUSH2 0x175 JUMPI PUSH1 0x0 CALLDATALOAD PUSH1 0xE0 SHR DUP1 PUSH4 0x96F92CDA GT PUSH2 0xCB JUMPI DUP1 PUSH4 0xBD330D7B GT PUSH2 0x7F JUMPI DUP1 PUSH4 0xE985E9C5 GT PUSH2 0x59 JUMPI DUP1 PUSH4 0xE985E9C5 EQ PUSH2 0x3E3 JUMPI DUP1 PUSH4 0xEACABE14 EQ PUSH2 0x42C JUMPI DUP1 PUSH4 0xFD345C8A EQ PUSH2 0x44C JUMPI PUSH1 0x0 DUP1 REVERT JUMPDEST DUP1 PUSH4 0xBD330D7B EQ PUSH2 0x39D JUMPI DUP1 PUSH4 0xC87B56DD EQ PUSH2 0x3B0 JUMPI DUP1 PUSH4 0xE0E06210 EQ PUSH2 0x3D0 JUMPI PUSH1 0x0 DUP1 REVERT JUMPDEST DUP1 PUSH4 0xA0D836F1 GT PUSH2 0xB0 JUMPI DUP1 PUSH4 0xA0D836F1 EQ PUSH2 0x33D JUMPI DUP1 PUSH4 0xA22CB465 EQ PUSH2 0x35D JUMPI DUP1 PUSH4 0xB88D4FDE EQ PUSH2 0x37D JUMPI PUSH1 0x0 DUP1 REVERT JUMPDEST DUP1 PUSH4 0x96F92CDA EQ PUSH2 0x2F4 JUMPI DUP1 PUSH4 0xA0A57DAC EQ PUSH2 0x307 JUMPI PUSH1 0x0 DUP1 REVERT JUMPDEST DUP1 PUSH4 0x23B872DD GT PUSH2 0x12D JUMPI DUP1 PUSH4 0x6352211E GT PUSH2 0x107 JUMPI DUP1 PUSH4 0x6352211E EQ PUSH2 0x291 JUMPI DUP1 PUSH4 0x70A08231 EQ PUSH2 0x2B1 JUMPI DUP1 PUSH4 0x95D89B41 EQ PUSH2 0x2DF JUMPI PUSH1 0x0 DUP1 REVERT JUMPDEST DUP1 PUSH4 0x23B872DD EQ PUSH2 0x23E JUMPI DUP1 PUSH4 0x26B3C5F9 EQ PUSH2 0x25E JUMPI DUP1 PUSH4 0x42842E0E EQ PUSH2 0x271 JUMPI PUSH1 0x0 DUP1 REVERT JUMPDEST DUP1 PUSH4 0x81812FC GT PUSH2 0x15E JUMPI DUP1 PUSH4 0x81812FC EQ PUSH2 0x1D1 JUMPI DUP1 PUSH4 0x95EA7B3 EQ PUSH2 0x209 JUMPI DUP1 PUSH4 0x180BBC17 EQ PUSH2 0x22B JUMPI PUSH1 0x0 DUP1 REVERT JUMPDEST DUP1 PUSH4 0x1FFC9A7 EQ PUSH2 0x17A JUMPI DUP1 PUSH4 0x6FDDE03 EQ PUSH2 0x1AF JUMPI JUMPDEST PUSH1 0x0 DUP1 REVERT JUMPDEST CALLVALUE DUP1 ISZERO PUSH2 0x186 JUMPI PUSH1 0x0 DUP1 REVERT JUMPDEST POP PUSH2 0x19A PUSH2 0x195 CALLDATASIZE PUSH1 0x4 PUSH2 0x25C4 JUMP JUMPDEST PUSH2 0x47B JUMP JUMPDEST PUSH1 0x40 MLOAD SWAP1 ISZERO ISZERO DUP2 MSTORE PUSH1 0x20 ADD JUMPDEST PUSH1 0x40 MLOAD DUP1 SWAP2 SUB SWAP1 RETURN JUMPDEST CALLVALUE DUP1 ISZERO PUSH2 0x1BB JUMPI PUSH1 0x0 DUP1 REVERT JUMPDEST POP PUSH2 0x1C4 PUSH2 0x4BF JUMP JUMPDEST PUSH1 0x40 MLOAD PUSH2 0x1A6 SWAP2 SWAP1 PUSH2 0x2631 JUMP JUMPDEST CALLVALUE DUP1 ISZERO PUSH2 0x1DD JUMPI PUSH1 0x0 DUP1 REVERT JUMPDEST POP PUSH2 0x1F1 PUSH2 0x1EC CALLDATASIZE PUSH1 0x4 PUSH2 0x2644 JUMP JUMPDEST PUSH2 0x551 JUMP JUMPDEST PUSH1 0x40 MLOAD PUSH1 0x1 PUSH1 0x1 PUSH1 0xA0 SHL SUB SWAP1 SWAP2 AND DUP2 MSTORE PUSH1 0x20 ADD PUSH2 0x1A6 JUMP JUMPDEST CALLVALUE DUP1 ISZERO PUSH2 0x215 JUMPI PUSH1 0x0 DUP1 REVERT JUMPDEST POP PUSH2 0x229 PUSH2 0x224 CALLDATASIZE PUSH1 0x4 PUSH2 0x2672 JUMP JUMPDEST PUSH2 0x57A JUMP JUMPDEST STOP JUMPDEST PUSH2 0x229 PUSH2 0x239 CALLDATASIZE PUSH1 0x4 PUSH2 0x275F JUMP JUMPDEST PUSH2 0x589 JUMP JUMPDEST CALLVALUE DUP1 ISZERO PUSH2 0x24A JUMPI PUSH1 0x0 DUP1 REVERT JUMPDEST POP PUSH2 0x229 PUSH2 0x259 CALLDATASIZE PUSH1 0x4 PUSH2 0x27AD JUMP JUMPDEST PUSH2 0x8A3 JUMP JUMPDEST PUSH2 0x229 PUSH2 0x26C CALLDATASIZE PUSH1 0x4 PUSH2 0x27EE JUMP JUMPDEST PUSH2 0x92E JUMP JUMPDEST CALLVALUE DUP1 ISZERO PUSH2 0x27D JUMPI PUSH1 0x0 DUP1 REVERT JUMPDEST POP PUSH2 0x229 PUSH2 0x28C CALLDATASIZE PUSH1 0x4 PUSH2 0x27AD JUMP JUMPDEST PUSH2 0xC97 JUMP JUMPDEST CALLVALUE DUP1 ISZERO PUSH2 0x29D JUMPI PUSH1 0x0 DUP1 REVERT JUMPDEST POP PUSH2 0x1F1 PUSH2 0x2AC CALLDATASIZE PUSH1 0x4 PUSH2 0x2644 JUMP JUMPDEST PUSH2 0xCB2 JUMP JUMPDEST CALLVALUE DUP1 ISZERO PUSH2 0x2BD JUMPI PUSH1 0x0 DUP1 REVERT JUMPDEST POP PUSH2 0x2D1 PUSH2 0x2CC CALLDATASIZE PUSH1 0x4 PUSH2 0x2823 JUMP JUMPDEST PUSH2 0xCBD JUMP JUMPDEST PUSH1 0x40 MLOAD SWAP1 DUP2 MSTORE PUSH1 0x20 ADD PUSH2 0x1A6 JUMP JUMPDEST CALLVALUE DUP1 ISZERO PUSH2 0x2EB JUMPI PUSH1 0x0 DUP1 REVERT JUMPDEST POP PUSH2 0x1C4 PUSH2 0xD1E JUMP JUMPDEST PUSH2 0x229 PUSH2 0x302 CALLDATASIZE PUSH1 0x4 PUSH2 0x2840 JUMP JUMPDEST PUSH2 0xD2D JUMP JUMPDEST CALLVALUE DUP1 ISZERO PUSH2 0x313 JUMPI PUSH1 0x0 DUP1 REVERT JUMPDEST POP PUSH2 0x327 PUSH2 0x322 CALLDATASIZE PUSH1 0x4 PUSH2 0x27EE JUMP JUMPDEST PUSH2 0x1103 JUMP JUMPDEST PUSH1 0x40 MLOAD PUSH2 0x1A6 SWAP11 SWAP10 SWAP9 SWAP8 SWAP7 SWAP6 SWAP5 SWAP4 SWAP3 SWAP2 SWAP1 PUSH2 0x28CC JUMP JUMPDEST CALLVALUE DUP1 ISZERO PUSH2 0x349 JUMPI PUSH1 0x0 DUP1 REVERT JUMPDEST POP PUSH2 0x229 PUSH2 0x358 CALLDATASIZE PUSH1 0x4 PUSH2 0x292F JUMP JUMPDEST PUSH2 0x11F0 JUMP JUMPDEST CALLVALUE DUP1 ISZERO PUSH2 0x369 JUMPI PUSH1 0x0 DUP1 REVERT JUMPDEST POP PUSH2 0x229 PUSH2 0x378 CALLDATASIZE PUSH1 0x4 PUSH2 0x296D JUMP JUMPDEST PUSH2 0x12C9 JUMP JUMPDEST CALLVALUE DUP1 ISZERO PUSH2 0x389 JUMPI PUSH1 0x0 DUP1 REVERT JUMPDEST POP PUSH2 0x229 PUSH2 0x398 CALLDATASIZE PUSH1 0x4 PUSH2 0x2999 JUMP JUMPDEST PUSH2 0x12D4 JUMP JUMPDEST PUSH2 0x229 PUSH2 0x3AB CALLDATASIZE PUSH1 0x4 PUSH2 0x2644 JUMP JUMPDEST PUSH2 0x12EB JUMP JUMPDEST CALLVALUE DUP1 ISZERO PUSH2 0x3BC JUMPI PUSH1 0x0 DUP1 REVERT JUMPDEST POP PUSH2 0x1C4 PUSH2 0x3CB CALLDATASIZE PUSH1 0x4 PUSH2 0x2644 JUMP JUMPDEST PUSH2 0x1594 JUMP JUMPDEST PUSH2 0x2D1 PUSH2 0x3DE CALLDATASIZE PUSH1 0x4 PUSH2 0x2A19 JUMP JUMPDEST PUSH2 0x16A5 JUMP JUMPDEST CALLVALUE DUP1 ISZERO PUSH2 0x3EF JUMPI PUSH1 0x0 DUP1 REVERT JUMPDEST POP PUSH2 0x19A PUSH2 0x3FE CALLDATASIZE PUSH1 0x4 PUSH2 0x2A72 JUMP JUMPDEST PUSH1 0x1 PUSH1 0x1 PUSH1 0xA0 SHL SUB SWAP2 DUP3 AND PUSH1 0x0 SWAP1 DUP2 MSTORE PUSH1 0x5 PUSH1 0x20 SWAP1 DUP2 MSTORE PUSH1 0x40 DUP1 DUP4 KECCAK256 SWAP4 SWAP1 SWAP5 AND DUP3 MSTORE SWAP2 SWAP1 SWAP2 MSTORE KECCAK256 SLOAD PUSH1 0xFF AND SWAP1 JUMP JUMPDEST CALLVALUE DUP1 ISZERO PUSH2 0x438 JUMPI PUSH1 0x0 DUP1 REVERT JUMPDEST POP PUSH2 0x2D1 PUSH2 0x447 CALLDATASIZE PUSH1 0x4 PUSH2 0x2AAB JUMP JUMPDEST PUSH2 0x1ADC JUMP JUMPDEST CALLVALUE DUP1 ISZERO PUSH2 0x458 JUMPI PUSH1 0x0 DUP1 REVERT JUMPDEST POP PUSH2 0x46C PUSH2 0x467 CALLDATASIZE PUSH1 0x4 PUSH2 0x2644 JUMP JUMPDEST PUSH2 0x1B16 JUMP JUMPDEST PUSH1 0x40 MLOAD PUSH2 0x1A6 SWAP4 SWAP3 SWAP2 SWAP1 PUSH2 0x2AFB JUMP JUMPDEST PUSH1 0x0 PUSH1 0x1 PUSH1 0x1 PUSH1 0xE0 SHL SUB NOT DUP3 AND PUSH32 0x4906490600000000000000000000000000000000000000000000000000000000 EQ DUP1 PUSH2 0x4B9 JUMPI POP PUSH2 0x4B9 DUP3 PUSH2 0x1BCB JUMP JUMPDEST SWAP3 SWAP2 POP POP JUMP JUMPDEST PUSH1 0x60 PUSH1 0x0 DUP1 SLOAD PUSH2 0x4CE SWAP1 PUSH2 0x2B2C JUMP JUMPDEST DUP1 PUSH1 0x1F ADD PUSH1 0x20 DUP1 SWAP2 DIV MUL PUSH1 0x20 ADD PUSH1 0x40 MLOAD SWAP1 DUP2 ADD PUSH1 0x40 MSTORE DUP1 SWAP3 SWAP2 SWAP1 DUP2 DUP2 MSTORE PUSH1 0x20 ADD DUP3 DUP1 SLOAD PUSH2 0x4FA SWAP1 PUSH2 0x2B2C JUMP JUMPDEST DUP1 ISZERO PUSH2 0x547 JUMPI DUP1 PUSH1 0x1F LT PUSH2 0x51C JUMPI PUSH2 0x100 DUP1 DUP4 SLOAD DIV MUL DUP4 MSTORE SWAP2 PUSH1 0x20 ADD SWAP2 PUSH2 0x547 JUMP JUMPDEST DUP3 ADD SWAP2 SWAP1 PUSH1 0x0 MSTORE PUSH1 0x20 PUSH1 0x0 KECCAK256 SWAP1 JUMPDEST DUP2 SLOAD DUP2 MSTORE SWAP1 PUSH1 0x1 ADD SWAP1 PUSH1 0x20 ADD DUP1 DUP4 GT PUSH2 0x52A JUMPI DUP3 SWAP1 SUB PUSH1 0x1F AND DUP3 ADD SWAP2 JUMPDEST POP POP POP POP POP SWAP1 POP SWAP1 JUMP JUMPDEST PUSH1 0x0 PUSH2 0x55C DUP3 PUSH2 0x1C66 JUMP JUMPDEST POP PUSH1 0x0 DUP3 DUP2 MSTORE PUSH1 0x4 PUSH1 0x20 MSTORE PUSH1 0x40 SWAP1 KECCAK256 SLOAD PUSH1 0x1 PUSH1 0x1 PUSH1 0xA0 SHL SUB AND PUSH2 0x4B9 JUMP JUMPDEST PUSH2 0x585 DUP3 DUP3 CALLER PUSH2 0x1C9F JUMP JUMPDEST POP POP JUMP JUMPDEST PUSH1 0x9 SLOAD PUSH1 0x1 PUSH1 0x1 PUSH1 0xA0 SHL SUB AND CALLER EQ PUSH2 0x5F2 JUMPI PUSH1 0x40 MLOAD PUSH3 0x461BCD PUSH1 0xE5 SHL DUP2 MSTORE PUSH1 0x20 PUSH1 0x4 DUP3 ADD MSTORE PUSH1 0x21 PUSH1 0x24 DUP3 ADD MSTORE PUSH32 0x4F6E6C792061646D696E2063616E2063616C6C20746869732066756E6374696F PUSH1 0x44 DUP3 ADD MSTORE PUSH1 0x37 PUSH1 0xF9 SHL PUSH1 0x64 DUP3 ADD MSTORE PUSH1 0x84 ADD JUMPDEST PUSH1 0x40 MLOAD DUP1 SWAP2 SUB SWAP1 REVERT JUMPDEST PUSH1 0x0 PUSH1 0xA DUP4 PUSH1 0x40 MLOAD PUSH2 0x604 SWAP2 SWAP1 PUSH2 0x2B66 JUMP JUMPDEST SWAP1 DUP2 MSTORE PUSH1 0x20 ADD PUSH1 0x40 MLOAD DUP1 SWAP2 SUB SWAP1 KECCAK256 PUSH1 0x3 ADD SLOAD GT PUSH2 0x663 JUMPI PUSH1 0x40 MLOAD PUSH3 0x461BCD PUSH1 0xE5 SHL DUP2 MSTORE PUSH1 0x20 PUSH1 0x4 DUP3 ADD MSTORE PUSH1 0x15 PUSH1 0x24 DUP3 ADD MSTORE PUSH32 0x4465616C20446F6573206E6F7420657869737473210000000000000000000000 PUSH1 0x44 DUP3 ADD MSTORE PUSH1 0x64 ADD PUSH2 0x5E9 JUMP JUMPDEST PUSH1 0xA DUP3 PUSH1 0x40 MLOAD PUSH2 0x673 SWAP2 SWAP1 PUSH2 0x2B66 JUMP JUMPDEST SWAP1 DUP2 MSTORE PUSH1 0x20 ADD PUSH1 0x40 MLOAD DUP1 SWAP2 SUB SWAP1 KECCAK256 PUSH1 0x3 ADD SLOAD PUSH1 0xA DUP4 PUSH1 0x40 MLOAD PUSH2 0x695 SWAP2 SWAP1 PUSH2 0x2B66 JUMP JUMPDEST SWAP1 DUP2 MSTORE PUSH1 0x20 ADD PUSH1 0x40 MLOAD DUP1 SWAP2 SUB SWAP1 KECCAK256 PUSH1 0x2 ADD SLOAD EQ DUP1 PUSH2 0x6B0 JUMPI POP DUP1 JUMPDEST ISZERO PUSH2 0x7FD JUMPI PUSH1 0xA DUP3 PUSH1 0x40 MLOAD PUSH2 0x6C5 SWAP2 SWAP1 PUSH2 0x2B66 JUMP JUMPDEST SWAP1 DUP2 MSTORE PUSH1 0x40 MLOAD SWAP1 DUP2 SWAP1 SUB PUSH1 0x20 ADD SWAP1 KECCAK256 PUSH1 0x2 ADD SLOAD PUSH1 0x9 SLOAD PUSH2 0x6ED SWAP1 PUSH1 0x1 PUSH1 0x1 PUSH1 0xA0 SHL SUB AND PUSH2 0xCBD JUMP JUMPDEST LT ISZERO PUSH2 0x73B JUMPI PUSH1 0x40 MLOAD PUSH3 0x461BCD PUSH1 0xE5 SHL DUP2 MSTORE PUSH1 0x20 PUSH1 0x4 DUP3 ADD MSTORE PUSH1 0x13 PUSH1 0x24 DUP3 ADD MSTORE PUSH32 0x496E73756666696369656E742046756E64732100000000000000000000000000 PUSH1 0x44 DUP3 ADD MSTORE PUSH1 0x64 ADD PUSH2 0x5E9 JUMP JUMPDEST PUSH1 0xA DUP3 PUSH1 0x40 MLOAD PUSH2 0x74B SWAP2 SWAP1 PUSH2 0x2B66 JUMP JUMPDEST SWAP1 DUP2 MSTORE PUSH1 0x40 MLOAD SWAP1 DUP2 SWAP1 SUB PUSH1 0x20 ADD DUP2 KECCAK256 PUSH1 0x9 ADD SLOAD PUSH1 0x1 PUSH1 0x1 PUSH1 0xA0 SHL SUB AND SWAP1 PUSH2 0x8FC SWAP1 PUSH1 0xA SWAP1 PUSH2 0x77A SWAP1 DUP7 SWAP1 PUSH2 0x2B66 JUMP JUMPDEST SWAP1 DUP2 MSTORE PUSH1 0x40 MLOAD SWAP1 DUP2 SWAP1 SUB PUSH1 0x20 ADD DUP2 KECCAK256 PUSH1 0x2 ADD SLOAD DUP1 ISZERO SWAP1 SWAP3 MUL SWAP2 SWAP1 PUSH1 0x0 DUP2 DUP2 DUP2 DUP6 DUP9 DUP9 CALL SWAP4 POP POP POP POP ISZERO DUP1 ISZERO PUSH2 0x7B3 JUMPI RETURNDATASIZE PUSH1 0x0 DUP1 RETURNDATACOPY RETURNDATASIZE PUSH1 0x0 REVERT JUMPDEST POP PUSH1 0xA DUP3 PUSH1 0x40 MLOAD PUSH2 0x7C4 SWAP2 SWAP1 PUSH2 0x2B66 JUMP JUMPDEST SWAP1 DUP2 MSTORE PUSH1 0x20 ADD PUSH1 0x40 MLOAD DUP1 SWAP2 SUB SWAP1 KECCAK256 PUSH1 0x7 ADD SLOAD PUSH1 0xA DUP4 PUSH1 0x40 MLOAD PUSH2 0x7E6 SWAP2 SWAP1 PUSH2 0x2B66 JUMP JUMPDEST SWAP1 DUP2 MSTORE PUSH1 0x40 MLOAD SWAP1 DUP2 SWAP1 SUB PUSH1 0x20 ADD SWAP1 KECCAK256 PUSH1 0x8 ADD SSTORE POP POP JUMP JUMPDEST PUSH1 0xA DUP3 PUSH1 0x40 MLOAD PUSH2 0x80D SWAP2 SWAP1 PUSH2 0x2B66 JUMP JUMPDEST SWAP1 DUP2 MSTORE PUSH1 0x20 ADD PUSH1 0x40 MLOAD DUP1 SWAP2 SUB SWAP1 KECCAK256 PUSH1 0x4 ADD SLOAD PUSH1 0xA DUP4 PUSH1 0x40 MLOAD PUSH2 0x82F SWAP2 SWAP1 PUSH2 0x2B66 JUMP JUMPDEST SWAP1 DUP2 MSTORE PUSH1 0x40 MLOAD SWAP1 DUP2 SWAP1 SUB PUSH1 0x20 ADD SWAP1 KECCAK256 PUSH1 0x5 ADD SSTORE PUSH2 0x84B DUP3 PUSH2 0x92E JUMP JUMPDEST PUSH2 0x585 PUSH1 0xA DUP4 PUSH1 0x40 MLOAD PUSH2 0x85E SWAP2 SWAP1 PUSH2 0x2B66 JUMP JUMPDEST SWAP1 DUP2 MSTORE PUSH1 0x40 MLOAD SWAP1 DUP2 SWAP1 SUB PUSH1 0x20 ADD DUP2 KECCAK256 PUSH1 0x9 ADD SLOAD PUSH1 0x1 PUSH1 0x1 PUSH1 0xA0 SHL SUB AND SWAP1 PUSH1 0x0 SWAP1 PUSH1 0xA SWAP1 PUSH2 0x88C SWAP1 DUP8 SWAP1 PUSH2 0x2B66 JUMP JUMPDEST SWAP1 DUP2 MSTORE PUSH1 0x20 ADD PUSH1 0x40 MLOAD DUP1 SWAP2 SUB SWAP1 KECCAK256 PUSH1 0x6 ADD SLOAD PUSH2 0x11F0 JUMP JUMPDEST PUSH1 0x1 PUSH1 0x1 PUSH1 0xA0 SHL SUB DUP3 AND PUSH2 0x8CD JUMPI PUSH1 0x40 MLOAD PUSH4 0x32505749 PUSH1 0xE1 SHL DUP2 MSTORE PUSH1 0x0 PUSH1 0x4 DUP3 ADD MSTORE PUSH1 0x24 ADD PUSH2 0x5E9 JUMP JUMPDEST PUSH1 0x0 PUSH2 0x8DA DUP4 DUP4 CALLER PUSH2 0x1CAC JUMP JUMPDEST SWAP1 POP DUP4 PUSH1 0x1 PUSH1 0x1 PUSH1 0xA0 SHL SUB AND DUP2 PUSH1 0x1 PUSH1 0x1 PUSH1 0xA0 SHL SUB AND EQ PUSH2 0x928 JUMPI PUSH1 0x40 MLOAD PUSH4 0x64283D7B PUSH1 0xE0 SHL DUP2 MSTORE PUSH1 0x1 PUSH1 0x1 PUSH1 0xA0 SHL SUB DUP1 DUP7 AND PUSH1 0x4 DUP4 ADD MSTORE PUSH1 0x24 DUP3 ADD DUP5 SWAP1 MSTORE DUP3 AND PUSH1 0x44 DUP3 ADD MSTORE PUSH1 0x64 ADD PUSH2 0x5E9 JUMP JUMPDEST POP POP POP POP JUMP JUMPDEST PUSH1 0x9 SLOAD PUSH1 0x1 PUSH1 0x1 PUSH1 0xA0 SHL SUB AND CALLER EQ PUSH2 0x992 JUMPI PUSH1 0x40 MLOAD PUSH3 0x461BCD PUSH1 0xE5 SHL DUP2 MSTORE PUSH1 0x20 PUSH1 0x4 DUP3 ADD MSTORE PUSH1 0x21 PUSH1 0x24 DUP3 ADD MSTORE PUSH32 0x4F6E6C792061646D696E2063616E2063616C6C20746869732066756E6374696F PUSH1 0x44 DUP3 ADD MSTORE PUSH1 0x37 PUSH1 0xF9 SHL PUSH1 0x64 DUP3 ADD MSTORE PUSH1 0x84 ADD PUSH2 0x5E9 JUMP JUMPDEST PUSH1 0x0 PUSH1 0xA DUP3 PUSH1 0x40 MLOAD PUSH2 0x9A4 SWAP2 SWAP1 PUSH2 0x2B66 JUMP JUMPDEST SWAP1 DUP2 MSTORE PUSH1 0x20 ADD PUSH1 0x40 MLOAD DUP1 SWAP2 SUB SWAP1 KECCAK256 PUSH1 0x3 ADD SLOAD GT PUSH2 0xA03 JUMPI PUSH1 0x40 MLOAD PUSH3 0x461BCD PUSH1 0xE5 SHL DUP2 MSTORE PUSH1 0x20 PUSH1 0x4 DUP3 ADD MSTORE PUSH1 0x15 PUSH1 0x24 DUP3 ADD MSTORE PUSH32 0x4465616C20446F6573206E6F7420657869737473210000000000000000000000 PUSH1 0x44 DUP3 ADD MSTORE PUSH1 0x64 ADD PUSH2 0x5E9 JUMP JUMPDEST TIMESTAMP PUSH1 0xA DUP3 PUSH1 0x40 MLOAD PUSH2 0xA14 SWAP2 SWAP1 PUSH2 0x2B66 JUMP JUMPDEST SWAP1 DUP2 MSTORE PUSH1 0x20 ADD PUSH1 0x40 MLOAD DUP1 SWAP2 SUB SWAP1 KECCAK256 PUSH1 0x5 ADD SLOAD LT ISZERO PUSH2 0xA9A JUMPI PUSH1 0x40 MLOAD PUSH3 0x461BCD PUSH1 0xE5 SHL DUP2 MSTORE PUSH1 0x20 PUSH1 0x4 DUP3 ADD MSTORE PUSH1 0x25 PUSH1 0x24 DUP3 ADD MSTORE PUSH32 0x43616E2774207472616E73666572206265666F7265206465616C206973206578 PUSH1 0x44 DUP3 ADD MSTORE PUSH32 0x7069726564000000000000000000000000000000000000000000000000000000 PUSH1 0x64 DUP3 ADD MSTORE PUSH1 0x84 ADD PUSH2 0x5E9 JUMP JUMPDEST PUSH1 0x0 PUSH4 0xBBF81E00 PUSH1 0xA DUP4 PUSH1 0x40 MLOAD PUSH2 0xAB1 SWAP2 SWAP1 PUSH2 0x2B66 JUMP JUMPDEST SWAP1 DUP2 MSTORE PUSH1 0x20 ADD PUSH1 0x40 MLOAD DUP1 SWAP2 SUB SWAP1 KECCAK256 PUSH1 0x4 ADD SLOAD PUSH1 0xA DUP5 PUSH1 0x40 MLOAD PUSH2 0xAD3 SWAP2 SWAP1 PUSH2 0x2B66 JUMP JUMPDEST SWAP1 DUP2 MSTORE PUSH1 0x20 ADD PUSH1 0x40 MLOAD DUP1 SWAP2 SUB SWAP1 KECCAK256 PUSH1 0x5 ADD SLOAD PUSH2 0xAEF SWAP2 SWAP1 PUSH2 0x2B98 JUMP JUMPDEST PUSH1 0xA DUP5 PUSH1 0x40 MLOAD PUSH2 0xAFF SWAP2 SWAP1 PUSH2 0x2B66 JUMP JUMPDEST SWAP1 DUP2 MSTORE PUSH1 0x20 ADD PUSH1 0x40 MLOAD DUP1 SWAP2 SUB SWAP1 KECCAK256 PUSH1 0x8 ADD SLOAD PUSH1 0x64 PUSH2 0xB1D SWAP2 SWAP1 PUSH2 0x2BAB JUMP JUMPDEST PUSH1 0xA DUP6 PUSH1 0x40 MLOAD PUSH2 0xB2D SWAP2 SWAP1 PUSH2 0x2B66 JUMP JUMPDEST SWAP1 DUP2 MSTORE PUSH1 0x20 ADD PUSH1 0x40 MLOAD DUP1 SWAP2 SUB SWAP1 KECCAK256 PUSH1 0x3 ADD SLOAD PUSH2 0xB49 SWAP2 SWAP1 PUSH2 0x2BBE JUMP JUMPDEST PUSH2 0xB53 SWAP2 SWAP1 PUSH2 0x2BBE JUMP JUMPDEST PUSH2 0xB5D SWAP2 SWAP1 PUSH2 0x2BD5 JUMP JUMPDEST SWAP1 POP DUP1 CALLVALUE LT ISZERO PUSH2 0xBAF JUMPI PUSH1 0x40 MLOAD PUSH3 0x461BCD PUSH1 0xE5 SHL DUP2 MSTORE PUSH1 0x20 PUSH1 0x4 DUP3 ADD MSTORE PUSH1 0x12 PUSH1 0x24 DUP3 ADD MSTORE PUSH32 0x496E73756666696369656E742066756E64730000000000000000000000000000 PUSH1 0x44 DUP3 ADD MSTORE PUSH1 0x64 ADD PUSH2 0x5E9 JUMP JUMPDEST PUSH1 0x1 JUMPDEST PUSH1 0x8 SLOAD DUP2 LT ISZERO PUSH2 0xC92 JUMPI DUP3 DUP1 MLOAD SWAP1 PUSH1 0x20 ADD KECCAK256 PUSH1 0xB PUSH1 0x0 DUP4 DUP2 MSTORE PUSH1 0x20 ADD SWAP1 DUP2 MSTORE PUSH1 0x20 ADD PUSH1 0x0 KECCAK256 PUSH1 0x2 ADD PUSH1 0x40 MLOAD PUSH2 0xBE7 SWAP2 SWAP1 PUSH2 0x2C6A JUMP JUMPDEST PUSH1 0x40 MLOAD DUP1 SWAP2 SUB SWAP1 KECCAK256 EQ DUP1 ISZERO PUSH2 0xC0C JUMPI POP PUSH1 0x0 DUP2 DUP2 MSTORE PUSH1 0xB PUSH1 0x20 MSTORE PUSH1 0x40 SWAP1 KECCAK256 PUSH1 0x1 ADD SLOAD ISZERO ISZERO JUMPDEST ISZERO PUSH2 0xC8A JUMPI PUSH1 0x0 DUP2 DUP2 MSTORE PUSH1 0xB PUSH1 0x20 MSTORE PUSH1 0x40 DUP1 DUP3 KECCAK256 SLOAD SWAP1 MLOAD PUSH1 0x1 PUSH1 0x1 PUSH1 0xA0 SHL SUB SWAP1 SWAP2 AND SWAP2 DUP5 ISZERO PUSH2 0x8FC MUL SWAP2 DUP6 SWAP2 DUP2 DUP2 DUP2 DUP6 DUP9 DUP9 CALL SWAP4 POP POP POP POP ISZERO DUP1 ISZERO PUSH2 0xC55 JUMPI RETURNDATASIZE PUSH1 0x0 DUP1 RETURNDATACOPY RETURNDATASIZE PUSH1 0x0 REVERT JUMPDEST POP PUSH1 0x0 DUP2 DUP2 MSTORE PUSH1 0xB PUSH1 0x20 MSTORE PUSH1 0x40 DUP2 KECCAK256 DUP1 SLOAD PUSH1 0x1 PUSH1 0x1 PUSH1 0xA0 SHL SUB NOT AND DUP2 SSTORE PUSH1 0x1 DUP2 ADD DUP3 SWAP1 SSTORE SWAP1 PUSH2 0xC87 PUSH1 0x2 DUP4 ADD DUP3 PUSH2 0x2558 JUMP JUMPDEST POP POP JUMPDEST PUSH1 0x1 ADD PUSH2 0xBB2 JUMP JUMPDEST POP POP POP JUMP JUMPDEST PUSH2 0xC92 DUP4 DUP4 DUP4 PUSH1 0x40 MLOAD DUP1 PUSH1 0x20 ADD PUSH1 0x40 MSTORE DUP1 PUSH1 0x0 DUP2 MSTORE POP PUSH2 0x12D4 JUMP JUMPDEST PUSH1 0x0 PUSH2 0x4B9 DUP3 PUSH2 0x1C66 JUMP JUMPDEST PUSH1 0x0 PUSH1 0x1 PUSH1 0x1 PUSH1 0xA0 SHL SUB DUP3 AND PUSH2 0xD02 JUMPI PUSH1 0x40 MLOAD PUSH32 0x89C62B6400000000000000000000000000000000000000000000000000000000 DUP2 MSTORE PUSH1 0x0 PUSH1 0x4 DUP3 ADD MSTORE PUSH1 0x24 ADD PUSH2 0x5E9 JUMP JUMPDEST POP PUSH1 0x1 PUSH1 0x1 PUSH1 0xA0 SHL SUB AND PUSH1 0x0 SWAP1 DUP2 MSTORE PUSH1 0x3 PUSH1 0x20 MSTORE PUSH1 0x40 SWAP1 KECCAK256 SLOAD SWAP1 JUMP JUMPDEST PUSH1 0x60 PUSH1 0x1 DUP1 SLOAD PUSH2 0x4CE SWAP1 PUSH2 0x2B2C JUMP JUMPDEST PUSH1 0x9 SLOAD PUSH1 0x1 PUSH1 0x1 PUSH1 0xA0 SHL SUB AND CALLER EQ PUSH2 0xD91 JUMPI PUSH1 0x40 MLOAD PUSH3 0x461BCD PUSH1 0xE5 SHL DUP2 MSTORE PUSH1 0x20 PUSH1 0x4 DUP3 ADD MSTORE PUSH1 0x21 PUSH1 0x24 DUP3 ADD MSTORE PUSH32 0x4F6E6C792061646D696E2063616E2063616C6C20746869732066756E6374696F PUSH1 0x44 DUP3 ADD MSTORE PUSH1 0x37 PUSH1 0xF9 SHL PUSH1 0x64 DUP3 ADD MSTORE PUSH1 0x84 ADD PUSH2 0x5E9 JUMP JUMPDEST PUSH1 0x9 SLOAD PUSH1 0x1 PUSH1 0x1 PUSH1 0xA0 SHL SUB AND PUSH2 0xDA6 DUP5 PUSH2 0xCB2 JUMP JUMPDEST PUSH1 0x1 PUSH1 0x1 PUSH1 0xA0 SHL SUB AND EQ PUSH2 0xE22 JUMPI PUSH1 0x40 MLOAD PUSH3 0x461BCD PUSH1 0xE5 SHL DUP2 MSTORE PUSH1 0x20 PUSH1 0x4 DUP3 ADD MSTORE PUSH1 0x29 PUSH1 0x24 DUP3 ADD MSTORE PUSH32 0x4E4654206D757374206265207472616E7366657272656420746F207379737465 PUSH1 0x44 DUP3 ADD MSTORE PUSH32 0x6D41646472657373210000000000000000000000000000000000000000000000 PUSH1 0x64 DUP3 ADD MSTORE PUSH1 0x84 ADD PUSH2 0x5E9 JUMP JUMPDEST PUSH1 0x0 DUP9 MLOAD GT PUSH2 0xE73 JUMPI PUSH1 0x40 MLOAD PUSH3 0x461BCD PUSH1 0xE5 SHL DUP2 MSTORE PUSH1 0x20 PUSH1 0x4 DUP3 ADD MSTORE PUSH1 0x17 PUSH1 0x24 DUP3 ADD MSTORE PUSH32 0x4465616C2049442063616E6E6F7420626520656D707479000000000000000000 PUSH1 0x44 DUP3 ADD MSTORE PUSH1 0x64 ADD PUSH2 0x5E9 JUMP JUMPDEST TIMESTAMP DUP5 GT DUP1 ISZERO PUSH2 0xE82 JUMPI POP DUP5 DUP5 LT ISZERO JUMPDEST PUSH2 0xECE JUMPI PUSH1 0x40 MLOAD PUSH3 0x461BCD PUSH1 0xE5 SHL DUP2 MSTORE PUSH1 0x20 PUSH1 0x4 DUP3 ADD MSTORE PUSH1 0x1C PUSH1 0x24 DUP3 ADD MSTORE PUSH32 0x496E76616C69642065787069726174696F6E2074696D657374616D7000000000 PUSH1 0x44 DUP3 ADD MSTORE PUSH1 0x64 ADD PUSH2 0x5E9 JUMP JUMPDEST TIMESTAMP DUP6 GT PUSH2 0xF1D JUMPI PUSH1 0x40 MLOAD PUSH3 0x461BCD PUSH1 0xE5 SHL DUP2 MSTORE PUSH1 0x20 PUSH1 0x4 DUP3 ADD MSTORE PUSH1 0x1E PUSH1 0x24 DUP3 ADD MSTORE PUSH32 0x496E76616C696420666C6F6174696E67456E642074696D657374616D70210000 PUSH1 0x44 DUP3 ADD MSTORE PUSH1 0x64 ADD PUSH2 0x5E9 JUMP JUMPDEST PUSH1 0x0 DUP8 GT PUSH2 0xF6D JUMPI PUSH1 0x40 MLOAD PUSH3 0x461BCD PUSH1 0xE5 SHL DUP2 MSTORE PUSH1 0x20 PUSH1 0x4 DUP3 ADD MSTORE PUSH1 0x1C PUSH1 0x24 DUP3 ADD MSTORE PUSH32 0x43616E2774206163636570742030206173206D696E20616D6F756E7400000000 PUSH1 0x44 DUP3 ADD MSTORE PUSH1 0x64 ADD PUSH2 0x5E9 JUMP JUMPDEST DUP7 DUP7 LT ISZERO PUSH2 0xFE3 JUMPI PUSH1 0x40 MLOAD PUSH3 0x461BCD PUSH1 0xE5 SHL DUP2 MSTORE PUSH1 0x20 PUSH1 0x4 DUP3 ADD MSTORE PUSH1 0x39 PUSH1 0x24 DUP3 ADD MSTORE PUSH32 0x54617267657420416D6F756E742073686F756C64206265206D6F726520746861 PUSH1 0x44 DUP3 ADD MSTORE PUSH32 0x6E2F657175616C20746F206D696E696D756D20616D6F756E7400000000000000 PUSH1 0x64 DUP3 ADD MSTORE PUSH1 0x84 ADD PUSH2 0x5E9 JUMP JUMPDEST PUSH1 0x40 MLOAD DUP1 PUSH2 0x140 ADD PUSH1 0x40 MSTORE DUP1 DUP10 DUP2 MSTORE PUSH1 0x20 ADD DUP9 DUP2 MSTORE PUSH1 0x20 ADD PUSH1 0x0 DUP2 MSTORE PUSH1 0x20 ADD DUP8 DUP2 MSTORE PUSH1 0x20 ADD DUP7 DUP2 MSTORE PUSH1 0x20 ADD DUP6 DUP2 MSTORE PUSH1 0x20 ADD DUP5 DUP2 MSTORE PUSH1 0x20 ADD DUP4 DUP2 MSTORE PUSH1 0x20 ADD PUSH1 0x0 DUP2 MSTORE PUSH1 0x20 ADD DUP3 PUSH1 0x1 PUSH1 0x1 PUSH1 0xA0 SHL SUB AND DUP2 MSTORE POP PUSH1 0xA DUP10 PUSH1 0x40 MLOAD PUSH2 0x1044 SWAP2 SWAP1 PUSH2 0x2B66 JUMP JUMPDEST SWAP1 DUP2 MSTORE PUSH1 0x40 MLOAD SWAP1 DUP2 SWAP1 SUB PUSH1 0x20 ADD SWAP1 KECCAK256 DUP2 MLOAD DUP2 SWAP1 PUSH2 0x1061 SWAP1 DUP3 PUSH2 0x2CC6 JUMP JUMPDEST POP PUSH1 0x20 DUP3 ADD MLOAD PUSH1 0x1 DUP3 ADD SSTORE PUSH1 0x40 DUP3 ADD MLOAD PUSH1 0x2 DUP3 ADD SSTORE PUSH1 0x60 DUP3 ADD MLOAD PUSH1 0x3 DUP3 ADD SSTORE PUSH1 0x80 DUP3 ADD MLOAD PUSH1 0x4 DUP3 ADD SSTORE PUSH1 0xA0 DUP3 ADD MLOAD PUSH1 0x5 DUP3 ADD SSTORE PUSH1 0xC0 DUP3 ADD MLOAD PUSH1 0x6 DUP3 ADD SSTORE PUSH1 0xE0 DUP3 ADD MLOAD PUSH1 0x7 DUP3 ADD SSTORE PUSH2 0x100 DUP3 ADD MLOAD PUSH1 0x8 DUP3 ADD SSTORE PUSH2 0x120 SWAP1 SWAP2 ADD MLOAD PUSH1 0x9 SWAP2 DUP3 ADD DUP1 SLOAD PUSH1 0x1 PUSH1 0x1 PUSH1 0xA0 SHL SUB NOT AND PUSH1 0x1 PUSH1 0x1 PUSH1 0xA0 SHL SUB SWAP3 DUP4 AND OR SWAP1 SSTORE SWAP1 SLOAD PUSH2 0x10F8 SWAP2 AND DUP10 PUSH1 0x64 PUSH2 0x10EE DUP11 PUSH1 0x1E PUSH2 0x2BBE JUMP JUMPDEST PUSH2 0x3DE SWAP2 SWAP1 PUSH2 0x2BD5 JUMP JUMPDEST POP POP POP POP POP POP POP POP POP JUMP JUMPDEST DUP1 MLOAD PUSH1 0x20 DUP2 DUP4 ADD DUP2 ADD DUP1 MLOAD PUSH1 0xA DUP3 MSTORE SWAP3 DUP3 ADD SWAP2 SWAP1 SWAP4 ADD KECCAK256 SWAP2 MSTORE DUP1 SLOAD DUP2 SWAP1 PUSH2 0x1129 SWAP1 PUSH2 0x2B2C JUMP JUMPDEST DUP1 PUSH1 0x1F ADD PUSH1 0x20 DUP1 SWAP2 DIV MUL PUSH1 0x20 ADD PUSH1 0x40 MLOAD SWAP1 DUP2 ADD PUSH1 0x40 MSTORE DUP1 SWAP3 SWAP2 SWAP1 DUP2 DUP2 MSTORE PUSH1 0x20 ADD DUP3 DUP1 SLOAD PUSH2 0x1155 SWAP1 PUSH2 0x2B2C JUMP JUMPDEST DUP1 ISZERO PUSH2 0x11A2 JUMPI DUP1 PUSH1 0x1F LT PUSH2 0x1177 JUMPI PUSH2 0x100 DUP1 DUP4 SLOAD DIV MUL DUP4 MSTORE SWAP2 PUSH1 0x20 ADD SWAP2 PUSH2 0x11A2 JUMP JUMPDEST DUP3 ADD SWAP2 SWAP1 PUSH1 0x0 MSTORE PUSH1 0x20 PUSH1 0x0 KECCAK256 SWAP1 JUMPDEST DUP2 SLOAD DUP2 MSTORE SWAP1 PUSH1 0x1 ADD SWAP1 PUSH1 0x20 ADD DUP1 DUP4 GT PUSH2 0x1185 JUMPI DUP3 SWAP1 SUB PUSH1 0x1F AND DUP3 ADD SWAP2 JUMPDEST POP POP POP PUSH1 0x1 DUP5 ADD SLOAD PUSH1 0x2 DUP6 ADD SLOAD PUSH1 0x3 DUP7 ADD SLOAD PUSH1 0x4 DUP8 ADD SLOAD PUSH1 0x5 DUP9 ADD SLOAD PUSH1 0x6 DUP10 ADD SLOAD PUSH1 0x7 DUP11 ADD SLOAD PUSH1 0x8 DUP12 ADD SLOAD PUSH1 0x9 SWAP1 SWAP12 ADD SLOAD SWAP10 SWAP11 SWAP7 SWAP10 SWAP6 SWAP9 POP SWAP4 SWAP7 POP SWAP2 SWAP5 SWAP1 SWAP4 SWAP2 SWAP3 SWAP2 PUSH1 0x1 PUSH1 0x1 PUSH1 0xA0 SHL SUB AND DUP11 JUMP JUMPDEST PUSH1 0x0 DUP3 PUSH2 0x1208 JUMPI PUSH1 0x9 SLOAD PUSH1 0x1 PUSH1 0x1 PUSH1 0xA0 SHL SUB AND PUSH2 0x120A JUMP JUMPDEST DUP4 JUMPDEST SWAP1 POP PUSH1 0x0 DUP4 PUSH2 0x1219 JUMPI DUP5 PUSH2 0x1226 JUMP JUMPDEST PUSH1 0x9 SLOAD PUSH1 0x1 PUSH1 0x1 PUSH1 0xA0 SHL SUB AND JUMPDEST SWAP1 POP DUP2 PUSH1 0x1 PUSH1 0x1 PUSH1 0xA0 SHL SUB AND PUSH2 0x123B DUP5 PUSH2 0xCB2 JUMP JUMPDEST PUSH1 0x1 PUSH1 0x1 PUSH1 0xA0 SHL SUB AND EQ PUSH2 0x12B7 JUMPI PUSH1 0x40 MLOAD PUSH3 0x461BCD PUSH1 0xE5 SHL DUP2 MSTORE PUSH1 0x20 PUSH1 0x4 DUP3 ADD MSTORE PUSH1 0x2A PUSH1 0x24 DUP3 ADD MSTORE PUSH32 0x53656E646572206D75737420626520746865206F776E6572206F662074686174 PUSH1 0x44 DUP3 ADD MSTORE PUSH32 0x2042696C6C284E46542900000000000000000000000000000000000000000000 PUSH1 0x64 DUP3 ADD MSTORE PUSH1 0x84 ADD PUSH2 0x5E9 JUMP JUMPDEST PUSH2 0x12C2 DUP3 DUP3 DUP6 PUSH2 0x1DA5 JUMP JUMPDEST POP POP POP POP POP JUMP JUMPDEST PUSH2 0x585 CALLER DUP4 DUP4 PUSH2 0x1DC0 JUMP JUMPDEST PUSH2 0x12DF DUP5 DUP5 DUP5 PUSH2 0x8A3 JUMP JUMPDEST PUSH2 0x928 DUP5 DUP5 DUP5 DUP5 PUSH2 0x1E78 JUMP JUMPDEST PUSH1 0x9 SLOAD PUSH1 0x1 PUSH1 0x1 PUSH1 0xA0 SHL SUB AND CALLER EQ PUSH2 0x134F JUMPI PUSH1 0x40 MLOAD PUSH3 0x461BCD PUSH1 0xE5 SHL DUP2 MSTORE PUSH1 0x20 PUSH1 0x4 DUP3 ADD MSTORE PUSH1 0x21 PUSH1 0x24 DUP3 ADD MSTORE PUSH32 0x4F6E6C792061646D696E2063616E2063616C6C20746869732066756E6374696F PUSH1 0x44 DUP3 ADD MSTORE PUSH1 0x37 PUSH1 0xF9 SHL PUSH1 0x64 DUP3 ADD MSTORE PUSH1 0x84 ADD PUSH2 0x5E9 JUMP JUMPDEST PUSH1 0x0 DUP2 DUP2 MSTORE PUSH1 0xB PUSH1 0x20 MSTORE PUSH1 0x40 SWAP1 KECCAK256 PUSH1 0x1 ADD SLOAD PUSH2 0x13AD JUMPI PUSH1 0x40 MLOAD PUSH3 0x461BCD PUSH1 0xE5 SHL DUP2 MSTORE PUSH1 0x20 PUSH1 0x4 DUP3 ADD MSTORE PUSH1 0x1B PUSH1 0x24 DUP3 ADD MSTORE PUSH32 0x496E766573746D656E7420646F6573206E6F7420657869737473210000000000 PUSH1 0x44 DUP3 ADD MSTORE PUSH1 0x64 ADD PUSH2 0x5E9 JUMP JUMPDEST TIMESTAMP PUSH1 0xA PUSH1 0xB PUSH1 0x0 DUP5 DUP2 MSTORE PUSH1 0x20 ADD SWAP1 DUP2 MSTORE PUSH1 0x20 ADD PUSH1 0x0 KECCAK256 PUSH1 0x2 ADD PUSH1 0x40 MLOAD PUSH2 0x13D3 SWAP2 SWAP1 PUSH2 0x2C6A JUMP JUMPDEST SWAP1 DUP2 MSTORE PUSH1 0x20 ADD PUSH1 0x40 MLOAD DUP1 SWAP2 SUB SWAP1 KECCAK256 PUSH1 0x4 ADD SLOAD GT PUSH2 0x1458 JUMPI PUSH1 0x40 MLOAD PUSH3 0x461BCD PUSH1 0xE5 SHL DUP2 MSTORE PUSH1 0x20 PUSH1 0x4 DUP3 ADD MSTORE PUSH1 0x2C PUSH1 0x24 DUP3 ADD MSTORE PUSH32 0x467265657A696E6720706572696F6420737461727465642C2063616E27742077 PUSH1 0x44 DUP3 ADD MSTORE PUSH32 0x69746864726177206E6F77210000000000000000000000000000000000000000 PUSH1 0x64 DUP3 ADD MSTORE PUSH1 0x84 ADD PUSH2 0x5E9 JUMP JUMPDEST PUSH1 0x0 DUP2 DUP2 MSTORE PUSH1 0xB PUSH1 0x20 MSTORE PUSH1 0x40 SWAP1 KECCAK256 PUSH1 0x1 ADD SLOAD PUSH2 0x14B6 JUMPI PUSH1 0x40 MLOAD PUSH3 0x461BCD PUSH1 0xE5 SHL DUP2 MSTORE PUSH1 0x20 PUSH1 0x4 DUP3 ADD MSTORE PUSH1 0x14 PUSH1 0x24 DUP3 ADD MSTORE PUSH32 0x496E73756666696369656E742042616C616E6365000000000000000000000000 PUSH1 0x44 DUP3 ADD MSTORE PUSH1 0x64 ADD PUSH2 0x5E9 JUMP JUMPDEST PUSH1 0x0 DUP2 DUP2 MSTORE PUSH1 0xB PUSH1 0x20 MSTORE PUSH1 0x40 SWAP1 KECCAK256 PUSH1 0x1 ADD SLOAD CALLVALUE LT ISZERO PUSH2 0x1517 JUMPI PUSH1 0x40 MLOAD PUSH3 0x461BCD PUSH1 0xE5 SHL DUP2 MSTORE PUSH1 0x20 PUSH1 0x4 DUP3 ADD MSTORE PUSH1 0x12 PUSH1 0x24 DUP3 ADD MSTORE PUSH32 0x496E73756666696369656E742066756E64730000000000000000000000000000 PUSH1 0x44 DUP3 ADD MSTORE PUSH1 0x64 ADD PUSH2 0x5E9 JUMP JUMPDEST PUSH1 0x0 DUP2 DUP2 MSTORE PUSH1 0xB PUSH1 0x20 MSTORE PUSH1 0x40 DUP1 DUP3 KECCAK256 DUP1 SLOAD PUSH1 0x1 SWAP1 SWAP2 ADD SLOAD SWAP2 MLOAD PUSH1 0x1 PUSH1 0x1 PUSH1 0xA0 SHL SUB SWAP1 SWAP2 AND SWAP3 DUP3 ISZERO PUSH2 0x8FC MUL SWAP3 SWAP2 SWAP1 DUP2 DUP2 DUP2 DUP6 DUP9 DUP9 CALL SWAP4 POP POP POP POP ISZERO DUP1 ISZERO PUSH2 0x1562 JUMPI RETURNDATASIZE PUSH1 0x0 DUP1 RETURNDATACOPY RETURNDATASIZE PUSH1 0x0 REVERT JUMPDEST POP PUSH1 0x0 DUP2 DUP2 MSTORE PUSH1 0xB PUSH1 0x20 MSTORE PUSH1 0x40 DUP2 KECCAK256 DUP1 SLOAD PUSH1 0x1 PUSH1 0x1 PUSH1 0xA0 SHL SUB NOT AND DUP2 SSTORE PUSH1 0x1 DUP2 ADD DUP3 SWAP1 SSTORE SWAP1 PUSH2 0xC92 PUSH1 0x2 DUP4 ADD DUP3 PUSH2 0x2558 JUMP JUMPDEST PUSH1 0x60 PUSH2 0x159F DUP3 PUSH2 0x1C66 JUMP JUMPDEST POP PUSH1 0x0 DUP3 DUP2 MSTORE PUSH1 0x6 PUSH1 0x20 MSTORE PUSH1 0x40 DUP2 KECCAK256 DUP1 SLOAD PUSH2 0x15B9 SWAP1 PUSH2 0x2B2C JUMP JUMPDEST DUP1 PUSH1 0x1F ADD PUSH1 0x20 DUP1 SWAP2 DIV MUL PUSH1 0x20 ADD PUSH1 0x40 MLOAD SWAP1 DUP2 ADD PUSH1 0x40 MSTORE DUP1 SWAP3 SWAP2 SWAP1 DUP2 DUP2 MSTORE PUSH1 0x20 ADD DUP3 DUP1 SLOAD PUSH2 0x15E5 SWAP1 PUSH2 0x2B2C JUMP JUMPDEST DUP1 ISZERO PUSH2 0x1632 JUMPI DUP1 PUSH1 0x1F LT PUSH2 0x1607 JUMPI PUSH2 0x100 DUP1 DUP4 SLOAD DIV MUL DUP4 MSTORE SWAP2 PUSH1 0x20 ADD SWAP2 PUSH2 0x1632 JUMP JUMPDEST DUP3 ADD SWAP2 SWAP1 PUSH1 0x0 MSTORE PUSH1 0x20 PUSH1 0x0 KECCAK256 SWAP1 JUMPDEST DUP2 SLOAD DUP2 MSTORE SWAP1 PUSH1 0x1 ADD SWAP1 PUSH1 0x20 ADD DUP1 DUP4 GT PUSH2 0x1615 JUMPI DUP3 SWAP1 SUB PUSH1 0x1F AND DUP3 ADD SWAP2 JUMPDEST POP POP POP POP POP SWAP1 POP PUSH1 0x0 PUSH2 0x1650 PUSH1 0x40 DUP1 MLOAD PUSH1 0x20 DUP2 ADD SWAP1 SWAP2 MSTORE PUSH1 0x0 DUP2 MSTORE SWAP1 JUMP JUMPDEST SWAP1 POP DUP1 MLOAD PUSH1 0x0 SUB PUSH2 0x1662 JUMPI POP SWAP3 SWAP2 POP POP JUMP JUMPDEST DUP2 MLOAD ISZERO PUSH2 0x1694 JUMPI DUP1 DUP3 PUSH1 0x40 MLOAD PUSH1 0x20 ADD PUSH2 0x167C SWAP3 SWAP2 SWAP1 PUSH2 0x2D86 JUMP JUMPDEST PUSH1 0x40 MLOAD PUSH1 0x20 DUP2 DUP4 SUB SUB DUP2 MSTORE SWAP1 PUSH1 0x40 MSTORE SWAP3 POP POP POP SWAP2 SWAP1 POP JUMP JUMPDEST PUSH2 0x169D DUP5 PUSH2 0x1F9A JUMP JUMPDEST SWAP5 SWAP4 POP POP POP POP JUMP JUMPDEST PUSH1 0x0 DUP1 DUP4 MLOAD GT PUSH2 0x16F7 JUMPI PUSH1 0x40 MLOAD PUSH3 0x461BCD PUSH1 0xE5 SHL DUP2 MSTORE PUSH1 0x20 PUSH1 0x4 DUP3 ADD MSTORE PUSH1 0x17 PUSH1 0x24 DUP3 ADD MSTORE PUSH32 0x4465616C2049442063616E6E6F7420626520656D707479000000000000000000 PUSH1 0x44 DUP3 ADD MSTORE PUSH1 0x64 ADD PUSH2 0x5E9 JUMP JUMPDEST PUSH1 0x0 PUSH1 0xA DUP5 PUSH1 0x40 MLOAD PUSH2 0x1709 SWAP2 SWAP1 PUSH2 0x2B66 JUMP JUMPDEST SWAP1 DUP2 MSTORE PUSH1 0x20 ADD PUSH1 0x40 MLOAD DUP1 SWAP2 SUB SWAP1 KECCAK256 PUSH1 0x3 ADD SLOAD GT PUSH2 0x1768 JUMPI PUSH1 0x40 MLOAD PUSH3 0x461BCD PUSH1 0xE5 SHL DUP2 MSTORE PUSH1 0x20 PUSH1 0x4 DUP3 ADD MSTORE PUSH1 0x15 PUSH1 0x24 DUP3 ADD MSTORE PUSH32 0x4465616C20446F6573206E6F7420657869737473210000000000000000000000 PUSH1 0x44 DUP3 ADD MSTORE PUSH1 0x64 ADD PUSH2 0x5E9 JUMP JUMPDEST TIMESTAMP PUSH1 0xA DUP5 PUSH1 0x40 MLOAD PUSH2 0x1779 SWAP2 SWAP1 PUSH2 0x2B66 JUMP JUMPDEST SWAP1 DUP2 MSTORE PUSH1 0x20 ADD PUSH1 0x40 MLOAD DUP1 SWAP2 SUB SWAP1 KECCAK256 PUSH1 0x4 ADD SLOAD GT PUSH2 0x17FE JUMPI PUSH1 0x40 MLOAD PUSH3 0x461BCD PUSH1 0xE5 SHL DUP2 MSTORE PUSH1 0x20 PUSH1 0x4 DUP3 ADD MSTORE PUSH1 0x22 PUSH1 0x24 DUP3 ADD MSTORE PUSH32 0x466C6F6174696E6720706572696F64206F766572212043616E277420696E7665 PUSH1 0x44 DUP3 ADD MSTORE PUSH32 0x7374000000000000000000000000000000000000000000000000000000000000 PUSH1 0x64 DUP3 ADD MSTORE PUSH1 0x84 ADD PUSH2 0x5E9 JUMP JUMPDEST PUSH1 0xA DUP4 PUSH1 0x40 MLOAD PUSH2 0x180E SWAP2 SWAP1 PUSH2 0x2B66 JUMP JUMPDEST SWAP1 DUP2 MSTORE PUSH1 0x20 ADD PUSH1 0x40 MLOAD DUP1 SWAP2 SUB SWAP1 KECCAK256 PUSH1 0x2 ADD SLOAD DUP3 PUSH2 0x182B SWAP2 SWAP1 PUSH2 0x2BAB JUMP JUMPDEST PUSH1 0xA DUP5 PUSH1 0x40 MLOAD PUSH2 0x183B SWAP2 SWAP1 PUSH2 0x2B66 JUMP JUMPDEST SWAP1 DUP2 MSTORE PUSH1 0x20 ADD PUSH1 0x40 MLOAD DUP1 SWAP2 SUB SWAP1 KECCAK256 PUSH1 0x3 ADD SLOAD LT ISZERO PUSH2 0x18C0 JUMPI PUSH1 0x40 MLOAD PUSH3 0x461BCD PUSH1 0xE5 SHL DUP2 MSTORE PUSH1 0x20 PUSH1 0x4 DUP3 ADD MSTORE PUSH1 0x24 DUP1 DUP3 ADD MSTORE PUSH32 0x43616E277420496E76657374206D6F7265207468616E206C696D697420616D6F PUSH1 0x44 DUP3 ADD MSTORE PUSH32 0x756E742100000000000000000000000000000000000000000000000000000000 PUSH1 0x64 DUP3 ADD MSTORE PUSH1 0x84 ADD PUSH2 0x5E9 JUMP JUMPDEST PUSH1 0x0 PUSH1 0xA DUP5 PUSH1 0x40 MLOAD PUSH2 0x18D2 SWAP2 SWAP1 PUSH2 0x2B66 JUMP JUMPDEST SWAP1 DUP2 MSTORE PUSH1 0x20 ADD PUSH1 0x40 MLOAD DUP1 SWAP2 SUB SWAP1 KECCAK256 PUSH1 0x2 ADD SLOAD PUSH1 0xA DUP6 PUSH1 0x40 MLOAD PUSH2 0x18F4 SWAP2 SWAP1 PUSH2 0x2B66 JUMP JUMPDEST SWAP1 DUP2 MSTORE PUSH1 0x20 ADD PUSH1 0x40 MLOAD DUP1 SWAP2 SUB SWAP1 KECCAK256 PUSH1 0x3 ADD SLOAD PUSH2 0x1910 SWAP2 SWAP1 PUSH2 0x2B98 JUMP JUMPDEST SWAP1 POP PUSH1 0xA DUP5 PUSH1 0x40 MLOAD PUSH2 0x1922 SWAP2 SWAP1 PUSH2 0x2B66 JUMP JUMPDEST SWAP1 DUP2 MSTORE PUSH1 0x20 ADD PUSH1 0x40 MLOAD DUP1 SWAP2 SUB SWAP1 KECCAK256 PUSH1 0x1 ADD SLOAD DUP4 LT ISZERO DUP1 PUSH2 0x196C JUMPI POP PUSH1 0xA DUP5 PUSH1 0x40 MLOAD PUSH2 0x194D SWAP2 SWAP1 PUSH2 0x2B66 JUMP JUMPDEST SWAP1 DUP2 MSTORE PUSH1 0x20 ADD PUSH1 0x40 MLOAD DUP1 SWAP2 SUB SWAP1 KECCAK256 PUSH1 0x1 ADD SLOAD DUP2 LT DUP1 ISZERO PUSH2 0x196C JUMPI POP DUP1 DUP4 EQ JUMPDEST PUSH2 0x19E0 JUMPI PUSH1 0x40 DUP1 MLOAD PUSH3 0x461BCD PUSH1 0xE5 SHL DUP2 MSTORE PUSH1 0x20 PUSH1 0x4 DUP3 ADD MSTORE PUSH1 0x24 DUP2 ADD SWAP2 SWAP1 SWAP2 MSTORE PUSH32 0x416D6F756E7420496E766573746564206D757374206265203E3D206D696E2061 PUSH1 0x44 DUP3 ADD MSTORE PUSH32 0x6D6F756E74206F7220626520746865206C617374207472616E73616374696F6E PUSH1 0x64 DUP3 ADD MSTORE PUSH1 0x84 ADD PUSH2 0x5E9 JUMP JUMPDEST PUSH1 0x9 SLOAD PUSH1 0x40 MLOAD PUSH1 0x1 PUSH1 0x1 PUSH1 0xA0 SHL SUB SWAP1 SWAP2 AND SWAP1 DUP5 ISZERO PUSH2 0x8FC MUL SWAP1 DUP6 SWAP1 PUSH1 0x0 DUP2 DUP2 DUP2 DUP6 DUP9 DUP9 CALL SWAP4 POP POP POP POP ISZERO DUP1 ISZERO PUSH2 0x1A1A JUMPI RETURNDATASIZE PUSH1 0x0 DUP1 RETURNDATACOPY RETURNDATASIZE PUSH1 0x0 REVERT JUMPDEST POP PUSH1 0x8 DUP1 SLOAD SWAP1 PUSH1 0x0 PUSH2 0x1A2B DUP4 PUSH2 0x2DB5 JUMP JUMPDEST SWAP1 SWAP2 SSTORE POP POP PUSH1 0x40 DUP1 MLOAD PUSH1 0x60 DUP2 ADD DUP3 MSTORE PUSH1 0x1 PUSH1 0x1 PUSH1 0xA0 SHL SUB DUP8 DUP2 AND DUP3 MSTORE PUSH1 0x20 DUP1 DUP4 ADD DUP8 DUP2 MSTORE DUP4 DUP6 ADD DUP10 DUP2 MSTORE PUSH1 0x8 SLOAD PUSH1 0x0 SWAP1 DUP2 MSTORE PUSH1 0xB SWAP1 SWAP4 MSTORE SWAP5 SWAP1 SWAP2 KECCAK256 DUP4 MLOAD DUP2 SLOAD PUSH1 0x1 PUSH1 0x1 PUSH1 0xA0 SHL SUB NOT AND SWAP4 AND SWAP3 SWAP1 SWAP3 OR DUP3 SSTORE MLOAD PUSH1 0x1 DUP3 ADD SSTORE SWAP2 MLOAD SWAP1 SWAP2 SWAP1 PUSH1 0x2 DUP3 ADD SWAP1 PUSH2 0x1A96 SWAP1 DUP3 PUSH2 0x2CC6 JUMP JUMPDEST POP SWAP1 POP POP DUP3 PUSH1 0xA DUP6 PUSH1 0x40 MLOAD PUSH2 0x1AAB SWAP2 SWAP1 PUSH2 0x2B66 JUMP JUMPDEST SWAP1 DUP2 MSTORE PUSH1 0x20 ADD PUSH1 0x40 MLOAD DUP1 SWAP2 SUB SWAP1 KECCAK256 PUSH1 0x2 ADD PUSH1 0x0 DUP3 DUP3 SLOAD PUSH2 0x1ACB SWAP2 SWAP1 PUSH2 0x2BAB JUMP JUMPDEST SWAP1 SWAP2 SSTORE POP POP PUSH1 0x8 SLOAD SWAP6 SWAP5 POP POP POP POP POP JUMP JUMPDEST PUSH1 0x7 SLOAD PUSH1 0x0 SWAP1 PUSH2 0x1AEC DUP5 DUP3 PUSH2 0x200F JUMP JUMPDEST PUSH2 0x1AF6 DUP2 DUP5 PUSH2 0x208D JUMP JUMPDEST PUSH1 0x1 PUSH1 0x7 PUSH1 0x0 DUP3 DUP3 SLOAD PUSH2 0x1B09 SWAP2 SWAP1 PUSH2 0x2BAB JUMP JUMPDEST SWAP1 SWAP2 SSTORE POP SWAP1 SWAP5 SWAP4 POP POP POP POP JUMP JUMPDEST PUSH1 0xB PUSH1 0x20 MSTORE PUSH1 0x0 SWAP1 DUP2 MSTORE PUSH1 0x40 SWAP1 KECCAK256 DUP1 SLOAD PUSH1 0x1 DUP3 ADD SLOAD PUSH1 0x2 DUP4 ADD DUP1 SLOAD PUSH1 0x1 PUSH1 0x1 PUSH1 0xA0 SHL SUB SWAP1 SWAP4 AND SWAP4 SWAP2 SWAP3 PUSH2 0x1B48 SWAP1 PUSH2 0x2B2C JUMP JUMPDEST DUP1 PUSH1 0x1F ADD PUSH1 0x20 DUP1 SWAP2 DIV MUL PUSH1 0x20 ADD PUSH1 0x40 MLOAD SWAP1 DUP2 ADD PUSH1 0x40 MSTORE DUP1 SWAP3 SWAP2 SWAP1 DUP2 DUP2 MSTORE PUSH1 0x20 ADD DUP3 DUP1 SLOAD PUSH2 0x1B74 SWAP1 PUSH2 0x2B2C JUMP JUMPDEST DUP1 ISZERO PUSH2 0x1BC1 JUMPI DUP1 PUSH1 0x1F LT PUSH2 0x1B96 JUMPI PUSH2 0x100 DUP1 DUP4 SLOAD DIV MUL DUP4 MSTORE SWAP2 PUSH1 0x20 ADD SWAP2 PUSH2 0x1BC1 JUMP JUMPDEST DUP3 ADD SWAP2 SWAP1 PUSH1 0x0 MSTORE PUSH1 0x20 PUSH1 0x0 KECCAK256 SWAP1 JUMPDEST DUP2 SLOAD DUP2 MSTORE SWAP1 PUSH1 0x1 ADD SWAP1 PUSH1 0x20 ADD DUP1 DUP4 GT PUSH2 0x1BA4 JUMPI DUP3 SWAP1 SUB PUSH1 0x1F AND DUP3 ADD SWAP2 JUMPDEST POP POP POP POP POP SWAP1 POP DUP4 JUMP JUMPDEST PUSH1 0x0 PUSH1 0x1 PUSH1 0x1 PUSH1 0xE0 SHL SUB NOT DUP3 AND PUSH32 0x80AC58CD00000000000000000000000000000000000000000000000000000000 EQ DUP1 PUSH2 0x1C2E JUMPI POP PUSH1 0x1 PUSH1 0x1 PUSH1 0xE0 SHL SUB NOT DUP3 AND PUSH32 0x5B5E139F00000000000000000000000000000000000000000000000000000000 EQ JUMPDEST DUP1 PUSH2 0x4B9 JUMPI POP PUSH32 0x1FFC9A700000000000000000000000000000000000000000000000000000000 PUSH1 0x1 PUSH1 0x1 PUSH1 0xE0 SHL SUB NOT DUP4 AND EQ PUSH2 0x4B9 JUMP JUMPDEST PUSH1 0x0 DUP2 DUP2 MSTORE PUSH1 0x2 PUSH1 0x20 MSTORE PUSH1 0x40 DUP2 KECCAK256 SLOAD PUSH1 0x1 PUSH1 0x1 PUSH1 0xA0 SHL SUB AND DUP1 PUSH2 0x4B9 JUMPI PUSH1 0x40 MLOAD PUSH4 0x7E273289 PUSH1 0xE0 SHL DUP2 MSTORE PUSH1 0x4 DUP2 ADD DUP5 SWAP1 MSTORE PUSH1 0x24 ADD PUSH2 0x5E9 JUMP JUMPDEST PUSH2 0xC92 DUP4 DUP4 DUP4 PUSH1 0x1 PUSH2 0x20DD JUMP JUMPDEST PUSH1 0x0 DUP3 DUP2 MSTORE PUSH1 0x2 PUSH1 0x20 MSTORE PUSH1 0x40 DUP2 KECCAK256 SLOAD PUSH1 0x1 PUSH1 0x1 PUSH1 0xA0 SHL SUB SWAP1 DUP2 AND SWAP1 DUP4 AND ISZERO PUSH2 0x1CD9 JUMPI PUSH2 0x1CD9 DUP2 DUP5 DUP7 PUSH2 0x221B JUMP JUMPDEST PUSH1 0x1 PUSH1 0x1 PUSH1 0xA0 SHL SUB DUP2 AND ISZERO PUSH2 0x1D17 JUMPI PUSH2 0x1CF6 PUSH1 0x0 DUP6 PUSH1 0x0 DUP1 PUSH2 0x20DD JUMP JUMPDEST PUSH1 0x1 PUSH1 0x1 PUSH1 0xA0 SHL SUB DUP2 AND PUSH1 0x0 SWAP1 DUP2 MSTORE PUSH1 0x3 PUSH1 0x20 MSTORE PUSH1 0x40 SWAP1 KECCAK256 DUP1 SLOAD PUSH1 0x0 NOT ADD SWAP1 SSTORE JUMPDEST PUSH1 0x1 PUSH1 0x1 PUSH1 0xA0 SHL SUB DUP6 AND ISZERO PUSH2 0x1D46 JUMPI PUSH1 0x1 PUSH1 0x1 PUSH1 0xA0 SHL SUB DUP6 AND PUSH1 0x0 SWAP1 DUP2 MSTORE PUSH1 0x3 PUSH1 0x20 MSTORE PUSH1 0x40 SWAP1 KECCAK256 DUP1 SLOAD PUSH1 0x1 ADD SWAP1 SSTORE JUMPDEST PUSH1 0x0 DUP5 DUP2 MSTORE PUSH1 0x2 PUSH1 0x20 MSTORE PUSH1 0x40 DUP1 DUP3 KECCAK256 DUP1 SLOAD PUSH1 0x1 PUSH1 0x1 PUSH1 0xA0 SHL SUB NOT AND PUSH1 0x1 PUSH1 0x1 PUSH1 0xA0 SHL SUB DUP10 DUP2 AND SWAP2 DUP3 OR SWAP1 SWAP3 SSTORE SWAP2 MLOAD DUP8 SWAP4 SWAP2 DUP6 AND SWAP2 PUSH32 0xDDF252AD1BE2C89B69C2B068FC378DAA952BA7F163C4A11628F55A4DF523B3EF SWAP2 LOG4 SWAP5 SWAP4 POP POP POP POP JUMP JUMPDEST PUSH2 0xC92 DUP4 DUP4 DUP4 PUSH1 0x40 MLOAD DUP1 PUSH1 0x20 ADD PUSH1 0x40 MSTORE DUP1 PUSH1 0x0 DUP2 MSTORE POP PUSH2 0x2298 JUMP JUMPDEST PUSH1 0x1 PUSH1 0x1 PUSH1 0xA0 SHL SUB DUP3 AND PUSH2 0x1E0B JUMPI PUSH1 0x40 MLOAD PUSH32 0x5B08BA1800000000000000000000000000000000000000000000000000000000 DUP2 MSTORE PUSH1 0x1 PUSH1 0x1 PUSH1 0xA0 SHL SUB DUP4 AND PUSH1 0x4 DUP3 ADD MSTORE PUSH1 0x24 ADD PUSH2 0x5E9 JUMP JUMPDEST PUSH1 0x1 PUSH1 0x1 PUSH1 0xA0 SHL SUB DUP4 DUP2 AND PUSH1 0x0 DUP2 DUP2 MSTORE PUSH1 0x5 PUSH1 0x20 SWAP1 DUP2 MSTORE PUSH1 0x40 DUP1 DUP4 KECCAK256 SWAP5 DUP8 AND DUP1 DUP5 MSTORE SWAP5 DUP3 MSTORE SWAP2 DUP3 SWAP1 KECCAK256 DUP1 SLOAD PUSH1 0xFF NOT AND DUP7 ISZERO ISZERO SWAP1 DUP2 OR SWAP1 SWAP2 SSTORE SWAP2 MLOAD SWAP2 DUP3 MSTORE PUSH32 0x17307EAB39AB6107E8899845AD3D59BD9653F200F220920489CA2B5937696C31 SWAP2 ADD PUSH1 0x40 MLOAD DUP1 SWAP2 SUB SWAP1 LOG3 POP POP POP JUMP JUMPDEST PUSH1 0x1 PUSH1 0x1 PUSH1 0xA0 SHL SUB DUP4 AND EXTCODESIZE ISZERO PUSH2 0x928 JUMPI PUSH1 0x40 MLOAD PUSH4 0xA85BD01 PUSH1 0xE1 SHL DUP2 MSTORE PUSH1 0x1 PUSH1 0x1 PUSH1 0xA0 SHL SUB DUP5 AND SWAP1 PUSH4 0x150B7A02 SWAP1 PUSH2 0x1EBA SWAP1 CALLER SWAP1 DUP9 SWAP1 DUP8 SWAP1 DUP8 SWAP1 PUSH1 0x4 ADD PUSH2 0x2DCE JUMP JUMPDEST PUSH1 0x20 PUSH1 0x40 MLOAD DUP1 DUP4 SUB DUP2 PUSH1 0x0 DUP8 GAS CALL SWAP3 POP POP POP DUP1 ISZERO PUSH2 0x1EF5 JUMPI POP PUSH1 0x40 DUP1 MLOAD PUSH1 0x1F RETURNDATASIZE SWAP1 DUP2 ADD PUSH1 0x1F NOT AND DUP3 ADD SWAP1 SWAP3 MSTORE PUSH2 0x1EF2 SWAP2 DUP2 ADD SWAP1 PUSH2 0x2E0A JUMP JUMPDEST PUSH1 0x1 JUMPDEST PUSH2 0x1F5E JUMPI RETURNDATASIZE DUP1 DUP1 ISZERO PUSH2 0x1F23 JUMPI PUSH1 0x40 MLOAD SWAP2 POP PUSH1 0x1F NOT PUSH1 0x3F RETURNDATASIZE ADD AND DUP3 ADD PUSH1 0x40 MSTORE RETURNDATASIZE DUP3 MSTORE RETURNDATASIZE PUSH1 0x0 PUSH1 0x20 DUP5 ADD RETURNDATACOPY PUSH2 0x1F28 JUMP JUMPDEST PUSH1 0x60 SWAP2 POP JUMPDEST POP DUP1 MLOAD PUSH1 0x0 SUB PUSH2 0x1F56 JUMPI PUSH1 0x40 MLOAD PUSH4 0x32505749 PUSH1 0xE1 SHL DUP2 MSTORE PUSH1 0x1 PUSH1 0x1 PUSH1 0xA0 SHL SUB DUP6 AND PUSH1 0x4 DUP3 ADD MSTORE PUSH1 0x24 ADD PUSH2 0x5E9 JUMP JUMPDEST DUP1 MLOAD DUP2 PUSH1 0x20 ADD REVERT JUMPDEST PUSH1 0x1 PUSH1 0x1 PUSH1 0xE0 SHL SUB NOT DUP2 AND PUSH4 0xA85BD01 PUSH1 0xE1 SHL EQ PUSH2 0x12C2 JUMPI PUSH1 0x40 MLOAD PUSH4 0x32505749 PUSH1 0xE1 SHL DUP2 MSTORE PUSH1 0x1 PUSH1 0x1 PUSH1 0xA0 SHL SUB DUP6 AND PUSH1 0x4 DUP3 ADD MSTORE PUSH1 0x24 ADD PUSH2 0x5E9 JUMP JUMPDEST PUSH1 0x60 PUSH2 0x1FA5 DUP3 PUSH2 0x1C66 JUMP JUMPDEST POP PUSH1 0x0 PUSH2 0x1FBD PUSH1 0x40 DUP1 MLOAD PUSH1 0x20 DUP2 ADD SWAP1 SWAP2 MSTORE PUSH1 0x0 DUP2 MSTORE SWAP1 JUMP JUMPDEST SWAP1 POP PUSH1 0x0 DUP2 MLOAD GT PUSH2 0x1FDD JUMPI PUSH1 0x40 MLOAD DUP1 PUSH1 0x20 ADD PUSH1 0x40 MSTORE DUP1 PUSH1 0x0 DUP2 MSTORE POP PUSH2 0x2008 JUMP JUMPDEST DUP1 PUSH2 0x1FE7 DUP5 PUSH2 0x22A3 JUMP JUMPDEST PUSH1 0x40 MLOAD PUSH1 0x20 ADD PUSH2 0x1FF8 SWAP3 SWAP2 SWAP1 PUSH2 0x2D86 JUMP JUMPDEST PUSH1 0x40 MLOAD PUSH1 0x20 DUP2 DUP4 SUB SUB DUP2 MSTORE SWAP1 PUSH1 0x40 MSTORE JUMPDEST SWAP4 SWAP3 POP POP POP JUMP JUMPDEST PUSH1 0x1 PUSH1 0x1 PUSH1 0xA0 SHL SUB DUP3 AND PUSH2 0x2039 JUMPI PUSH1 0x40 MLOAD PUSH4 0x32505749 PUSH1 0xE1 SHL DUP2 MSTORE PUSH1 0x0 PUSH1 0x4 DUP3 ADD MSTORE PUSH1 0x24 ADD PUSH2 0x5E9 JUMP JUMPDEST PUSH1 0x0 PUSH2 0x2047 DUP4 DUP4 PUSH1 0x0 PUSH2 0x1CAC JUMP JUMPDEST SWAP1 POP PUSH1 0x1 PUSH1 0x1 PUSH1 0xA0 SHL SUB DUP2 AND ISZERO PUSH2 0xC92 JUMPI PUSH1 0x40 MLOAD PUSH32 0x73C6AC6E00000000000000000000000000000000000000000000000000000000 DUP2 MSTORE PUSH1 0x0 PUSH1 0x4 DUP3 ADD MSTORE PUSH1 0x24 ADD PUSH2 0x5E9 JUMP JUMPDEST PUSH1 0x0 DUP3 DUP2 MSTORE PUSH1 0x6 PUSH1 0x20 MSTORE PUSH1 0x40 SWAP1 KECCAK256 PUSH2 0x20A5 DUP3 DUP3 PUSH2 0x2CC6 JUMP JUMPDEST POP PUSH1 0x40 MLOAD DUP3 DUP2 MSTORE PUSH32 0xF8E1A15ABA9398E019F0B49DF1A4FDE98EE17AE345CB5F6B5E2C27F5033E8CE7 SWAP1 PUSH1 0x20 ADD PUSH1 0x40 MLOAD DUP1 SWAP2 SUB SWAP1 LOG1 POP POP JUMP JUMPDEST DUP1 DUP1 PUSH2 0x20F1 JUMPI POP PUSH1 0x1 PUSH1 0x1 PUSH1 0xA0 SHL SUB DUP3 AND ISZERO ISZERO JUMPDEST ISZERO PUSH2 0x21EB JUMPI PUSH1 0x0 PUSH2 0x2101 DUP5 PUSH2 0x1C66 JUMP JUMPDEST SWAP1 POP PUSH1 0x1 PUSH1 0x1 PUSH1 0xA0 SHL SUB DUP4 AND ISZERO DUP1 ISZERO SWAP1 PUSH2 0x212D JUMPI POP DUP3 PUSH1 0x1 PUSH1 0x1 PUSH1 0xA0 SHL SUB AND DUP2 PUSH1 0x1 PUSH1 0x1 PUSH1 0xA0 SHL SUB AND EQ ISZERO JUMPDEST DUP1 ISZERO PUSH2 0x215F JUMPI POP PUSH1 0x1 PUSH1 0x1 PUSH1 0xA0 SHL SUB DUP1 DUP3 AND PUSH1 0x0 SWAP1 DUP2 MSTORE PUSH1 0x5 PUSH1 0x20 SWAP1 DUP2 MSTORE PUSH1 0x40 DUP1 DUP4 KECCAK256 SWAP4 DUP8 AND DUP4 MSTORE SWAP3 SWAP1 MSTORE KECCAK256 SLOAD PUSH1 0xFF AND ISZERO JUMPDEST ISZERO PUSH2 0x21A1 JUMPI PUSH1 0x40 MLOAD PUSH32 0xA9FBF51F00000000000000000000000000000000000000000000000000000000 DUP2 MSTORE PUSH1 0x1 PUSH1 0x1 PUSH1 0xA0 SHL SUB DUP5 AND PUSH1 0x4 DUP3 ADD MSTORE PUSH1 0x24 ADD PUSH2 0x5E9 JUMP JUMPDEST DUP2 ISZERO PUSH2 0x21E9 JUMPI DUP4 DUP6 PUSH1 0x1 PUSH1 0x1 PUSH1 0xA0 SHL SUB AND DUP3 PUSH1 0x1 PUSH1 0x1 PUSH1 0xA0 SHL SUB AND PUSH32 0x8C5BE1E5EBEC7D5BD14F71427D1E84F3DD0314C0F7B2291E5B200AC8C7C3B925 PUSH1 0x40 MLOAD PUSH1 0x40 MLOAD DUP1 SWAP2 SUB SWAP1 LOG4 JUMPDEST POP JUMPDEST POP POP PUSH1 0x0 SWAP1 DUP2 MSTORE PUSH1 0x4 PUSH1 0x20 MSTORE PUSH1 0x40 SWAP1 KECCAK256 DUP1 SLOAD PUSH1 0x1 PUSH1 0x1 PUSH1 0xA0 SHL SUB NOT AND PUSH1 0x1 PUSH1 0x1 PUSH1 0xA0 SHL SUB SWAP3 SWAP1 SWAP3 AND SWAP2 SWAP1 SWAP2 OR SWAP1 SSTORE JUMP JUMPDEST PUSH2 0x2226 DUP4 DUP4 DUP4 PUSH2 0x2343 JUMP JUMPDEST PUSH2 0xC92 JUMPI PUSH1 0x1 PUSH1 0x1 PUSH1 0xA0 SHL SUB DUP4 AND PUSH2 0x2254 JUMPI PUSH1 0x40 MLOAD PUSH4 0x7E273289 PUSH1 0xE0 SHL DUP2 MSTORE PUSH1 0x4 DUP2 ADD DUP3 SWAP1 MSTORE PUSH1 0x24 ADD PUSH2 0x5E9 JUMP JUMPDEST PUSH1 0x40 MLOAD PUSH32 0x177E802F00000000000000000000000000000000000000000000000000000000 DUP2 MSTORE PUSH1 0x1 PUSH1 0x1 PUSH1 0xA0 SHL SUB DUP4 AND PUSH1 0x4 DUP3 ADD MSTORE PUSH1 0x24 DUP2 ADD DUP3 SWAP1 MSTORE PUSH1 0x44 ADD PUSH2 0x5E9 JUMP JUMPDEST PUSH2 0x12DF DUP5 DUP5 DUP5 PUSH2 0x23C6 JUMP JUMPDEST PUSH1 0x60 PUSH1 0x0 PUSH2 0x22B0 DUP4 PUSH2 0x2476 JUMP JUMPDEST PUSH1 0x1 ADD SWAP1 POP PUSH1 0x0 DUP2 PUSH8 0xFFFFFFFFFFFFFFFF DUP2 GT ISZERO PUSH2 0x22D0 JUMPI PUSH2 0x22D0 PUSH2 0x269E JUMP JUMPDEST PUSH1 0x40 MLOAD SWAP1 DUP1 DUP3 MSTORE DUP1 PUSH1 0x1F ADD PUSH1 0x1F NOT AND PUSH1 0x20 ADD DUP3 ADD PUSH1 0x40 MSTORE DUP1 ISZERO PUSH2 0x22FA JUMPI PUSH1 0x20 DUP3 ADD DUP2 DUP1 CALLDATASIZE DUP4 CALLDATACOPY ADD SWAP1 POP JUMPDEST POP SWAP1 POP DUP2 DUP2 ADD PUSH1 0x20 ADD JUMPDEST PUSH1 0x0 NOT ADD PUSH32 0x3031323334353637383961626364656600000000000000000000000000000000 PUSH1 0xA DUP7 MOD BYTE DUP2 MSTORE8 PUSH1 0xA DUP6 DIV SWAP5 POP DUP5 PUSH2 0x2304 JUMPI POP SWAP4 SWAP3 POP POP POP JUMP JUMPDEST PUSH1 0x0 PUSH1 0x1 PUSH1 0x1 PUSH1 0xA0 SHL SUB DUP4 AND ISZERO DUP1 ISZERO SWAP1 PUSH2 0x169D JUMPI POP DUP3 PUSH1 0x1 PUSH1 0x1 PUSH1 0xA0 SHL SUB AND DUP5 PUSH1 0x1 PUSH1 0x1 PUSH1 0xA0 SHL SUB AND EQ DUP1 PUSH2 0x239D JUMPI POP PUSH1 0x1 PUSH1 0x1 PUSH1 0xA0 SHL SUB DUP1 DUP6 AND PUSH1 0x0 SWAP1 DUP2 MSTORE PUSH1 0x5 PUSH1 0x20 SWAP1 DUP2 MSTORE PUSH1 0x40 DUP1 DUP4 KECCAK256 SWAP4 DUP8 AND DUP4 MSTORE SWAP3 SWAP1 MSTORE KECCAK256 SLOAD PUSH1 0xFF AND JUMPDEST DUP1 PUSH2 0x169D JUMPI POP POP PUSH1 0x0 SWAP1 DUP2 MSTORE PUSH1 0x4 PUSH1 0x20 MSTORE PUSH1 0x40 SWAP1 KECCAK256 SLOAD PUSH1 0x1 PUSH1 0x1 PUSH1 0xA0 SHL SUB SWAP1 DUP2 AND SWAP2 AND EQ SWAP2 SWAP1 POP JUMP JUMPDEST PUSH1 0x1 PUSH1 0x1 PUSH1 0xA0 SHL SUB DUP3 AND PUSH2 0x23F0 JUMPI PUSH1 0x40 MLOAD PUSH4 0x32505749 PUSH1 0xE1 SHL DUP2 MSTORE PUSH1 0x0 PUSH1 0x4 DUP3 ADD MSTORE PUSH1 0x24 ADD PUSH2 0x5E9 JUMP JUMPDEST PUSH1 0x0 PUSH2 0x23FE DUP4 DUP4 PUSH1 0x0 PUSH2 0x1CAC JUMP JUMPDEST SWAP1 POP PUSH1 0x1 PUSH1 0x1 PUSH1 0xA0 SHL SUB DUP2 AND PUSH2 0x242A JUMPI PUSH1 0x40 MLOAD PUSH4 0x7E273289 PUSH1 0xE0 SHL DUP2 MSTORE PUSH1 0x4 DUP2 ADD DUP4 SWAP1 MSTORE PUSH1 0x24 ADD PUSH2 0x5E9 JUMP JUMPDEST DUP4 PUSH1 0x1 PUSH1 0x1 PUSH1 0xA0 SHL SUB AND DUP2 PUSH1 0x1 PUSH1 0x1 PUSH1 0xA0 SHL SUB AND EQ PUSH2 0x928 JUMPI PUSH1 0x40 MLOAD PUSH4 0x64283D7B PUSH1 0xE0 SHL DUP2 MSTORE PUSH1 0x1 PUSH1 0x1 PUSH1 0xA0 SHL SUB DUP1 DUP7 AND PUSH1 0x4 DUP4 ADD MSTORE PUSH1 0x24 DUP3 ADD DUP5 SWAP1 MSTORE DUP3 AND PUSH1 0x44 DUP3 ADD MSTORE PUSH1 0x64 ADD PUSH2 0x5E9 JUMP JUMPDEST PUSH1 0x0 DUP1 PUSH27 0x184F03E93FF9F4DAA797ED6E38ED64BF6A1F010000000000000000 DUP4 LT PUSH2 0x24BF JUMPI PUSH27 0x184F03E93FF9F4DAA797ED6E38ED64BF6A1F010000000000000000 DUP4 DIV SWAP3 POP PUSH1 0x40 ADD JUMPDEST PUSH14 0x4EE2D6D415B85ACEF8100000000 DUP4 LT PUSH2 0x24EB JUMPI PUSH14 0x4EE2D6D415B85ACEF8100000000 DUP4 DIV SWAP3 POP PUSH1 0x20 ADD JUMPDEST PUSH7 0x2386F26FC10000 DUP4 LT PUSH2 0x2509 JUMPI PUSH7 0x2386F26FC10000 DUP4 DIV SWAP3 POP PUSH1 0x10 ADD JUMPDEST PUSH4 0x5F5E100 DUP4 LT PUSH2 0x2521 JUMPI PUSH4 0x5F5E100 DUP4 DIV SWAP3 POP PUSH1 0x8 ADD JUMPDEST PUSH2 0x2710 DUP4 LT PUSH2 0x2535 JUMPI PUSH2 0x2710 DUP4 DIV SWAP3 POP PUSH1 0x4 ADD JUMPDEST PUSH1 0x64 DUP4 LT PUSH2 0x2547 JUMPI PUSH1 0x64 DUP4 DIV SWAP3 POP PUSH1 0x2 ADD JUMPDEST PUSH1 0xA DUP4 LT PUSH2 0x4B9 JUMPI PUSH1 0x1 ADD SWAP3 SWAP2 POP POP JUMP JUMPDEST POP DUP1 SLOAD PUSH2 0x2564 SWAP1 PUSH2 0x2B2C JUMP JUMPDEST PUSH1 0x0 DUP3 SSTORE DUP1 PUSH1 0x1F LT PUSH2 0x2574 JUMPI POP POP JUMP JUMPDEST PUSH1 0x1F ADD PUSH1 0x20 SWAP1 DIV SWAP1 PUSH1 0x0 MSTORE PUSH1 0x20 PUSH1 0x0 KECCAK256 SWAP1 DUP2 ADD SWAP1 PUSH2 0x2592 SWAP2 SWAP1 PUSH2 0x2595 JUMP JUMPDEST POP JUMP JUMPDEST JUMPDEST DUP1 DUP3 GT ISZERO PUSH2 0x25AA JUMPI PUSH1 0x0 DUP2 SSTORE PUSH1 0x1 ADD PUSH2 0x2596 JUMP JUMPDEST POP SWAP1 JUMP JUMPDEST PUSH1 0x1 PUSH1 0x1 PUSH1 0xE0 SHL SUB NOT DUP2 AND DUP2 EQ PUSH2 0x2592 JUMPI PUSH1 0x0 DUP1 REVERT JUMPDEST PUSH1 0x0 PUSH1 0x20 DUP3 DUP5 SUB SLT ISZERO PUSH2 0x25D6 JUMPI PUSH1 0x0 DUP1 REVERT JUMPDEST DUP2 CALLDATALOAD PUSH2 0x2008 DUP2 PUSH2 0x25AE JUMP JUMPDEST PUSH1 0x0 JUMPDEST DUP4 DUP2 LT ISZERO PUSH2 0x25FC JUMPI DUP2 DUP2 ADD MLOAD DUP4 DUP3 ADD MSTORE PUSH1 0x20 ADD PUSH2 0x25E4 JUMP JUMPDEST POP POP PUSH1 0x0 SWAP2 ADD MSTORE JUMP JUMPDEST PUSH1 0x0 DUP2 MLOAD DUP1 DUP5 MSTORE PUSH2 0x261D DUP2 PUSH1 0x20 DUP7 ADD PUSH1 0x20 DUP7 ADD PUSH2 0x25E1 JUMP JUMPDEST PUSH1 0x1F ADD PUSH1 0x1F NOT AND SWAP3 SWAP1 SWAP3 ADD PUSH1 0x20 ADD SWAP3 SWAP2 POP POP JUMP JUMPDEST PUSH1 0x20 DUP2 MSTORE PUSH1 0x0 PUSH2 0x2008 PUSH1 0x20 DUP4 ADD DUP5 PUSH2 0x2605 JUMP JUMPDEST PUSH1 0x0 PUSH1 0x20 DUP3 DUP5 SUB SLT ISZERO PUSH2 0x2656 JUMPI PUSH1 0x0 DUP1 REVERT JUMPDEST POP CALLDATALOAD SWAP2 SWAP1 POP JUMP JUMPDEST PUSH1 0x1 PUSH1 0x1 PUSH1 0xA0 SHL SUB DUP2 AND DUP2 EQ PUSH2 0x2592 JUMPI PUSH1 0x0 DUP1 REVERT JUMPDEST PUSH1 0x0 DUP1 PUSH1 0x40 DUP4 DUP6 SUB SLT ISZERO PUSH2 0x2685 JUMPI PUSH1 0x0 DUP1 REVERT JUMPDEST DUP3 CALLDATALOAD PUSH2 0x2690 DUP2 PUSH2 0x265D JUMP JUMPDEST SWAP5 PUSH1 0x20 SWAP4 SWAP1 SWAP4 ADD CALLDATALOAD SWAP4 POP POP POP JUMP JUMPDEST PUSH4 0x4E487B71 PUSH1 0xE0 SHL PUSH1 0x0 MSTORE PUSH1 0x41 PUSH1 0x4 MSTORE PUSH1 0x24 PUSH1 0x0 REVERT JUMPDEST PUSH1 0x0 PUSH8 0xFFFFFFFFFFFFFFFF DUP1 DUP5 GT ISZERO PUSH2 0x26CF JUMPI PUSH2 0x26CF PUSH2 0x269E JUMP JUMPDEST PUSH1 0x40 MLOAD PUSH1 0x1F DUP6 ADD PUSH1 0x1F NOT SWAP1 DUP2 AND PUSH1 0x3F ADD AND DUP2 ADD SWAP1 DUP3 DUP3 GT DUP2 DUP4 LT OR ISZERO PUSH2 0x26F7 JUMPI PUSH2 0x26F7 PUSH2 0x269E JUMP JUMPDEST DUP2 PUSH1 0x40 MSTORE DUP1 SWAP4 POP DUP6 DUP2 MSTORE DUP7 DUP7 DUP7 ADD GT ISZERO PUSH2 0x2710 JUMPI PUSH1 0x0 DUP1 REVERT JUMPDEST DUP6 DUP6 PUSH1 0x20 DUP4 ADD CALLDATACOPY PUSH1 0x0 PUSH1 0x20 DUP8 DUP4 ADD ADD MSTORE POP POP POP SWAP4 SWAP3 POP POP POP JUMP JUMPDEST PUSH1 0x0 DUP3 PUSH1 0x1F DUP4 ADD SLT PUSH2 0x273B JUMPI PUSH1 0x0 DUP1 REVERT JUMPDEST PUSH2 0x2008 DUP4 DUP4 CALLDATALOAD PUSH1 0x20 DUP6 ADD PUSH2 0x26B4 JUMP JUMPDEST DUP1 CALLDATALOAD DUP1 ISZERO ISZERO DUP2 EQ PUSH2 0x275A JUMPI PUSH1 0x0 DUP1 REVERT JUMPDEST SWAP2 SWAP1 POP JUMP JUMPDEST PUSH1 0x0 DUP1 PUSH1 0x40 DUP4 DUP6 SUB SLT ISZERO PUSH2 0x2772 JUMPI PUSH1 0x0 DUP1 REVERT JUMPDEST DUP3 CALLDATALOAD PUSH8 0xFFFFFFFFFFFFFFFF DUP2 GT ISZERO PUSH2 0x2789 JUMPI PUSH1 0x0 DUP1 REVERT JUMPDEST PUSH2 0x2795 DUP6 DUP3 DUP7 ADD PUSH2 0x272A JUMP JUMPDEST SWAP3 POP POP PUSH2 0x27A4 PUSH1 0x20 DUP5 ADD PUSH2 0x274A JUMP JUMPDEST SWAP1 POP SWAP3 POP SWAP3 SWAP1 POP JUMP JUMPDEST PUSH1 0x0 DUP1 PUSH1 0x0 PUSH1 0x60 DUP5 DUP7 SUB SLT ISZERO PUSH2 0x27C2 JUMPI PUSH1 0x0 DUP1 REVERT JUMPDEST DUP4 CALLDATALOAD PUSH2 0x27CD DUP2 PUSH2 0x265D JUMP JUMPDEST SWAP3 POP PUSH1 0x20 DUP5 ADD CALLDATALOAD PUSH2 0x27DD DUP2 PUSH2 0x265D JUMP JUMPDEST SWAP3 SWAP6 SWAP3 SWAP5 POP POP POP PUSH1 0x40 SWAP2 SWAP1 SWAP2 ADD CALLDATALOAD SWAP1 JUMP JUMPDEST PUSH1 0x0 PUSH1 0x20 DUP3 DUP5 SUB SLT ISZERO PUSH2 0x2800 JUMPI PUSH1 0x0 DUP1 REVERT JUMPDEST DUP2 CALLDATALOAD PUSH8 0xFFFFFFFFFFFFFFFF DUP2 GT ISZERO PUSH2 0x2817 JUMPI PUSH1 0x0 DUP1 REVERT JUMPDEST PUSH2 0x169D DUP5 DUP3 DUP6 ADD PUSH2 0x272A JUMP JUMPDEST PUSH1 0x0 PUSH1 0x20 DUP3 DUP5 SUB SLT ISZERO PUSH2 0x2835 JUMPI PUSH1 0x0 DUP1 REVERT JUMPDEST DUP2 CALLDATALOAD PUSH2 0x2008 DUP2 PUSH2 0x265D JUMP JUMPDEST PUSH1 0x0 DUP1 PUSH1 0x0 DUP1 PUSH1 0x0 DUP1 PUSH1 0x0 DUP1 PUSH2 0x100 DUP10 DUP12 SUB SLT ISZERO PUSH2 0x285D JUMPI PUSH1 0x0 DUP1 REVERT JUMPDEST DUP9 CALLDATALOAD PUSH8 0xFFFFFFFFFFFFFFFF DUP2 GT ISZERO PUSH2 0x2874 JUMPI PUSH1 0x0 DUP1 REVERT JUMPDEST PUSH2 0x2880 DUP12 DUP3 DUP13 ADD PUSH2 0x272A JUMP JUMPDEST SWAP9 POP POP PUSH1 0x20 DUP10 ADD CALLDATALOAD SWAP7 POP PUSH1 0x40 DUP10 ADD CALLDATALOAD SWAP6 POP PUSH1 0x60 DUP10 ADD CALLDATALOAD SWAP5 POP PUSH1 0x80 DUP10 ADD CALLDATALOAD SWAP4 POP PUSH1 0xA0 DUP10 ADD CALLDATALOAD SWAP3 POP PUSH1 0xC0 DUP10 ADD CALLDATALOAD SWAP2 POP PUSH1 0xE0 DUP10 ADD CALLDATALOAD PUSH2 0x28BB DUP2 PUSH2 0x265D JUMP JUMPDEST DUP1 SWAP2 POP POP SWAP3 SWAP6 SWAP9 POP SWAP3 SWAP6 SWAP9 SWAP1 SWAP4 SWAP7 POP JUMP JUMPDEST PUSH1 0x0 PUSH2 0x140 DUP1 DUP4 MSTORE PUSH2 0x28E0 DUP2 DUP5 ADD DUP15 PUSH2 0x2605 JUMP JUMPDEST PUSH1 0x20 DUP5 ADD SWAP13 SWAP1 SWAP13 MSTORE POP POP PUSH1 0x40 DUP2 ADD SWAP9 SWAP1 SWAP9 MSTORE PUSH1 0x60 DUP9 ADD SWAP7 SWAP1 SWAP7 MSTORE PUSH1 0x80 DUP8 ADD SWAP5 SWAP1 SWAP5 MSTORE PUSH1 0xA0 DUP7 ADD SWAP3 SWAP1 SWAP3 MSTORE PUSH1 0xC0 DUP6 ADD MSTORE PUSH1 0xE0 DUP5 ADD MSTORE PUSH2 0x100 DUP4 ADD MSTORE PUSH1 0x1 PUSH1 0x1 PUSH1 0xA0 SHL SUB AND PUSH2 0x120 SWAP1 SWAP2 ADD MSTORE SWAP2 SWAP1 POP JUMP JUMPDEST PUSH1 0x0 DUP1 PUSH1 0x0 PUSH1 0x60 DUP5 DUP7 SUB SLT ISZERO PUSH2 0x2944 JUMPI PUSH1 0x0 DUP1 REVERT JUMPDEST DUP4 CALLDATALOAD PUSH2 0x294F DUP2 PUSH2 0x265D JUMP JUMPDEST SWAP3 POP PUSH2 0x295D PUSH1 0x20 DUP6 ADD PUSH2 0x274A JUMP JUMPDEST SWAP2 POP PUSH1 0x40 DUP5 ADD CALLDATALOAD SWAP1 POP SWAP3 POP SWAP3 POP SWAP3 JUMP JUMPDEST PUSH1 0x0 DUP1 PUSH1 0x40 DUP4 DUP6 SUB SLT ISZERO PUSH2 0x2980 JUMPI PUSH1 0x0 DUP1 REVERT JUMPDEST DUP3 CALLDATALOAD PUSH2 0x298B DUP2 PUSH2 0x265D JUMP JUMPDEST SWAP2 POP PUSH2 0x27A4 PUSH1 0x20 DUP5 ADD PUSH2 0x274A JUMP JUMPDEST PUSH1 0x0 DUP1 PUSH1 0x0 DUP1 PUSH1 0x80 DUP6 DUP8 SUB SLT ISZERO PUSH2 0x29AF JUMPI PUSH1 0x0 DUP1 REVERT JUMPDEST DUP5 CALLDATALOAD PUSH2 0x29BA DUP2 PUSH2 0x265D JUMP JUMPDEST SWAP4 POP PUSH1 0x20 DUP6 ADD CALLDATALOAD PUSH2 0x29CA DUP2 PUSH2 0x265D JUMP JUMPDEST SWAP3 POP PUSH1 0x40 DUP6 ADD CALLDATALOAD SWAP2 POP PUSH1 0x60 DUP6 ADD CALLDATALOAD PUSH8 0xFFFFFFFFFFFFFFFF DUP2 GT ISZERO PUSH2 0x29ED JUMPI PUSH1 0x0 DUP1 REVERT JUMPDEST DUP6 ADD PUSH1 0x1F DUP2 ADD DUP8 SGT PUSH2 0x29FE JUMPI PUSH1 0x0 DUP1 REVERT JUMPDEST PUSH2 0x2A0D DUP8 DUP3 CALLDATALOAD PUSH1 0x20 DUP5 ADD PUSH2 0x26B4 JUMP JUMPDEST SWAP2 POP POP SWAP3 SWAP6 SWAP2 SWAP5 POP SWAP3 POP JUMP JUMPDEST PUSH1 0x0 DUP1 PUSH1 0x0 PUSH1 0x60 DUP5 DUP7 SUB SLT ISZERO PUSH2 0x2A2E JUMPI PUSH1 0x0 DUP1 REVERT JUMPDEST DUP4 CALLDATALOAD PUSH2 0x2A39 DUP2 PUSH2 0x265D JUMP JUMPDEST SWAP3 POP PUSH1 0x20 DUP5 ADD CALLDATALOAD PUSH8 0xFFFFFFFFFFFFFFFF DUP2 GT ISZERO PUSH2 0x2A55 JUMPI PUSH1 0x0 DUP1 REVERT JUMPDEST PUSH2 0x2A61 DUP7 DUP3 DUP8 ADD PUSH2 0x272A JUMP JUMPDEST SWAP3 POP POP PUSH1 0x40 DUP5 ADD CALLDATALOAD SWAP1 POP SWAP3 POP SWAP3 POP SWAP3 JUMP JUMPDEST PUSH1 0x0 DUP1 PUSH1 0x40 DUP4 DUP6 SUB SLT ISZERO PUSH2 0x2A85 JUMPI PUSH1 0x0 DUP1 REVERT JUMPDEST DUP3 CALLDATALOAD PUSH2 0x2A90 DUP2 PUSH2 0x265D JUMP JUMPDEST SWAP2 POP PUSH1 0x20 DUP4 ADD CALLDATALOAD PUSH2 0x2AA0 DUP2 PUSH2 0x265D JUMP JUMPDEST DUP1 SWAP2 POP POP SWAP3 POP SWAP3 SWAP1 POP JUMP JUMPDEST PUSH1 0x0 DUP1 PUSH1 0x40 DUP4 DUP6 SUB SLT ISZERO PUSH2 0x2ABE JUMPI PUSH1 0x0 DUP1 REVERT JUMPDEST DUP3 CALLDATALOAD PUSH2 0x2AC9 DUP2 PUSH2 0x265D JUMP JUMPDEST SWAP2 POP PUSH1 0x20 DUP4 ADD CALLDATALOAD PUSH8 0xFFFFFFFFFFFFFFFF DUP2 GT ISZERO PUSH2 0x2AE5 JUMPI PUSH1 0x0 DUP1 REVERT JUMPDEST PUSH2 0x2AF1 DUP6 DUP3 DUP7 ADD PUSH2 0x272A JUMP JUMPDEST SWAP2 POP POP SWAP3 POP SWAP3 SWAP1 POP JUMP JUMPDEST PUSH1 0x1 PUSH1 0x1 PUSH1 0xA0 SHL SUB DUP5 AND DUP2 MSTORE DUP3 PUSH1 0x20 DUP3 ADD MSTORE PUSH1 0x60 PUSH1 0x40 DUP3 ADD MSTORE PUSH1 0x0 PUSH2 0x2B23 PUSH1 0x60 DUP4 ADD DUP5 PUSH2 0x2605 JUMP JUMPDEST SWAP6 SWAP5 POP POP POP POP POP JUMP JUMPDEST PUSH1 0x1 DUP2 DUP2 SHR SWAP1 DUP3 AND DUP1 PUSH2 0x2B40 JUMPI PUSH1 0x7F DUP3 AND SWAP2 POP JUMPDEST PUSH1 0x20 DUP3 LT DUP2 SUB PUSH2 0x2B60 JUMPI PUSH4 0x4E487B71 PUSH1 0xE0 SHL PUSH1 0x0 MSTORE PUSH1 0x22 PUSH1 0x4 MSTORE PUSH1 0x24 PUSH1 0x0 REVERT JUMPDEST POP SWAP2 SWAP1 POP JUMP JUMPDEST PUSH1 0x0 DUP3 MLOAD PUSH2 0x2B78 DUP2 DUP5 PUSH1 0x20 DUP8 ADD PUSH2 0x25E1 JUMP JUMPDEST SWAP2 SWAP1 SWAP2 ADD SWAP3 SWAP2 POP POP JUMP JUMPDEST PUSH4 0x4E487B71 PUSH1 0xE0 SHL PUSH1 0x0 MSTORE PUSH1 0x11 PUSH1 0x4 MSTORE PUSH1 0x24 PUSH1 0x0 REVERT JUMPDEST DUP2 DUP2 SUB DUP2 DUP2 GT ISZERO PUSH2 0x4B9 JUMPI PUSH2 0x4B9 PUSH2 0x2B82 JUMP JUMPDEST DUP1 DUP3 ADD DUP1 DUP3 GT ISZERO PUSH2 0x4B9 JUMPI PUSH2 0x4B9 PUSH2 0x2B82 JUMP JUMPDEST DUP1 DUP3 MUL DUP2 ISZERO DUP3 DUP3 DIV DUP5 EQ OR PUSH2 0x4B9 JUMPI PUSH2 0x4B9 PUSH2 0x2B82 JUMP JUMPDEST PUSH1 0x0 DUP3 PUSH2 0x2BF2 JUMPI PUSH4 0x4E487B71 PUSH1 0xE0 SHL PUSH1 0x0 MSTORE PUSH1 0x12 PUSH1 0x4 MSTORE PUSH1 0x24 PUSH1 0x0 REVERT JUMPDEST POP DIV SWAP1 JUMP JUMPDEST PUSH1 0x0 DUP2 SLOAD PUSH2 0x2C04 DUP2 PUSH2 0x2B2C JUMP JUMPDEST PUSH1 0x1 DUP3 DUP2 AND DUP1 ISZERO PUSH2 0x2C1C JUMPI PUSH1 0x1 DUP2 EQ PUSH2 0x2C31 JUMPI PUSH2 0x2C60 JUMP JUMPDEST PUSH1 0xFF NOT DUP5 AND DUP8 MSTORE DUP3 ISZERO ISZERO DUP4 MUL DUP8 ADD SWAP5 POP PUSH2 0x2C60 JUMP JUMPDEST DUP6 PUSH1 0x0 MSTORE PUSH1 0x20 DUP1 PUSH1 0x0 KECCAK256 PUSH1 0x0 JUMPDEST DUP6 DUP2 LT ISZERO PUSH2 0x2C57 JUMPI DUP2 SLOAD DUP11 DUP3 ADD MSTORE SWAP1 DUP5 ADD SWAP1 DUP3 ADD PUSH2 0x2C3E JUMP JUMPDEST POP POP POP DUP3 DUP8 ADD SWAP5 POP JUMPDEST POP POP POP POP SWAP3 SWAP2 POP POP JUMP JUMPDEST PUSH1 0x0 PUSH2 0x2008 DUP3 DUP5 PUSH2 0x2BF7 JUMP JUMPDEST PUSH1 0x1F DUP3 GT ISZERO PUSH2 0xC92 JUMPI PUSH1 0x0 DUP2 PUSH1 0x0 MSTORE PUSH1 0x20 PUSH1 0x0 KECCAK256 PUSH1 0x1F DUP6 ADD PUSH1 0x5 SHR DUP2 ADD PUSH1 0x20 DUP7 LT ISZERO PUSH2 0x2C9F JUMPI POP DUP1 JUMPDEST PUSH1 0x1F DUP6 ADD PUSH1 0x5 SHR DUP3 ADD SWAP2 POP JUMPDEST DUP2 DUP2 LT ISZERO PUSH2 0x2CBE JUMPI DUP3 DUP2 SSTORE PUSH1 0x1 ADD PUSH2 0x2CAB JUMP JUMPDEST POP POP POP POP POP POP JUMP JUMPDEST DUP2 MLOAD PUSH8 0xFFFFFFFFFFFFFFFF DUP2 GT ISZERO PUSH2 0x2CE0 JUMPI PUSH2 0x2CE0 PUSH2 0x269E JUMP JUMPDEST PUSH2 0x2CF4 DUP2 PUSH2 0x2CEE DUP5 SLOAD PUSH2 0x2B2C JUMP JUMPDEST DUP5 PUSH2 0x2C76 JUMP JUMPDEST PUSH1 0x20 DUP1 PUSH1 0x1F DUP4 GT PUSH1 0x1 DUP2 EQ PUSH2 0x2D29 JUMPI PUSH1 0x0 DUP5 ISZERO PUSH2 0x2D11 JUMPI POP DUP6 DUP4 ADD MLOAD JUMPDEST PUSH1 0x0 NOT PUSH1 0x3 DUP7 SWAP1 SHL SHR NOT AND PUSH1 0x1 DUP6 SWAP1 SHL OR DUP6 SSTORE PUSH2 0x2CBE JUMP JUMPDEST PUSH1 0x0 DUP6 DUP2 MSTORE PUSH1 0x20 DUP2 KECCAK256 PUSH1 0x1F NOT DUP7 AND SWAP2 JUMPDEST DUP3 DUP2 LT ISZERO PUSH2 0x2D58 JUMPI DUP9 DUP7 ADD MLOAD DUP3 SSTORE SWAP5 DUP5 ADD SWAP5 PUSH1 0x1 SWAP1 SWAP2 ADD SWAP1 DUP5 ADD PUSH2 0x2D39 JUMP JUMPDEST POP DUP6 DUP3 LT ISZERO PUSH2 0x2D76 JUMPI DUP8 DUP6 ADD MLOAD PUSH1 0x0 NOT PUSH1 0x3 DUP9 SWAP1 SHL PUSH1 0xF8 AND SHR NOT AND DUP2 SSTORE JUMPDEST POP POP POP POP POP PUSH1 0x1 SWAP1 DUP2 SHL ADD SWAP1 SSTORE POP JUMP JUMPDEST PUSH1 0x0 DUP4 MLOAD PUSH2 0x2D98 DUP2 DUP5 PUSH1 0x20 DUP9 ADD PUSH2 0x25E1 JUMP JUMPDEST DUP4 MLOAD SWAP1 DUP4 ADD SWAP1 PUSH2 0x2DAC DUP2 DUP4 PUSH1 0x20 DUP9 ADD PUSH2 0x25E1 JUMP JUMPDEST ADD SWAP5 SWAP4 POP POP POP POP JUMP JUMPDEST PUSH1 0x0 PUSH1 0x1 DUP3 ADD PUSH2 0x2DC7 JUMPI PUSH2 0x2DC7 PUSH2 0x2B82 JUMP JUMPDEST POP PUSH1 0x1 ADD SWAP1 JUMP JUMPDEST PUSH1 0x0 PUSH1 0x1 PUSH1 0x1 PUSH1 0xA0 SHL SUB DUP1 DUP8 AND DUP4 MSTORE DUP1 DUP7 AND PUSH1 0x20 DUP5 ADD MSTORE POP DUP4 PUSH1 0x40 DUP4 ADD MSTORE PUSH1 0x80 PUSH1 0x60 DUP4 ADD MSTORE PUSH2 0x2E00 PUSH1 0x80 DUP4 ADD DUP5 PUSH2 0x2605 JUMP JUMPDEST SWAP7 SWAP6 POP POP POP POP POP POP JUMP JUMPDEST PUSH1 0x0 PUSH1 0x20 DUP3 DUP5 SUB SLT ISZERO PUSH2 0x2E1C JUMPI PUSH1 0x0 DUP1 REVERT JUMPDEST DUP2 MLOAD PUSH2 0x2008 DUP2 PUSH2 0x25AE JUMP INVALID LOG2 PUSH5 0x6970667358 0x22 SLT KECCAK256 PUSH24 0xFA52D8ED7964131857B3F8176C348A28E9B053623F224D3C PUSH25 0xE96634F183A764736F6C634300081800330000000000000000 "
        },
        "methodIdentifiers": {
          "addDeal(string,uint256,uint256,uint256,uint256,uint256,uint256,address)": "96f92cda",
          "addInvestment(address,string,uint256)": "e0e06210",
          "approve(address,uint256)": "095ea7b3",
          "balanceOf(address)": "70a08231",
          "dealStartApproval(string,bool)": "180bbc17",
          "deals(string)": "a0a57dac",
          "getApproved(uint256)": "081812fc",
          "investments(uint256)": "fd345c8a",
          "isApprovedForAll(address,address)": "e985e9c5",
          "mintNFT(address,string)": "eacabe14",
          "name()": "06fdde03",
          "ownerOf(uint256)": "6352211e",
          "revertInvestment(uint256)": "bd330d7b",
          "safeTransferFrom(address,address,uint256)": "42842e0e",
          "safeTransferFrom(address,address,uint256,bytes)": "b88d4fde",
          "setApprovalForAll(address,bool)": "a22cb465",
          "supportsInterface(bytes4)": "01ffc9a7",
          "symbol()": "95d89b41",
          "tokenURI(uint256)": "c87b56dd",
          "transferAllBackPerDeal(string)": "26b3c5f9",
          "transferFrom(address,address,uint256)": "23b872dd",
          "transferNFT(address,bool,uint256)": "a0d836f1"
        }
      }
    }
  }
}