{
  "_format": "hh-sol-artifact-1",
  "contractName": "MyNFT",
  "sourceName": "contracts/MyNFT.sol",
  "abi": [
    {
      "inputs": [],
      "stateMutability": "nonpayable",
      "type": "constructor"
    },
    {
      "inputs": [
        {
          "internalType": "address",
          "name": "sender",
          "type": "address"
        },
        {
          "internalType": "uint256",
          "name": "tokenId",
          "type": "uint256"
        },
        {
          "internalType": "address",
          "name": "owner",
          "type": "address"
        }
      ],
      "name": "ERC721IncorrectOwner",
      "type": "error"
    },
    {
      "inputs": [
        {
          "internalType": "address",
          "name": "operator",
          "type": "address"
        },
        {
          "internalType": "uint256",
          "name": "tokenId",
          "type": "uint256"
        }
      ],
      "name": "ERC721InsufficientApproval",
      "type": "error"
    },
    {
      "inputs": [
        {
          "internalType": "address",
          "name": "approver",
          "type": "address"
        }
      ],
      "name": "ERC721InvalidApprover",
      "type": "error"
    },
    {
      "inputs": [
        {
          "internalType": "address",
          "name": "operator",
          "type": "address"
        }
      ],
      "name": "ERC721InvalidOperator",
      "type": "error"
    },
    {
      "inputs": [
        {
          "internalType": "address",
          "name": "owner",
          "type": "address"
        }
      ],
      "name": "ERC721InvalidOwner",
      "type": "error"
    },
    {
      "inputs": [
        {
          "internalType": "address",
          "name": "receiver",
          "type": "address"
        }
      ],
      "name": "ERC721InvalidReceiver",
      "type": "error"
    },
    {
      "inputs": [
        {
          "internalType": "address",
          "name": "sender",
          "type": "address"
        }
      ],
      "name": "ERC721InvalidSender",
      "type": "error"
    },
    {
      "inputs": [
        {
          "internalType": "uint256",
          "name": "tokenId",
          "type": "uint256"
        }
      ],
      "name": "ERC721NonexistentToken",
      "type": "error"
    },
    {
      "anonymous": false,
      "inputs": [
        {
          "indexed": true,
          "internalType": "address",
          "name": "owner",
          "type": "address"
        },
        {
          "indexed": true,
          "internalType": "address",
          "name": "approved",
          "type": "address"
        },
        {
          "indexed": true,
          "internalType": "uint256",
          "name": "tokenId",
          "type": "uint256"
        }
      ],
      "name": "Approval",
      "type": "event"
    },
    {
      "anonymous": false,
      "inputs": [
        {
          "indexed": true,
          "internalType": "address",
          "name": "owner",
          "type": "address"
        },
        {
          "indexed": true,
          "internalType": "address",
          "name": "operator",
          "type": "address"
        },
        {
          "indexed": false,
          "internalType": "bool",
          "name": "approved",
          "type": "bool"
        }
      ],
      "name": "ApprovalForAll",
      "type": "event"
    },
    {
      "anonymous": false,
      "inputs": [
        {
          "indexed": false,
          "internalType": "uint256",
          "name": "_fromTokenId",
          "type": "uint256"
        },
        {
          "indexed": false,
          "internalType": "uint256",
          "name": "_toTokenId",
          "type": "uint256"
        }
      ],
      "name": "BatchMetadataUpdate",
      "type": "event"
    },
    {
      "anonymous": false,
      "inputs": [
        {
          "indexed": false,
          "internalType": "uint256",
          "name": "_tokenId",
          "type": "uint256"
        }
      ],
      "name": "MetadataUpdate",
      "type": "event"
    },
    {
      "anonymous": false,
      "inputs": [
        {
          "indexed": true,
          "internalType": "uint256",
          "name": "_id",
          "type": "uint256"
        }
      ],
      "name": "NFTMinted",
      "type": "event"
    },
    {
      "anonymous": false,
      "inputs": [
        {
          "indexed": true,
          "internalType": "address",
          "name": "from",
          "type": "address"
        },
        {
          "indexed": true,
          "internalType": "address",
          "name": "to",
          "type": "address"
        },
        {
          "indexed": true,
          "internalType": "uint256",
          "name": "tokenId",
          "type": "uint256"
        }
      ],
      "name": "Transfer",
      "type": "event"
    },
    {
      "inputs": [
        {
          "internalType": "address",
          "name": "to",
          "type": "address"
        },
        {
          "internalType": "uint256",
          "name": "tokenId",
          "type": "uint256"
        }
      ],
      "name": "approve",
      "outputs": [],
      "stateMutability": "nonpayable",
      "type": "function"
    },
    {
      "inputs": [
        {
          "internalType": "address",
          "name": "owner",
          "type": "address"
        }
      ],
      "name": "balanceOf",
      "outputs": [
        {
          "internalType": "uint256",
          "name": "",
          "type": "uint256"
        }
      ],
      "stateMutability": "view",
      "type": "function"
    },
    {
      "inputs": [
        {
          "internalType": "uint256",
          "name": "tokenId",
          "type": "uint256"
        }
      ],
      "name": "getApproved",
      "outputs": [
        {
          "internalType": "address",
          "name": "",
          "type": "address"
        }
      ],
      "stateMutability": "view",
      "type": "function"
    },
    {
      "inputs": [
        {
          "internalType": "address",
          "name": "owner",
          "type": "address"
        },
        {
          "internalType": "address",
          "name": "operator",
          "type": "address"
        }
      ],
      "name": "isApprovedForAll",
      "outputs": [
        {
          "internalType": "bool",
          "name": "",
          "type": "bool"
        }
      ],
      "stateMutability": "view",
      "type": "function"
    },
    {
      "inputs": [
        {
          "internalType": "address payable",
          "name": "recipient",
          "type": "address"
        },
        {
          "internalType": "string",
          "name": "tokenURI",
          "type": "string"
        }
      ],
      "name": "mintNFT",
      "outputs": [
        {
          "internalType": "uint256",
          "name": "",
          "type": "uint256"
        }
      ],
      "stateMutability": "nonpayable",
      "type": "function"
    },
    {
      "inputs": [],
      "name": "name",
      "outputs": [
        {
          "internalType": "string",
          "name": "",
          "type": "string"
        }
      ],
      "stateMutability": "view",
      "type": "function"
    },
    {
      "inputs": [
        {
          "internalType": "uint256",
          "name": "tokenId",
          "type": "uint256"
        }
      ],
      "name": "ownerOf",
      "outputs": [
        {
          "internalType": "address",
          "name": "",
          "type": "address"
        }
      ],
      "stateMutability": "view",
      "type": "function"
    },
    {
      "inputs": [
        {
          "internalType": "address",
          "name": "from",
          "type": "address"
        },
        {
          "internalType": "address",
          "name": "to",
          "type": "address"
        },
        {
          "internalType": "uint256",
          "name": "tokenId",
          "type": "uint256"
        }
      ],
      "name": "safeTransferFrom",
      "outputs": [],
      "stateMutability": "nonpayable",
      "type": "function"
    },
    {
      "inputs": [
        {
          "internalType": "address",
          "name": "from",
          "type": "address"
        },
        {
          "internalType": "address",
          "name": "to",
          "type": "address"
        },
        {
          "internalType": "uint256",
          "name": "tokenId",
          "type": "uint256"
        },
        {
          "internalType": "bytes",
          "name": "data",
          "type": "bytes"
        }
      ],
      "name": "safeTransferFrom",
      "outputs": [],
      "stateMutability": "nonpayable",
      "type": "function"
    },
    {
      "inputs": [
        {
          "internalType": "address",
          "name": "operator",
          "type": "address"
        },
        {
          "internalType": "bool",
          "name": "approved",
          "type": "bool"
        }
      ],
      "name": "setApprovalForAll",
      "outputs": [],
      "stateMutability": "nonpayable",
      "type": "function"
    },
    {
      "inputs": [
        {
          "internalType": "bytes4",
          "name": "interfaceId",
          "type": "bytes4"
        }
      ],
      "name": "supportsInterface",
      "outputs": [
        {
          "internalType": "bool",
          "name": "",
          "type": "bool"
        }
      ],
      "stateMutability": "view",
      "type": "function"
    },
    {
      "inputs": [],
      "name": "symbol",
      "outputs": [
        {
          "internalType": "string",
          "name": "",
          "type": "string"
        }
      ],
      "stateMutability": "view",
      "type": "function"
    },
    {
      "inputs": [
        {
          "internalType": "uint256",
          "name": "tokenId",
          "type": "uint256"
        }
      ],
      "name": "tokenURI",
      "outputs": [
        {
          "internalType": "string",
          "name": "",
          "type": "string"
        }
      ],
      "stateMutability": "view",
      "type": "function"
    },
    {
      "inputs": [
        {
          "internalType": "address",
          "name": "from",
          "type": "address"
        },
        {
          "internalType": "address",
          "name": "to",
          "type": "address"
        },
        {
          "internalType": "uint256",
          "name": "tokenId",
          "type": "uint256"
        }
      ],
      "name": "transferFrom",
      "outputs": [],
      "stateMutability": "nonpayable",
      "type": "function"
    },
    {
      "inputs": [
        {
          "internalType": "address",
          "name": "actor",
          "type": "address"
        },
        {
          "internalType": "bool",
          "name": "toSend",
          "type": "bool"
        },
        {
          "internalType": "uint256",
          "name": "tokenID",
          "type": "uint256"
        }
      ],
      "name": "transferNFT",
      "outputs": [],
      "stateMutability": "nonpayable",
      "type": "function"
    }
  ],
  "bytecode": "0x60806040523480156200001157600080fd5b5060405180604001604052806005815260200164135e53919560da1b815250604051806040016040528060048152602001631353919560e21b81525081600090816200005e91906200012f565b5060016200006d82826200012f565b5050600880546001600160a01b0319163317905550620001fb565b634e487b7160e01b600052604160045260246000fd5b600181811c90821680620000b357607f821691505b602082108103620000d457634e487b7160e01b600052602260045260246000fd5b50919050565b601f8211156200012a576000816000526020600020601f850160051c81016020861015620001055750805b601f850160051c820191505b81811015620001265782815560010162000111565b5050505b505050565b81516001600160401b038111156200014b576200014b62000088565b62000163816200015c84546200009e565b84620000da565b602080601f8311600181146200019b5760008415620001825750858301515b600019600386901b1c1916600185901b17855562000126565b600085815260208120601f198616915b82811015620001cc57888601518255948401946001909101908401620001ab565b5085821015620001eb5787850151600019600388901b60f8161c191681555b5050505050600190811b01905550565b611689806200020b6000396000f3fe608060405234801561001057600080fd5b50600436106100f55760003560e01c806370a0823111610097578063b88d4fde11610066578063b88d4fde146101ff578063c87b56dd14610212578063e985e9c514610225578063eacabe141461026157600080fd5b806370a08231146101b057806395d89b41146101d1578063a0d836f1146101d9578063a22cb465146101ec57600080fd5b8063095ea7b3116100d3578063095ea7b31461016257806323b872dd1461017757806342842e0e1461018a5780636352211e1461019d57600080fd5b806301ffc9a7146100fa57806306fdde0314610122578063081812fc14610137575b600080fd5b61010d6101083660046110f7565b610274565b60405190151581526020015b60405180910390f35b61012a6102b8565b6040516101199190611164565b61014a610145366004611177565b61034a565b6040516001600160a01b039091168152602001610119565b6101756101703660046111a5565b610373565b005b6101756101853660046111d1565b610382565b6101756101983660046111d1565b610412565b61014a6101ab366004611177565b610432565b6101c36101be366004611212565b61043d565b604051908152602001610119565b61012a61049e565b6101756101e7366004611244565b6104ad565b6101756101fa366004611282565b6105a0565b61017561020d366004611343565b6105ab565b61012a610220366004611177565b6105c2565b61010d6102333660046113c3565b6001600160a01b03918216600090815260056020908152604080832093909416825291909152205460ff1690565b6101c361026f3660046113fc565b6106d3565b60006001600160e01b031982167f490649060000000000000000000000000000000000000000000000000000000014806102b257506102b282610737565b92915050565b6060600080546102c790611460565b80601f01602080910402602001604051908101604052809291908181526020018280546102f390611460565b80156103405780601f1061031557610100808354040283529160200191610340565b820191906000526020600020905b81548152906001019060200180831161032357829003601f168201915b5050505050905090565b6000610355826107d2565b506000828152600460205260409020546001600160a01b03166102b2565b61037e82823361080b565b5050565b6001600160a01b0382166103b157604051633250574960e11b8152600060048201526024015b60405180910390fd5b60006103be838333610818565b9050836001600160a01b0316816001600160a01b03161461040c576040516364283d7b60e01b81526001600160a01b03808616600483015260248201849052821660448201526064016103a8565b50505050565b61042d838383604051806020016040528060008152506105ab565b505050565b60006102b2826107d2565b60006001600160a01b038216610482576040517f89c62b64000000000000000000000000000000000000000000000000000000008152600060048201526024016103a8565b506001600160a01b031660009081526003602052604090205490565b6060600180546102c790611460565b6000826104c5576008546001600160a01b03166104c7565b835b90506000836104d657846104e3565b6008546001600160a01b03165b9050816001600160a01b03166104f8846107d2565b6001600160a01b03161461058e576040517f08c379a000000000000000000000000000000000000000000000000000000000815260206004820152602a60248201527f53656e646572206d75737420626520746865206f776e6572206f66207468617460448201527f2042696c6c284e4654290000000000000000000000000000000000000000000060648201526084016103a8565b61059982828561091e565b5050505050565b61037e338383610939565b6105b6848484610382565b61040c848484846109f1565b60606105cd826107d2565b50600082815260066020526040812080546105e790611460565b80601f016020809104026020016040519081016040528092919081815260200182805461061390611460565b80156106605780601f1061063557610100808354040283529160200191610660565b820191906000526020600020905b81548152906001019060200180831161064357829003601f168201915b50505050509050600061067e60408051602081019091526000815290565b90508051600003610690575092915050565b8151156106c25780826040516020016106aa92919061149a565b60405160208183030381529060405292505050919050565b6106cb84610b13565b949350505050565b6007546000906106e38482610b88565b6106ed8184610c06565b60016007600082825461070091906114c9565b909155505060405181907fd9dc24857f317ed9abbbb42e920ede0104231eb1d3d70236a74887ffaf15986890600090a29392505050565b60006001600160e01b031982167f80ac58cd00000000000000000000000000000000000000000000000000000000148061079a57506001600160e01b031982167f5b5e139f00000000000000000000000000000000000000000000000000000000145b806102b257507f01ffc9a7000000000000000000000000000000000000000000000000000000006001600160e01b03198316146102b2565b6000818152600260205260408120546001600160a01b0316806102b257604051637e27328960e01b8152600481018490526024016103a8565b61042d8383836001610c56565b6000828152600260205260408120546001600160a01b039081169083161561084557610845818486610da1565b6001600160a01b0381161561088357610862600085600080610c56565b6001600160a01b038116600090815260036020526040902080546000190190555b6001600160a01b038516156108b2576001600160a01b0385166000908152600360205260409020805460010190555b600084815260026020526040808220805473ffffffffffffffffffffffffffffffffffffffff19166001600160a01b0389811691821790925591518793918516917fddf252ad1be2c89b69c2b068fc378daa952ba7f163c4a11628f55a4df523b3ef91a4949350505050565b61042d83838360405180602001604052806000815250610e1e565b6001600160a01b038216610984576040517f5b08ba180000000000000000000000000000000000000000000000000000000081526001600160a01b03831660048201526024016103a8565b6001600160a01b03838116600081815260056020908152604080832094871680845294825291829020805460ff191686151590811790915591519182527f17307eab39ab6107e8899845ad3d59bd9653f200f220920489ca2b5937696c31910160405180910390a3505050565b6001600160a01b0383163b1561040c57604051630a85bd0160e11b81526001600160a01b0384169063150b7a0290610a339033908890879087906004016114ea565b6020604051808303816000875af1925050508015610a6e575060408051601f3d908101601f19168201909252610a6b91810190611526565b60015b610ad7573d808015610a9c576040519150601f19603f3d011682016040523d82523d6000602084013e610aa1565b606091505b508051600003610acf57604051633250574960e11b81526001600160a01b03851660048201526024016103a8565b805181602001fd5b6001600160e01b03198116630a85bd0160e11b1461059957604051633250574960e11b81526001600160a01b03851660048201526024016103a8565b6060610b1e826107d2565b506000610b3660408051602081019091526000815290565b90506000815111610b565760405180602001604052806000815250610b81565b80610b6084610e29565b604051602001610b7192919061149a565b6040516020818303038152906040525b9392505050565b6001600160a01b038216610bb257604051633250574960e11b8152600060048201526024016103a8565b6000610bc083836000610818565b90506001600160a01b0381161561042d576040517f73c6ac6e000000000000000000000000000000000000000000000000000000008152600060048201526024016103a8565b6000828152600660205260409020610c1e8282611593565b506040518281527ff8e1a15aba9398e019f0b49df1a4fde98ee17ae345cb5f6b5e2c27f5033e8ce79060200160405180910390a15050565b8080610c6a57506001600160a01b03821615155b15610d64576000610c7a846107d2565b90506001600160a01b03831615801590610ca65750826001600160a01b0316816001600160a01b031614155b8015610cd857506001600160a01b0380821660009081526005602090815260408083209387168352929052205460ff16155b15610d1a576040517fa9fbf51f0000000000000000000000000000000000000000000000000000000081526001600160a01b03841660048201526024016103a8565b8115610d625783856001600160a01b0316826001600160a01b03167f8c5be1e5ebec7d5bd14f71427d1e84f3dd0314c0f7b2291e5b200ac8c7c3b92560405160405180910390a45b505b50506000908152600460205260409020805473ffffffffffffffffffffffffffffffffffffffff19166001600160a01b0392909216919091179055565b610dac838383610ec9565b61042d576001600160a01b038316610dda57604051637e27328960e01b8152600481018290526024016103a8565b6040517f177e802f0000000000000000000000000000000000000000000000000000000081526001600160a01b0383166004820152602481018290526044016103a8565b6105b6848484610f4c565b60606000610e3683610ffc565b600101905060008167ffffffffffffffff811115610e5657610e566112b7565b6040519080825280601f01601f191660200182016040528015610e80576020820181803683370190505b5090508181016020015b600019017f3031323334353637383961626364656600000000000000000000000000000000600a86061a8153600a8504945084610e8a57509392505050565b60006001600160a01b038316158015906106cb5750826001600160a01b0316846001600160a01b03161480610f2357506001600160a01b0380851660009081526005602090815260408083209387168352929052205460ff165b806106cb5750506000908152600460205260409020546001600160a01b03908116911614919050565b6001600160a01b038216610f7657604051633250574960e11b8152600060048201526024016103a8565b6000610f8483836000610818565b90506001600160a01b038116610fb057604051637e27328960e01b8152600481018390526024016103a8565b836001600160a01b0316816001600160a01b03161461040c576040516364283d7b60e01b81526001600160a01b03808616600483015260248201849052821660448201526064016103a8565b6000807a184f03e93ff9f4daa797ed6e38ed64bf6a1f0100000000000000008310611045577a184f03e93ff9f4daa797ed6e38ed64bf6a1f010000000000000000830492506040015b6d04ee2d6d415b85acef81000000008310611071576d04ee2d6d415b85acef8100000000830492506020015b662386f26fc10000831061108f57662386f26fc10000830492506010015b6305f5e10083106110a7576305f5e100830492506008015b61271083106110bb57612710830492506004015b606483106110cd576064830492506002015b600a83106102b25760010192915050565b6001600160e01b0319811681146110f457600080fd5b50565b60006020828403121561110957600080fd5b8135610b81816110de565b60005b8381101561112f578181015183820152602001611117565b50506000910152565b60008151808452611150816020860160208601611114565b601f01601f19169290920160200192915050565b602081526000610b816020830184611138565b60006020828403121561118957600080fd5b5035919050565b6001600160a01b03811681146110f457600080fd5b600080604083850312156111b857600080fd5b82356111c381611190565b946020939093013593505050565b6000806000606084860312156111e657600080fd5b83356111f181611190565b9250602084013561120181611190565b929592945050506040919091013590565b60006020828403121561122457600080fd5b8135610b8181611190565b8035801515811461123f57600080fd5b919050565b60008060006060848603121561125957600080fd5b833561126481611190565b92506112726020850161122f565b9150604084013590509250925092565b6000806040838503121561129557600080fd5b82356112a081611190565b91506112ae6020840161122f565b90509250929050565b634e487b7160e01b600052604160045260246000fd5b600067ffffffffffffffff808411156112e8576112e86112b7565b604051601f8501601f19908116603f01168101908282118183101715611310576113106112b7565b8160405280935085815286868601111561132957600080fd5b858560208301376000602087830101525050509392505050565b6000806000806080858703121561135957600080fd5b843561136481611190565b9350602085013561137481611190565b925060408501359150606085013567ffffffffffffffff81111561139757600080fd5b8501601f810187136113a857600080fd5b6113b7878235602084016112cd565b91505092959194509250565b600080604083850312156113d657600080fd5b82356113e181611190565b915060208301356113f181611190565b809150509250929050565b6000806040838503121561140f57600080fd5b823561141a81611190565b9150602083013567ffffffffffffffff81111561143657600080fd5b8301601f8101851361144757600080fd5b611456858235602084016112cd565b9150509250929050565b600181811c9082168061147457607f821691505b60208210810361149457634e487b7160e01b600052602260045260246000fd5b50919050565b600083516114ac818460208801611114565b8351908301906114c0818360208801611114565b01949350505050565b808201808211156102b257634e487b7160e01b600052601160045260246000fd5b60006001600160a01b0380871683528086166020840152508360408301526080606083015261151c6080830184611138565b9695505050505050565b60006020828403121561153857600080fd5b8151610b81816110de565b601f82111561042d576000816000526020600020601f850160051c8101602086101561156c5750805b601f850160051c820191505b8181101561158b57828155600101611578565b505050505050565b815167ffffffffffffffff8111156115ad576115ad6112b7565b6115c1816115bb8454611460565b84611543565b602080601f8311600181146115f657600084156115de5750858301515b600019600386901b1c1916600185901b17855561158b565b600085815260208120601f198616915b8281101561162557888601518255948401946001909101908401611606565b50858210156116435787850151600019600388901b60f8161c191681555b5050505050600190811b0190555056fea2646970667358221220c4c651a0c614a4e48cbd00b7be471fb7cc48a8aff479f8c00d7779f6fa4e8e6f64736f6c63430008180033",
  "linkReferences": {},
  "deployedLinkReferences": {}
}