{
  "_format": "hh-sol-artifact-1",
  "contractName": "PUMA",
  "sourceName": "contracts/PUMA.sol",
  "abi": [
    {
      "inputs": [],
      "stateMutability": "nonpayable",
      "type": "constructor"
    },
    {
      "inputs": [
        {
          "internalType": "address",
          "name": "sender",
          "type": "address"
        },
        {
          "internalType": "uint256",
          "name": "tokenId",
          "type": "uint256"
        },
        {
          "internalType": "address",
          "name": "owner",
          "type": "address"
        }
      ],
      "name": "ERC721IncorrectOwner",
      "type": "error"
    },
    {
      "inputs": [
        {
          "internalType": "address",
          "name": "operator",
          "type": "address"
        },
        {
          "internalType": "uint256",
          "name": "tokenId",
          "type": "uint256"
        }
      ],
      "name": "ERC721InsufficientApproval",
      "type": "error"
    },
    {
      "inputs": [
        {
          "internalType": "address",
          "name": "approver",
          "type": "address"
        }
      ],
      "name": "ERC721InvalidApprover",
      "type": "error"
    },
    {
      "inputs": [
        {
          "internalType": "address",
          "name": "operator",
          "type": "address"
        }
      ],
      "name": "ERC721InvalidOperator",
      "type": "error"
    },
    {
      "inputs": [
        {
          "internalType": "address",
          "name": "owner",
          "type": "address"
        }
      ],
      "name": "ERC721InvalidOwner",
      "type": "error"
    },
    {
      "inputs": [
        {
          "internalType": "address",
          "name": "receiver",
          "type": "address"
        }
      ],
      "name": "ERC721InvalidReceiver",
      "type": "error"
    },
    {
      "inputs": [
        {
          "internalType": "address",
          "name": "sender",
          "type": "address"
        }
      ],
      "name": "ERC721InvalidSender",
      "type": "error"
    },
    {
      "inputs": [
        {
          "internalType": "uint256",
          "name": "tokenId",
          "type": "uint256"
        }
      ],
      "name": "ERC721NonexistentToken",
      "type": "error"
    },
    {
      "anonymous": false,
      "inputs": [
        {
          "indexed": true,
          "internalType": "address",
          "name": "owner",
          "type": "address"
        },
        {
          "indexed": true,
          "internalType": "address",
          "name": "approved",
          "type": "address"
        },
        {
          "indexed": true,
          "internalType": "uint256",
          "name": "tokenId",
          "type": "uint256"
        }
      ],
      "name": "Approval",
      "type": "event"
    },
    {
      "anonymous": false,
      "inputs": [
        {
          "indexed": true,
          "internalType": "address",
          "name": "owner",
          "type": "address"
        },
        {
          "indexed": true,
          "internalType": "address",
          "name": "operator",
          "type": "address"
        },
        {
          "indexed": false,
          "internalType": "bool",
          "name": "approved",
          "type": "bool"
        }
      ],
      "name": "ApprovalForAll",
      "type": "event"
    },
    {
      "anonymous": false,
      "inputs": [
        {
          "indexed": false,
          "internalType": "uint256",
          "name": "_fromTokenId",
          "type": "uint256"
        },
        {
          "indexed": false,
          "internalType": "uint256",
          "name": "_toTokenId",
          "type": "uint256"
        }
      ],
      "name": "BatchMetadataUpdate",
      "type": "event"
    },
    {
      "anonymous": false,
      "inputs": [
        {
          "indexed": false,
          "internalType": "uint256",
          "name": "_tokenId",
          "type": "uint256"
        }
      ],
      "name": "MetadataUpdate",
      "type": "event"
    },
    {
      "anonymous": false,
      "inputs": [
        {
          "indexed": true,
          "internalType": "address",
          "name": "from",
          "type": "address"
        },
        {
          "indexed": true,
          "internalType": "address",
          "name": "to",
          "type": "address"
        },
        {
          "indexed": true,
          "internalType": "uint256",
          "name": "tokenId",
          "type": "uint256"
        }
      ],
      "name": "Transfer",
      "type": "event"
    },
    {
      "inputs": [
        {
          "internalType": "string",
          "name": "_dealID",
          "type": "string"
        },
        {
          "internalType": "uint256",
          "name": "_minAmt",
          "type": "uint256"
        },
        {
          "internalType": "uint256",
          "name": "_targetAmt",
          "type": "uint256"
        },
        {
          "internalType": "uint256",
          "name": "_floatingEndTimestamp",
          "type": "uint256"
        },
        {
          "internalType": "uint256",
          "name": "_expirationTimestamp",
          "type": "uint256"
        },
        {
          "internalType": "uint256",
          "name": "_tokenID",
          "type": "uint256"
        },
        {
          "internalType": "uint256",
          "name": "_interestRate",
          "type": "uint256"
        },
        {
          "internalType": "address payable",
          "name": "_companyAddress",
          "type": "address"
        }
      ],
      "name": "addDeal",
      "outputs": [],
      "stateMutability": "payable",
      "type": "function"
    },
    {
      "inputs": [
        {
          "internalType": "address payable",
          "name": "_investorAddress",
          "type": "address"
        },
        {
          "internalType": "string",
          "name": "_dealID",
          "type": "string"
        },
        {
          "internalType": "uint256",
          "name": "amount",
          "type": "uint256"
        }
      ],
      "name": "addInvestment",
      "outputs": [
        {
          "internalType": "uint256",
          "name": "",
          "type": "uint256"
        }
      ],
      "stateMutability": "payable",
      "type": "function"
    },
    {
      "inputs": [
        {
          "internalType": "address",
          "name": "to",
          "type": "address"
        },
        {
          "internalType": "uint256",
          "name": "tokenId",
          "type": "uint256"
        }
      ],
      "name": "approve",
      "outputs": [],
      "stateMutability": "nonpayable",
      "type": "function"
    },
    {
      "inputs": [
        {
          "internalType": "address",
          "name": "owner",
          "type": "address"
        }
      ],
      "name": "balanceOf",
      "outputs": [
        {
          "internalType": "uint256",
          "name": "",
          "type": "uint256"
        }
      ],
      "stateMutability": "view",
      "type": "function"
    },
    {
      "inputs": [
        {
          "internalType": "string",
          "name": "dealID",
          "type": "string"
        },
        {
          "internalType": "bool",
          "name": "approved",
          "type": "bool"
        }
      ],
      "name": "dealStartApproval",
      "outputs": [],
      "stateMutability": "payable",
      "type": "function"
    },
    {
      "inputs": [
        {
          "internalType": "string",
          "name": "",
          "type": "string"
        }
      ],
      "name": "deals",
      "outputs": [
        {
          "internalType": "string",
          "name": "dealID",
          "type": "string"
        },
        {
          "internalType": "uint256",
          "name": "minAmt",
          "type": "uint256"
        },
        {
          "internalType": "uint256",
          "name": "amountRaised",
          "type": "uint256"
        },
        {
          "internalType": "uint256",
          "name": "targetAmt",
          "type": "uint256"
        },
        {
          "internalType": "uint256",
          "name": "floatingEndTimestamp",
          "type": "uint256"
        },
        {
          "internalType": "uint256",
          "name": "expirationTimestamp",
          "type": "uint256"
        },
        {
          "internalType": "uint256",
          "name": "tokenID",
          "type": "uint256"
        },
        {
          "internalType": "uint256",
          "name": "promisedInterestRate",
          "type": "uint256"
        },
        {
          "internalType": "uint256",
          "name": "interestRate",
          "type": "uint256"
        },
        {
          "internalType": "address payable",
          "name": "companyAddress",
          "type": "address"
        }
      ],
      "stateMutability": "view",
      "type": "function"
    },
    {
      "inputs": [
        {
          "internalType": "uint256",
          "name": "tokenId",
          "type": "uint256"
        }
      ],
      "name": "getApproved",
      "outputs": [
        {
          "internalType": "address",
          "name": "",
          "type": "address"
        }
      ],
      "stateMutability": "view",
      "type": "function"
    },
    {
      "inputs": [
        {
          "internalType": "uint256",
          "name": "",
          "type": "uint256"
        }
      ],
      "name": "investments",
      "outputs": [
        {
          "internalType": "address payable",
          "name": "investorAddress",
          "type": "address"
        },
        {
          "internalType": "uint256",
          "name": "amountInvested",
          "type": "uint256"
        },
        {
          "internalType": "string",
          "name": "dealID",
          "type": "string"
        }
      ],
      "stateMutability": "view",
      "type": "function"
    },
    {
      "inputs": [
        {
          "internalType": "address",
          "name": "owner",
          "type": "address"
        },
        {
          "internalType": "address",
          "name": "operator",
          "type": "address"
        }
      ],
      "name": "isApprovedForAll",
      "outputs": [
        {
          "internalType": "bool",
          "name": "",
          "type": "bool"
        }
      ],
      "stateMutability": "view",
      "type": "function"
    },
    {
      "inputs": [
        {
          "internalType": "address payable",
          "name": "recipient",
          "type": "address"
        },
        {
          "internalType": "string",
          "name": "tokenURI",
          "type": "string"
        }
      ],
      "name": "mintNFT",
      "outputs": [
        {
          "internalType": "uint256",
          "name": "",
          "type": "uint256"
        }
      ],
      "stateMutability": "nonpayable",
      "type": "function"
    },
    {
      "inputs": [],
      "name": "name",
      "outputs": [
        {
          "internalType": "string",
          "name": "",
          "type": "string"
        }
      ],
      "stateMutability": "view",
      "type": "function"
    },
    {
      "inputs": [
        {
          "internalType": "uint256",
          "name": "tokenId",
          "type": "uint256"
        }
      ],
      "name": "ownerOf",
      "outputs": [
        {
          "internalType": "address",
          "name": "",
          "type": "address"
        }
      ],
      "stateMutability": "view",
      "type": "function"
    },
    {
      "inputs": [
        {
          "internalType": "uint256",
          "name": "investmentID",
          "type": "uint256"
        }
      ],
      "name": "revertInvestment",
      "outputs": [],
      "stateMutability": "payable",
      "type": "function"
    },
    {
      "inputs": [
        {
          "internalType": "address",
          "name": "from",
          "type": "address"
        },
        {
          "internalType": "address",
          "name": "to",
          "type": "address"
        },
        {
          "internalType": "uint256",
          "name": "tokenId",
          "type": "uint256"
        }
      ],
      "name": "safeTransferFrom",
      "outputs": [],
      "stateMutability": "nonpayable",
      "type": "function"
    },
    {
      "inputs": [
        {
          "internalType": "address",
          "name": "from",
          "type": "address"
        },
        {
          "internalType": "address",
          "name": "to",
          "type": "address"
        },
        {
          "internalType": "uint256",
          "name": "tokenId",
          "type": "uint256"
        },
        {
          "internalType": "bytes",
          "name": "data",
          "type": "bytes"
        }
      ],
      "name": "safeTransferFrom",
      "outputs": [],
      "stateMutability": "nonpayable",
      "type": "function"
    },
    {
      "inputs": [
        {
          "internalType": "address",
          "name": "operator",
          "type": "address"
        },
        {
          "internalType": "bool",
          "name": "approved",
          "type": "bool"
        }
      ],
      "name": "setApprovalForAll",
      "outputs": [],
      "stateMutability": "nonpayable",
      "type": "function"
    },
    {
      "inputs": [
        {
          "internalType": "bytes4",
          "name": "interfaceId",
          "type": "bytes4"
        }
      ],
      "name": "supportsInterface",
      "outputs": [
        {
          "internalType": "bool",
          "name": "",
          "type": "bool"
        }
      ],
      "stateMutability": "view",
      "type": "function"
    },
    {
      "inputs": [],
      "name": "symbol",
      "outputs": [
        {
          "internalType": "string",
          "name": "",
          "type": "string"
        }
      ],
      "stateMutability": "view",
      "type": "function"
    },
    {
      "inputs": [
        {
          "internalType": "uint256",
          "name": "tokenId",
          "type": "uint256"
        }
      ],
      "name": "tokenURI",
      "outputs": [
        {
          "internalType": "string",
          "name": "",
          "type": "string"
        }
      ],
      "stateMutability": "view",
      "type": "function"
    },
    {
      "inputs": [
        {
          "internalType": "string",
          "name": "_dealID",
          "type": "string"
        }
      ],
      "name": "transferAllBackPerDeal",
      "outputs": [],
      "stateMutability": "payable",
      "type": "function"
    },
    {
      "inputs": [
        {
          "internalType": "address",
          "name": "from",
          "type": "address"
        },
        {
          "internalType": "address",
          "name": "to",
          "type": "address"
        },
        {
          "internalType": "uint256",
          "name": "tokenId",
          "type": "uint256"
        }
      ],
      "name": "transferFrom",
      "outputs": [],
      "stateMutability": "nonpayable",
      "type": "function"
    },
    {
      "inputs": [
        {
          "internalType": "address",
          "name": "actor",
          "type": "address"
        },
        {
          "internalType": "bool",
          "name": "willSend",
          "type": "bool"
        },
        {
          "internalType": "uint256",
          "name": "tokenID",
          "type": "uint256"
        }
      ],
      "name": "transferNFT",
      "outputs": [],
      "stateMutability": "nonpayable",
      "type": "function"
    }
  ],
  "bytecode": "0x60806040523480156200001157600080fd5b5060405180604001604052806005815260200164135e53919560da1b815250604051806040016040528060048152602001631353919560e21b81525081600090816200005e91906200012f565b5060016200006d82826200012f565b5050600980546001600160a01b0319163317905550620001fb565b634e487b7160e01b600052604160045260246000fd5b600181811c90821680620000b357607f821691505b602082108103620000d457634e487b7160e01b600052602260045260246000fd5b50919050565b601f8211156200012a576000816000526020600020601f850160051c81016020861015620001055750805b601f850160051c820191505b81811015620001265782815560010162000111565b5050505b505050565b81516001600160401b038111156200014b576200014b62000088565b62000163816200015c84546200009e565b84620000da565b602080601f8311600181146200019b5760008415620001825750858301515b600019600386901b1c1916600185901b17855562000126565b600085815260208120601f198616915b82811015620001cc57888601518255948401946001909101908401620001ab565b5085821015620001eb5787850151600019600388901b60f8161c191681555b5050505050600190811b01905550565b612e5d806200020b6000396000f3fe6080604052600436106101755760003560e01c806396f92cda116100cb578063bd330d7b1161007f578063e985e9c511610059578063e985e9c5146103e3578063eacabe141461042c578063fd345c8a1461044c57600080fd5b8063bd330d7b1461039d578063c87b56dd146103b0578063e0e06210146103d057600080fd5b8063a0d836f1116100b0578063a0d836f11461033d578063a22cb4651461035d578063b88d4fde1461037d57600080fd5b806396f92cda146102f4578063a0a57dac1461030757600080fd5b806323b872dd1161012d5780636352211e116101075780636352211e1461029157806370a08231146102b157806395d89b41146102df57600080fd5b806323b872dd1461023e57806326b3c5f91461025e57806342842e0e1461027157600080fd5b8063081812fc1161015e578063081812fc146101d1578063095ea7b314610209578063180bbc171461022b57600080fd5b806301ffc9a71461017a57806306fdde03146101af575b600080fd5b34801561018657600080fd5b5061019a6101953660046125c4565b61047b565b60405190151581526020015b60405180910390f35b3480156101bb57600080fd5b506101c46104bf565b6040516101a69190612631565b3480156101dd57600080fd5b506101f16101ec366004612644565b610551565b6040516001600160a01b0390911681526020016101a6565b34801561021557600080fd5b50610229610224366004612672565b61057a565b005b61022961023936600461275f565b610589565b34801561024a57600080fd5b506102296102593660046127ad565b6108a3565b61022961026c3660046127ee565b61092e565b34801561027d57600080fd5b5061022961028c3660046127ad565b610c97565b34801561029d57600080fd5b506101f16102ac366004612644565b610cb2565b3480156102bd57600080fd5b506102d16102cc366004612823565b610cbd565b6040519081526020016101a6565b3480156102eb57600080fd5b506101c4610d1e565b610229610302366004612840565b610d2d565b34801561031357600080fd5b506103276103223660046127ee565b611103565b6040516101a69a999897969594939291906128cc565b34801561034957600080fd5b5061022961035836600461292f565b6111f0565b34801561036957600080fd5b5061022961037836600461296d565b6112c9565b34801561038957600080fd5b50610229610398366004612999565b6112d4565b6102296103ab366004612644565b6112eb565b3480156103bc57600080fd5b506101c46103cb366004612644565b611594565b6102d16103de366004612a19565b6116a5565b3480156103ef57600080fd5b5061019a6103fe366004612a72565b6001600160a01b03918216600090815260056020908152604080832093909416825291909152205460ff1690565b34801561043857600080fd5b506102d1610447366004612aab565b611adc565b34801561045857600080fd5b5061046c610467366004612644565b611b16565b6040516101a693929190612afb565b60006001600160e01b031982167f490649060000000000000000000000000000000000000000000000000000000014806104b957506104b982611bcb565b92915050565b6060600080546104ce90612b2c565b80601f01602080910402602001604051908101604052809291908181526020018280546104fa90612b2c565b80156105475780601f1061051c57610100808354040283529160200191610547565b820191906000526020600020905b81548152906001019060200180831161052a57829003601f168201915b5050505050905090565b600061055c82611c66565b506000828152600460205260409020546001600160a01b03166104b9565b610585828233611c9f565b5050565b6009546001600160a01b031633146105f25760405162461bcd60e51b815260206004820152602160248201527f4f6e6c792061646d696e2063616e2063616c6c20746869732066756e6374696f6044820152603760f91b60648201526084015b60405180910390fd5b6000600a836040516106049190612b66565b908152602001604051809103902060030154116106635760405162461bcd60e51b815260206004820152601560248201527f4465616c20446f6573206e6f742065786973747321000000000000000000000060448201526064016105e9565b600a826040516106739190612b66565b908152602001604051809103902060030154600a836040516106959190612b66565b90815260200160405180910390206002015414806106b05750805b156107fd57600a826040516106c59190612b66565b908152604051908190036020019020600201546009546106ed906001600160a01b0316610cbd565b101561073b5760405162461bcd60e51b815260206004820152601360248201527f496e73756666696369656e742046756e6473210000000000000000000000000060448201526064016105e9565b600a8260405161074b9190612b66565b908152604051908190036020018120600901546001600160a01b0316906108fc90600a9061077a908690612b66565b90815260405190819003602001812060020154801590920291906000818181858888f193505050501580156107b3573d6000803e3d6000fd5b50600a826040516107c49190612b66565b908152602001604051809103902060070154600a836040516107e69190612b66565b908152604051908190036020019020600801555050565b600a8260405161080d9190612b66565b908152602001604051809103902060040154600a8360405161082f9190612b66565b9081526040519081900360200190206005015561084b8261092e565b610585600a8360405161085e9190612b66565b908152604051908190036020018120600901546001600160a01b031690600090600a9061088c908790612b66565b9081526020016040518091039020600601546111f0565b6001600160a01b0382166108cd57604051633250574960e11b8152600060048201526024016105e9565b60006108da838333611cac565b9050836001600160a01b0316816001600160a01b031614610928576040516364283d7b60e01b81526001600160a01b03808616600483015260248201849052821660448201526064016105e9565b50505050565b6009546001600160a01b031633146109925760405162461bcd60e51b815260206004820152602160248201527f4f6e6c792061646d696e2063616e2063616c6c20746869732066756e6374696f6044820152603760f91b60648201526084016105e9565b6000600a826040516109a49190612b66565b90815260200160405180910390206003015411610a035760405162461bcd60e51b815260206004820152601560248201527f4465616c20446f6573206e6f742065786973747321000000000000000000000060448201526064016105e9565b42600a82604051610a149190612b66565b9081526020016040518091039020600501541015610a9a5760405162461bcd60e51b815260206004820152602560248201527f43616e2774207472616e73666572206265666f7265206465616c20697320657860448201527f706972656400000000000000000000000000000000000000000000000000000060648201526084016105e9565b600063bbf81e00600a83604051610ab19190612b66565b908152602001604051809103902060040154600a84604051610ad39190612b66565b908152602001604051809103902060050154610aef9190612b98565b600a84604051610aff9190612b66565b9081526020016040518091039020600801546064610b1d9190612bab565b600a85604051610b2d9190612b66565b908152602001604051809103902060030154610b499190612bbe565b610b539190612bbe565b610b5d9190612bd5565b905080341015610baf5760405162461bcd60e51b815260206004820152601260248201527f496e73756666696369656e742066756e6473000000000000000000000000000060448201526064016105e9565b60015b600854811015610c92578280519060200120600b6000838152602001908152602001600020600201604051610be79190612c6a565b6040518091039020148015610c0c57506000818152600b602052604090206001015415155b15610c8a576000818152600b60205260408082205490516001600160a01b039091169184156108fc02918591818181858888f19350505050158015610c55573d6000803e3d6000fd5b506000818152600b6020526040812080546001600160a01b03191681556001810182905590610c876002830182612558565b50505b600101610bb2565b505050565b610c92838383604051806020016040528060008152506112d4565b60006104b982611c66565b60006001600160a01b038216610d02576040517f89c62b64000000000000000000000000000000000000000000000000000000008152600060048201526024016105e9565b506001600160a01b031660009081526003602052604090205490565b6060600180546104ce90612b2c565b6009546001600160a01b03163314610d915760405162461bcd60e51b815260206004820152602160248201527f4f6e6c792061646d696e2063616e2063616c6c20746869732066756e6374696f6044820152603760f91b60648201526084016105e9565b6009546001600160a01b0316610da684610cb2565b6001600160a01b031614610e225760405162461bcd60e51b815260206004820152602960248201527f4e4654206d757374206265207472616e7366657272656420746f20737973746560448201527f6d4164647265737321000000000000000000000000000000000000000000000060648201526084016105e9565b6000885111610e735760405162461bcd60e51b815260206004820152601760248201527f4465616c2049442063616e6e6f7420626520656d70747900000000000000000060448201526064016105e9565b4284118015610e825750848410155b610ece5760405162461bcd60e51b815260206004820152601c60248201527f496e76616c69642065787069726174696f6e2074696d657374616d700000000060448201526064016105e9565b428511610f1d5760405162461bcd60e51b815260206004820152601e60248201527f496e76616c696420666c6f6174696e67456e642074696d657374616d7021000060448201526064016105e9565b60008711610f6d5760405162461bcd60e51b815260206004820152601c60248201527f43616e2774206163636570742030206173206d696e20616d6f756e740000000060448201526064016105e9565b86861015610fe35760405162461bcd60e51b815260206004820152603960248201527f54617267657420416d6f756e742073686f756c64206265206d6f72652074686160448201527f6e2f657175616c20746f206d696e696d756d20616d6f756e740000000000000060648201526084016105e9565b6040518061014001604052808981526020018881526020016000815260200187815260200186815260200185815260200184815260200183815260200160008152602001826001600160a01b0316815250600a896040516110449190612b66565b908152604051908190036020019020815181906110619082612cc6565b506020820151600182015560408201516002820155606082015160038201556080820151600482015560a0820151600582015560c0820151600682015560e08201516007820155610100820151600882015561012090910151600991820180546001600160a01b0319166001600160a01b0392831617905590546110f891168960646110ee8a601e612bbe565b6103de9190612bd5565b505050505050505050565b8051602081830181018051600a8252928201919093012091528054819061112990612b2c565b80601f016020809104026020016040519081016040528092919081815260200182805461115590612b2c565b80156111a25780601f10611177576101008083540402835291602001916111a2565b820191906000526020600020905b81548152906001019060200180831161118557829003601f168201915b50505060018401546002850154600386015460048701546005880154600689015460078a015460088b01546009909b0154999a9699959850939650919490939192916001600160a01b03168a565b600082611208576009546001600160a01b031661120a565b835b90506000836112195784611226565b6009546001600160a01b03165b9050816001600160a01b031661123b84610cb2565b6001600160a01b0316146112b75760405162461bcd60e51b815260206004820152602a60248201527f53656e646572206d75737420626520746865206f776e6572206f66207468617460448201527f2042696c6c284e4654290000000000000000000000000000000000000000000060648201526084016105e9565b6112c2828285611da5565b5050505050565b610585338383611dc0565b6112df8484846108a3565b61092884848484611e78565b6009546001600160a01b0316331461134f5760405162461bcd60e51b815260206004820152602160248201527f4f6e6c792061646d696e2063616e2063616c6c20746869732066756e6374696f6044820152603760f91b60648201526084016105e9565b6000818152600b60205260409020600101546113ad5760405162461bcd60e51b815260206004820152601b60248201527f496e766573746d656e7420646f6573206e6f742065786973747321000000000060448201526064016105e9565b42600a600b60008481526020019081526020016000206002016040516113d39190612c6a565b908152602001604051809103902060040154116114585760405162461bcd60e51b815260206004820152602c60248201527f467265657a696e6720706572696f6420737461727465642c2063616e2774207760448201527f69746864726177206e6f7721000000000000000000000000000000000000000060648201526084016105e9565b6000818152600b60205260409020600101546114b65760405162461bcd60e51b815260206004820152601460248201527f496e73756666696369656e742042616c616e636500000000000000000000000060448201526064016105e9565b6000818152600b60205260409020600101543410156115175760405162461bcd60e51b815260206004820152601260248201527f496e73756666696369656e742066756e6473000000000000000000000000000060448201526064016105e9565b6000818152600b6020526040808220805460019091015491516001600160a01b039091169282156108fc02929190818181858888f19350505050158015611562573d6000803e3d6000fd5b506000818152600b6020526040812080546001600160a01b03191681556001810182905590610c926002830182612558565b606061159f82611c66565b50600082815260066020526040812080546115b990612b2c565b80601f01602080910402602001604051908101604052809291908181526020018280546115e590612b2c565b80156116325780601f1061160757610100808354040283529160200191611632565b820191906000526020600020905b81548152906001019060200180831161161557829003601f168201915b50505050509050600061165060408051602081019091526000815290565b90508051600003611662575092915050565b81511561169457808260405160200161167c929190612d86565b60405160208183030381529060405292505050919050565b61169d84611f9a565b949350505050565b6000808351116116f75760405162461bcd60e51b815260206004820152601760248201527f4465616c2049442063616e6e6f7420626520656d70747900000000000000000060448201526064016105e9565b6000600a846040516117099190612b66565b908152602001604051809103902060030154116117685760405162461bcd60e51b815260206004820152601560248201527f4465616c20446f6573206e6f742065786973747321000000000000000000000060448201526064016105e9565b42600a846040516117799190612b66565b908152602001604051809103902060040154116117fe5760405162461bcd60e51b815260206004820152602260248201527f466c6f6174696e6720706572696f64206f766572212043616e277420696e766560448201527f737400000000000000000000000000000000000000000000000000000000000060648201526084016105e9565b600a8360405161180e9190612b66565b9081526020016040518091039020600201548261182b9190612bab565b600a8460405161183b9190612b66565b90815260200160405180910390206003015410156118c05760405162461bcd60e51b8152602060048201526024808201527f43616e277420496e76657374206d6f7265207468616e206c696d697420616d6f60448201527f756e74210000000000000000000000000000000000000000000000000000000060648201526084016105e9565b6000600a846040516118d29190612b66565b908152602001604051809103902060020154600a856040516118f49190612b66565b9081526020016040518091039020600301546119109190612b98565b9050600a846040516119229190612b66565b9081526020016040518091039020600101548310158061196c5750600a8460405161194d9190612b66565b9081526020016040518091039020600101548110801561196c57508083145b6119e0576040805162461bcd60e51b81526020600482015260248101919091527f416d6f756e7420496e766573746564206d757374206265203e3d206d696e206160448201527f6d6f756e74206f7220626520746865206c617374207472616e73616374696f6e60648201526084016105e9565b6009546040516001600160a01b039091169084156108fc029085906000818181858888f19350505050158015611a1a573d6000803e3d6000fd5b5060088054906000611a2b83612db5565b9091555050604080516060810182526001600160a01b03878116825260208083018781528385018981526008546000908152600b90935294909120835181546001600160a01b031916931692909217825551600182015591519091906002820190611a969082612cc6565b5090505082600a85604051611aab9190612b66565b90815260200160405180910390206002016000828254611acb9190612bab565b909155505060085495945050505050565b600754600090611aec848261200f565b611af6818461208d565b600160076000828254611b099190612bab565b9091555090949350505050565b600b602052600090815260409020805460018201546002830180546001600160a01b03909316939192611b4890612b2c565b80601f0160208091040260200160405190810160405280929190818152602001828054611b7490612b2c565b8015611bc15780601f10611b9657610100808354040283529160200191611bc1565b820191906000526020600020905b815481529060010190602001808311611ba457829003601f168201915b5050505050905083565b60006001600160e01b031982167f80ac58cd000000000000000000000000000000000000000000000000000000001480611c2e57506001600160e01b031982167f5b5e139f00000000000000000000000000000000000000000000000000000000145b806104b957507f01ffc9a7000000000000000000000000000000000000000000000000000000006001600160e01b03198316146104b9565b6000818152600260205260408120546001600160a01b0316806104b957604051637e27328960e01b8152600481018490526024016105e9565b610c9283838360016120dd565b6000828152600260205260408120546001600160a01b0390811690831615611cd957611cd981848661221b565b6001600160a01b03811615611d1757611cf66000856000806120dd565b6001600160a01b038116600090815260036020526040902080546000190190555b6001600160a01b03851615611d46576001600160a01b0385166000908152600360205260409020805460010190555b60008481526002602052604080822080546001600160a01b0319166001600160a01b0389811691821790925591518793918516917fddf252ad1be2c89b69c2b068fc378daa952ba7f163c4a11628f55a4df523b3ef91a4949350505050565b610c9283838360405180602001604052806000815250612298565b6001600160a01b038216611e0b576040517f5b08ba180000000000000000000000000000000000000000000000000000000081526001600160a01b03831660048201526024016105e9565b6001600160a01b03838116600081815260056020908152604080832094871680845294825291829020805460ff191686151590811790915591519182527f17307eab39ab6107e8899845ad3d59bd9653f200f220920489ca2b5937696c31910160405180910390a3505050565b6001600160a01b0383163b1561092857604051630a85bd0160e11b81526001600160a01b0384169063150b7a0290611eba903390889087908790600401612dce565b6020604051808303816000875af1925050508015611ef5575060408051601f3d908101601f19168201909252611ef291810190612e0a565b60015b611f5e573d808015611f23576040519150601f19603f3d011682016040523d82523d6000602084013e611f28565b606091505b508051600003611f5657604051633250574960e11b81526001600160a01b03851660048201526024016105e9565b805181602001fd5b6001600160e01b03198116630a85bd0160e11b146112c257604051633250574960e11b81526001600160a01b03851660048201526024016105e9565b6060611fa582611c66565b506000611fbd60408051602081019091526000815290565b90506000815111611fdd5760405180602001604052806000815250612008565b80611fe7846122a3565b604051602001611ff8929190612d86565b6040516020818303038152906040525b9392505050565b6001600160a01b03821661203957604051633250574960e11b8152600060048201526024016105e9565b600061204783836000611cac565b90506001600160a01b03811615610c92576040517f73c6ac6e000000000000000000000000000000000000000000000000000000008152600060048201526024016105e9565b60008281526006602052604090206120a58282612cc6565b506040518281527ff8e1a15aba9398e019f0b49df1a4fde98ee17ae345cb5f6b5e2c27f5033e8ce79060200160405180910390a15050565b80806120f157506001600160a01b03821615155b156121eb57600061210184611c66565b90506001600160a01b0383161580159061212d5750826001600160a01b0316816001600160a01b031614155b801561215f57506001600160a01b0380821660009081526005602090815260408083209387168352929052205460ff16155b156121a1576040517fa9fbf51f0000000000000000000000000000000000000000000000000000000081526001600160a01b03841660048201526024016105e9565b81156121e95783856001600160a01b0316826001600160a01b03167f8c5be1e5ebec7d5bd14f71427d1e84f3dd0314c0f7b2291e5b200ac8c7c3b92560405160405180910390a45b505b5050600090815260046020526040902080546001600160a01b0319166001600160a01b0392909216919091179055565b612226838383612343565b610c92576001600160a01b03831661225457604051637e27328960e01b8152600481018290526024016105e9565b6040517f177e802f0000000000000000000000000000000000000000000000000000000081526001600160a01b0383166004820152602481018290526044016105e9565b6112df8484846123c6565b606060006122b083612476565b600101905060008167ffffffffffffffff8111156122d0576122d061269e565b6040519080825280601f01601f1916602001820160405280156122fa576020820181803683370190505b5090508181016020015b600019017f3031323334353637383961626364656600000000000000000000000000000000600a86061a8153600a850494508461230457509392505050565b60006001600160a01b0383161580159061169d5750826001600160a01b0316846001600160a01b0316148061239d57506001600160a01b0380851660009081526005602090815260408083209387168352929052205460ff165b8061169d5750506000908152600460205260409020546001600160a01b03908116911614919050565b6001600160a01b0382166123f057604051633250574960e11b8152600060048201526024016105e9565b60006123fe83836000611cac565b90506001600160a01b03811661242a57604051637e27328960e01b8152600481018390526024016105e9565b836001600160a01b0316816001600160a01b031614610928576040516364283d7b60e01b81526001600160a01b03808616600483015260248201849052821660448201526064016105e9565b6000807a184f03e93ff9f4daa797ed6e38ed64bf6a1f01000000000000000083106124bf577a184f03e93ff9f4daa797ed6e38ed64bf6a1f010000000000000000830492506040015b6d04ee2d6d415b85acef810000000083106124eb576d04ee2d6d415b85acef8100000000830492506020015b662386f26fc10000831061250957662386f26fc10000830492506010015b6305f5e1008310612521576305f5e100830492506008015b612710831061253557612710830492506004015b60648310612547576064830492506002015b600a83106104b95760010192915050565b50805461256490612b2c565b6000825580601f10612574575050565b601f0160209004906000526020600020908101906125929190612595565b50565b5b808211156125aa5760008155600101612596565b5090565b6001600160e01b03198116811461259257600080fd5b6000602082840312156125d657600080fd5b8135612008816125ae565b60005b838110156125fc5781810151838201526020016125e4565b50506000910152565b6000815180845261261d8160208601602086016125e1565b601f01601f19169290920160200192915050565b6020815260006120086020830184612605565b60006020828403121561265657600080fd5b5035919050565b6001600160a01b038116811461259257600080fd5b6000806040838503121561268557600080fd5b82356126908161265d565b946020939093013593505050565b634e487b7160e01b600052604160045260246000fd5b600067ffffffffffffffff808411156126cf576126cf61269e565b604051601f8501601f19908116603f011681019082821181831017156126f7576126f761269e565b8160405280935085815286868601111561271057600080fd5b858560208301376000602087830101525050509392505050565b600082601f83011261273b57600080fd5b612008838335602085016126b4565b8035801515811461275a57600080fd5b919050565b6000806040838503121561277257600080fd5b823567ffffffffffffffff81111561278957600080fd5b6127958582860161272a565b9250506127a46020840161274a565b90509250929050565b6000806000606084860312156127c257600080fd5b83356127cd8161265d565b925060208401356127dd8161265d565b929592945050506040919091013590565b60006020828403121561280057600080fd5b813567ffffffffffffffff81111561281757600080fd5b61169d8482850161272a565b60006020828403121561283557600080fd5b81356120088161265d565b600080600080600080600080610100898b03121561285d57600080fd5b883567ffffffffffffffff81111561287457600080fd5b6128808b828c0161272a565b9850506020890135965060408901359550606089013594506080890135935060a0890135925060c0890135915060e08901356128bb8161265d565b809150509295985092959890939650565b60006101408083526128e08184018e612605565b602084019c909c52505060408101989098526060880196909652608087019490945260a086019290925260c085015260e08401526101008301526001600160a01b031661012090910152919050565b60008060006060848603121561294457600080fd5b833561294f8161265d565b925061295d6020850161274a565b9150604084013590509250925092565b6000806040838503121561298057600080fd5b823561298b8161265d565b91506127a46020840161274a565b600080600080608085870312156129af57600080fd5b84356129ba8161265d565b935060208501356129ca8161265d565b925060408501359150606085013567ffffffffffffffff8111156129ed57600080fd5b8501601f810187136129fe57600080fd5b612a0d878235602084016126b4565b91505092959194509250565b600080600060608486031215612a2e57600080fd5b8335612a398161265d565b9250602084013567ffffffffffffffff811115612a5557600080fd5b612a618682870161272a565b925050604084013590509250925092565b60008060408385031215612a8557600080fd5b8235612a908161265d565b91506020830135612aa08161265d565b809150509250929050565b60008060408385031215612abe57600080fd5b8235612ac98161265d565b9150602083013567ffffffffffffffff811115612ae557600080fd5b612af18582860161272a565b9150509250929050565b6001600160a01b0384168152826020820152606060408201526000612b236060830184612605565b95945050505050565b600181811c90821680612b4057607f821691505b602082108103612b6057634e487b7160e01b600052602260045260246000fd5b50919050565b60008251612b788184602087016125e1565b9190910192915050565b634e487b7160e01b600052601160045260246000fd5b818103818111156104b9576104b9612b82565b808201808211156104b9576104b9612b82565b80820281158282048414176104b9576104b9612b82565b600082612bf257634e487b7160e01b600052601260045260246000fd5b500490565b60008154612c0481612b2c565b60018281168015612c1c5760018114612c3157612c60565b60ff1984168752821515830287019450612c60565b8560005260208060002060005b85811015612c575781548a820152908401908201612c3e565b50505082870194505b5050505092915050565b60006120088284612bf7565b601f821115610c92576000816000526020600020601f850160051c81016020861015612c9f5750805b601f850160051c820191505b81811015612cbe57828155600101612cab565b505050505050565b815167ffffffffffffffff811115612ce057612ce061269e565b612cf481612cee8454612b2c565b84612c76565b602080601f831160018114612d295760008415612d115750858301515b600019600386901b1c1916600185901b178555612cbe565b600085815260208120601f198616915b82811015612d5857888601518255948401946001909101908401612d39565b5085821015612d765787850151600019600388901b60f8161c191681555b5050505050600190811b01905550565b60008351612d988184602088016125e1565b835190830190612dac8183602088016125e1565b01949350505050565b600060018201612dc757612dc7612b82565b5060010190565b60006001600160a01b03808716835280861660208401525083604083015260806060830152612e006080830184612605565b9695505050505050565b600060208284031215612e1c57600080fd5b8151612008816125ae56fea2646970667358221220ff04374a074059d1007a0928c3f1d588f1f82245daa033be4ccb8fff5dfaf2b364736f6c63430008180033",
  "linkReferences": {},
  "deployedLinkReferences": {}
}